{
	"sybil_resistant_s.sol": {
		"GuessNumberGame": {
			"abi": [
				{
					"inputs": [
						{
							"internalType": "address",
							"name": "_sttToken",
							"type": "address"
						}
					],
					"stateMutability": "nonpayable",
					"type": "constructor"
				},
				{
					"anonymous": false,
					"inputs": [
						{
							"indexed": true,
							"internalType": "address",
							"name": "player",
							"type": "address"
						},
						{
							"indexed": false,
							"internalType": "uint8",
							"name": "guess",
							"type": "uint8"
						},
						{
							"indexed": false,
							"internalType": "uint8",
							"name": "answer",
							"type": "uint8"
						},
						{
							"indexed": false,
							"internalType": "bool",
							"name": "success",
							"type": "bool"
						}
					],
					"name": "GameResult",
					"type": "event"
				},
				{
					"inputs": [],
					"name": "getPotBalance",
					"outputs": [
						{
							"internalType": "uint256",
							"name": "",
							"type": "uint256"
						}
					],
					"stateMutability": "view",
					"type": "function"
				},
				{
					"inputs": [],
					"name": "owner",
					"outputs": [
						{
							"internalType": "address",
							"name": "",
							"type": "address"
						}
					],
					"stateMutability": "view",
					"type": "function"
				},
				{
					"inputs": [
						{
							"internalType": "uint8",
							"name": "guess",
							"type": "uint8"
						}
					],
					"name": "play",
					"outputs": [],
					"stateMutability": "nonpayable",
					"type": "function"
				},
				{
					"inputs": [],
					"name": "pot",
					"outputs": [
						{
							"internalType": "uint256",
							"name": "",
							"type": "uint256"
						}
					],
					"stateMutability": "view",
					"type": "function"
				},
				{
					"inputs": [],
					"name": "reward",
					"outputs": [
						{
							"internalType": "uint256",
							"name": "",
							"type": "uint256"
						}
					],
					"stateMutability": "view",
					"type": "function"
				},
				{
					"inputs": [],
					"name": "stake",
					"outputs": [
						{
							"internalType": "uint256",
							"name": "",
							"type": "uint256"
						}
					],
					"stateMutability": "view",
					"type": "function"
				},
				{
					"inputs": [],
					"name": "sttToken",
					"outputs": [
						{
							"internalType": "contract IERC20",
							"name": "",
							"type": "address"
						}
					],
					"stateMutability": "view",
					"type": "function"
				},
				{
					"inputs": [],
					"name": "withdrawPot",
					"outputs": [],
					"stateMutability": "nonpayable",
					"type": "function"
				}
			],
			"devdoc": {
				"kind": "dev",
				"methods": {},
				"version": 1
			},
			"evm": {
				"assembly": "    /* \"sybil_resistant_s.sol\":272:1630  contract GuessNumberGame {... */\n  mstore(0x40, 0x80)\n    /* \"sybil_resistant_s.sol\":383:395  2 * 10 ** 18 */\n  0x1bc16d674ec80000\n    /* \"sybil_resistant_s.sol\":360:395  uint256 public stake = 2 * 10 ** 18 */\n  0x02\n  sstore\n    /* \"sybil_resistant_s.sol\":435:447  5 * 10 ** 18 */\n  0x4563918244f40000\n    /* \"sybil_resistant_s.sol\":411:447  uint256 public reward = 5 * 10 ** 18 */\n  0x03\n  sstore\n    /* \"sybil_resistant_s.sol\":580:687  constructor(address _sttToken) {... */\n  callvalue\n  dup1\n  iszero\n  tag_1\n  jumpi\n  0x00\n  dup1\n  revert\ntag_1:\n  pop\n  mload(0x40)\n  sub(codesize, bytecodeSize)\n  dup1\n  bytecodeSize\n  dup4\n  codecopy\n  dup2\n  dup2\n  add\n  0x40\n  mstore\n  dup2\n  add\n  swap1\n  tag_2\n  swap2\n  swap1\n  tag_3\n  jump\t// in\ntag_2:\n    /* \"sybil_resistant_s.sol\":640:649  _sttToken */\n  dup1\n    /* \"sybil_resistant_s.sol\":622:630  sttToken */\n  0x00\n  dup1\n    /* \"sybil_resistant_s.sol\":622:650  sttToken = IERC20(_sttToken) */\n  0x0100\n  exp\n  dup2\n  sload\n  dup2\n  0xffffffffffffffffffffffffffffffffffffffff\n  mul\n  not\n  and\n  swap1\n  dup4\n  0xffffffffffffffffffffffffffffffffffffffff\n  and\n  mul\n  or\n  swap1\n  sstore\n  pop\n    /* \"sybil_resistant_s.sol\":669:679  msg.sender */\n  caller\n    /* \"sybil_resistant_s.sol\":661:666  owner */\n  0x01\n  0x00\n    /* \"sybil_resistant_s.sol\":661:679  owner = msg.sender */\n  0x0100\n  exp\n  dup2\n  sload\n  dup2\n  0xffffffffffffffffffffffffffffffffffffffff\n  mul\n  not\n  and\n  swap1\n  dup4\n  0xffffffffffffffffffffffffffffffffffffffff\n  and\n  mul\n  or\n  swap1\n  sstore\n  pop\n    /* \"sybil_resistant_s.sol\":580:687  constructor(address _sttToken) {... */\n  pop\n    /* \"sybil_resistant_s.sol\":272:1630  contract GuessNumberGame {... */\n  jump(tag_6)\n    /* \"#utility.yul\":88:205   */\ntag_8:\n    /* \"#utility.yul\":197:198   */\n  0x00\n    /* \"#utility.yul\":194:195   */\n  dup1\n    /* \"#utility.yul\":187:199   */\n  revert\n    /* \"#utility.yul\":334:460   */\ntag_10:\n    /* \"#utility.yul\":371:378   */\n  0x00\n    /* \"#utility.yul\":411:453   */\n  0xffffffffffffffffffffffffffffffffffffffff\n    /* \"#utility.yul\":404:409   */\n  dup3\n    /* \"#utility.yul\":400:454   */\n  and\n    /* \"#utility.yul\":389:454   */\n  swap1\n  pop\n    /* \"#utility.yul\":334:460   */\n  swap2\n  swap1\n  pop\n  jump\t// out\n    /* \"#utility.yul\":466:562   */\ntag_11:\n    /* \"#utility.yul\":503:510   */\n  0x00\n    /* \"#utility.yul\":532:556   */\n  tag_20\n    /* \"#utility.yul\":550:555   */\n  dup3\n    /* \"#utility.yul\":532:556   */\n  tag_10\n  jump\t// in\ntag_20:\n    /* \"#utility.yul\":521:556   */\n  swap1\n  pop\n    /* \"#utility.yul\":466:562   */\n  swap2\n  swap1\n  pop\n  jump\t// out\n    /* \"#utility.yul\":568:690   */\ntag_12:\n    /* \"#utility.yul\":641:665   */\n  tag_22\n    /* \"#utility.yul\":659:664   */\n  dup2\n    /* \"#utility.yul\":641:665   */\n  tag_11\n  jump\t// in\ntag_22:\n    /* \"#utility.yul\":634:639   */\n  dup2\n    /* \"#utility.yul\":631:666   */\n  eq\n    /* \"#utility.yul\":621:684   */\n  tag_23\n  jumpi\n    /* \"#utility.yul\":680:681   */\n  0x00\n    /* \"#utility.yul\":677:678   */\n  dup1\n    /* \"#utility.yul\":670:682   */\n  revert\n    /* \"#utility.yul\":621:684   */\ntag_23:\n    /* \"#utility.yul\":568:690   */\n  pop\n  jump\t// out\n    /* \"#utility.yul\":696:839   */\ntag_13:\n    /* \"#utility.yul\":753:758   */\n  0x00\n    /* \"#utility.yul\":784:790   */\n  dup2\n    /* \"#utility.yul\":778:791   */\n  mload\n    /* \"#utility.yul\":769:791   */\n  swap1\n  pop\n    /* \"#utility.yul\":800:833   */\n  tag_25\n    /* \"#utility.yul\":827:832   */\n  dup2\n    /* \"#utility.yul\":800:833   */\n  tag_12\n  jump\t// in\ntag_25:\n    /* \"#utility.yul\":696:839   */\n  swap3\n  swap2\n  pop\n  pop\n  jump\t// out\n    /* \"#utility.yul\":845:1196   */\ntag_3:\n    /* \"#utility.yul\":915:921   */\n  0x00\n    /* \"#utility.yul\":964:966   */\n  0x20\n    /* \"#utility.yul\":952:961   */\n  dup3\n    /* \"#utility.yul\":943:950   */\n  dup5\n    /* \"#utility.yul\":939:962   */\n  sub\n    /* \"#utility.yul\":935:967   */\n  slt\n    /* \"#utility.yul\":932:1051   */\n  iszero\n  tag_27\n  jumpi\n    /* \"#utility.yul\":970:1049   */\n  tag_28\n  tag_8\n  jump\t// in\ntag_28:\n    /* \"#utility.yul\":932:1051   */\ntag_27:\n    /* \"#utility.yul\":1090:1091   */\n  0x00\n    /* \"#utility.yul\":1115:1179   */\n  tag_29\n    /* \"#utility.yul\":1171:1178   */\n  dup5\n    /* \"#utility.yul\":1162:1168   */\n  dup3\n    /* \"#utility.yul\":1151:1160   */\n  dup6\n    /* \"#utility.yul\":1147:1169   */\n  add\n    /* \"#utility.yul\":1115:1179   */\n  tag_13\n  jump\t// in\ntag_29:\n    /* \"#utility.yul\":1105:1179   */\n  swap2\n  pop\n    /* \"#utility.yul\":1061:1189   */\n  pop\n    /* \"#utility.yul\":845:1196   */\n  swap3\n  swap2\n  pop\n  pop\n  jump\t// out\n    /* \"sybil_resistant_s.sol\":272:1630  contract GuessNumberGame {... */\ntag_6:\n  dataSize(sub_0)\n  dup1\n  dataOffset(sub_0)\n  0x00\n  codecopy\n  0x00\n  return\nstop\n\nsub_0: assembly {\n        /* \"sybil_resistant_s.sol\":272:1630  contract GuessNumberGame {... */\n      mstore(0x40, 0x80)\n      callvalue\n      dup1\n      iszero\n      tag_1\n      jumpi\n      0x00\n      dup1\n      revert\n    tag_1:\n      pop\n      jumpi(tag_2, lt(calldatasize, 0x04))\n      shr(0xe0, calldataload(0x00))\n      dup1\n      0x53a04b05\n      gt\n      tag_11\n      jumpi\n      dup1\n      0x53a04b05\n      eq\n      tag_7\n      jumpi\n      dup1\n      0x71e8fb57\n      eq\n      tag_8\n      jumpi\n      dup1\n      0x7882bf7e\n      eq\n      tag_9\n      jumpi\n      dup1\n      0x8da5cb5b\n      eq\n      tag_10\n      jumpi\n      jump(tag_2)\n    tag_11:\n      dup1\n      0x0c76316d\n      eq\n      tag_3\n      jumpi\n      dup1\n      0x228cb733\n      eq\n      tag_4\n      jumpi\n      dup1\n      0x3a4b66f1\n      eq\n      tag_5\n      jumpi\n      dup1\n      0x4ba2363a\n      eq\n      tag_6\n      jumpi\n    tag_2:\n      0x00\n      dup1\n      revert\n        /* \"sybil_resistant_s.sol\":1442:1627  function withdrawPot() external {... */\n    tag_3:\n      tag_12\n      tag_13\n      jump\t// in\n    tag_12:\n      stop\n        /* \"sybil_resistant_s.sol\":411:447  uint256 public reward = 5 * 10 ** 18 */\n    tag_4:\n      tag_14\n      tag_15\n      jump\t// in\n    tag_14:\n      mload(0x40)\n      tag_16\n      swap2\n      swap1\n      tag_17\n      jump\t// in\n    tag_16:\n      mload(0x40)\n      dup1\n      swap2\n      sub\n      swap1\n      return\n        /* \"sybil_resistant_s.sol\":360:395  uint256 public stake = 2 * 10 ** 18 */\n    tag_5:\n      tag_18\n      tag_19\n      jump\t// in\n    tag_18:\n      mload(0x40)\n      tag_20\n      swap2\n      swap1\n      tag_17\n      jump\t// in\n    tag_20:\n      mload(0x40)\n      dup1\n      swap2\n      sub\n      swap1\n      return\n        /* \"sybil_resistant_s.sol\":463:481  uint256 public pot */\n    tag_6:\n      tag_21\n      tag_22\n      jump\t// in\n    tag_21:\n      mload(0x40)\n      tag_23\n      swap2\n      swap1\n      tag_17\n      jump\t// in\n    tag_23:\n      mload(0x40)\n      dup1\n      swap2\n      sub\n      swap1\n      return\n        /* \"sybil_resistant_s.sol\":695:1340  function play(uint8 guess) external {... */\n    tag_7:\n      tag_24\n      0x04\n      dup1\n      calldatasize\n      sub\n      dup2\n      add\n      swap1\n      tag_25\n      swap2\n      swap1\n      tag_26\n      jump\t// in\n    tag_25:\n      tag_27\n      jump\t// in\n    tag_24:\n      stop\n        /* \"sybil_resistant_s.sol\":1348:1434  function getPotBalance() external view returns (uint256) {... */\n    tag_8:\n      tag_28\n      tag_29\n      jump\t// in\n    tag_28:\n      mload(0x40)\n      tag_30\n      swap2\n      swap1\n      tag_17\n      jump\t// in\n    tag_30:\n      mload(0x40)\n      dup1\n      swap2\n      sub\n      swap1\n      return\n        /* \"sybil_resistant_s.sol\":304:326  IERC20 public sttToken */\n    tag_9:\n      tag_31\n      tag_32\n      jump\t// in\n    tag_31:\n      mload(0x40)\n      tag_33\n      swap2\n      swap1\n      tag_34\n      jump\t// in\n    tag_33:\n      mload(0x40)\n      dup1\n      swap2\n      sub\n      swap1\n      return\n        /* \"sybil_resistant_s.sol\":333:353  address public owner */\n    tag_10:\n      tag_35\n      tag_36\n      jump\t// in\n    tag_35:\n      mload(0x40)\n      tag_37\n      swap2\n      swap1\n      tag_38\n      jump\t// in\n    tag_37:\n      mload(0x40)\n      dup1\n      swap2\n      sub\n      swap1\n      return\n        /* \"sybil_resistant_s.sol\":1442:1627  function withdrawPot() external {... */\n    tag_13:\n        /* \"sybil_resistant_s.sol\":1507:1512  owner */\n      0x01\n      0x00\n      swap1\n      sload\n      swap1\n      0x0100\n      exp\n      swap1\n      div\n      0xffffffffffffffffffffffffffffffffffffffff\n      and\n        /* \"sybil_resistant_s.sol\":1493:1512  msg.sender == owner */\n      0xffffffffffffffffffffffffffffffffffffffff\n      and\n        /* \"sybil_resistant_s.sol\":1493:1503  msg.sender */\n      caller\n        /* \"sybil_resistant_s.sol\":1493:1512  msg.sender == owner */\n      0xffffffffffffffffffffffffffffffffffffffff\n      and\n      eq\n        /* \"sybil_resistant_s.sol\":1485:1527  require(msg.sender == owner, \"Only owner\") */\n      tag_40\n      jumpi\n      mload(0x40)\n      0x08c379a000000000000000000000000000000000000000000000000000000000\n      dup2\n      mstore\n      0x04\n      add\n      tag_41\n      swap1\n      tag_42\n      jump\t// in\n    tag_41:\n      mload(0x40)\n      dup1\n      swap2\n      sub\n      swap1\n      revert\n    tag_40:\n        /* \"sybil_resistant_s.sol\":1538:1552  uint256 amount */\n      0x00\n        /* \"sybil_resistant_s.sol\":1555:1558  pot */\n      sload(0x04)\n        /* \"sybil_resistant_s.sol\":1538:1558  uint256 amount = pot */\n      swap1\n      pop\n        /* \"sybil_resistant_s.sol\":1575:1576  0 */\n      0x00\n        /* \"sybil_resistant_s.sol\":1569:1572  pot */\n      0x04\n        /* \"sybil_resistant_s.sol\":1569:1576  pot = 0 */\n      dup2\n      swap1\n      sstore\n      pop\n        /* \"sybil_resistant_s.sol\":1587:1595  sttToken */\n      0x00\n      dup1\n      sload\n      swap1\n      0x0100\n      exp\n      swap1\n      div\n      0xffffffffffffffffffffffffffffffffffffffff\n      and\n        /* \"sybil_resistant_s.sol\":1587:1604  sttToken.transfer */\n      0xffffffffffffffffffffffffffffffffffffffff\n      and\n      0xa9059cbb\n        /* \"sybil_resistant_s.sol\":1605:1610  owner */\n      0x01\n      0x00\n      swap1\n      sload\n      swap1\n      0x0100\n      exp\n      swap1\n      div\n      0xffffffffffffffffffffffffffffffffffffffff\n      and\n        /* \"sybil_resistant_s.sol\":1612:1618  amount */\n      dup4\n        /* \"sybil_resistant_s.sol\":1587:1619  sttToken.transfer(owner, amount) */\n      mload(0x40)\n      dup4\n      0xffffffff\n      and\n      0xe0\n      shl\n      dup2\n      mstore\n      0x04\n      add\n      tag_43\n      swap3\n      swap2\n      swap1\n      tag_44\n      jump\t// in\n    tag_43:\n      0x20\n      mload(0x40)\n      dup1\n      dup4\n      sub\n      dup2\n      0x00\n      dup8\n      gas\n      call\n      iszero\n      dup1\n      iszero\n      tag_46\n      jumpi\n      returndatasize\n      0x00\n      dup1\n      returndatacopy\n      revert(0x00, returndatasize)\n    tag_46:\n      pop\n      pop\n      pop\n      pop\n      mload(0x40)\n      returndatasize\n      not(0x1f)\n      0x1f\n      dup3\n      add\n      and\n      dup3\n      add\n      dup1\n      0x40\n      mstore\n      pop\n      dup2\n      add\n      swap1\n      tag_47\n      swap2\n      swap1\n      tag_48\n      jump\t// in\n    tag_47:\n      pop\n        /* \"sybil_resistant_s.sol\":1474:1627  {... */\n      pop\n        /* \"sybil_resistant_s.sol\":1442:1627  function withdrawPot() external {... */\n      jump\t// out\n        /* \"sybil_resistant_s.sol\":411:447  uint256 public reward = 5 * 10 ** 18 */\n    tag_15:\n      sload(0x03)\n      dup2\n      jump\t// out\n        /* \"sybil_resistant_s.sol\":360:395  uint256 public stake = 2 * 10 ** 18 */\n    tag_19:\n      sload(0x02)\n      dup2\n      jump\t// out\n        /* \"sybil_resistant_s.sol\":463:481  uint256 public pot */\n    tag_22:\n      sload(0x04)\n      dup2\n      jump\t// out\n        /* \"sybil_resistant_s.sol\":695:1340  function play(uint8 guess) external {... */\n    tag_27:\n        /* \"sybil_resistant_s.sol\":759:760  1 */\n      0x01\n        /* \"sybil_resistant_s.sol\":750:755  guess */\n      dup2\n        /* \"sybil_resistant_s.sol\":750:760  guess >= 1 */\n      0xff\n      and\n      lt\n      iszero\n        /* \"sybil_resistant_s.sol\":750:775  guess >= 1 && guess <= 10 */\n      dup1\n      iszero\n      tag_50\n      jumpi\n      pop\n        /* \"sybil_resistant_s.sol\":773:775  10 */\n      0x0a\n        /* \"sybil_resistant_s.sol\":764:769  guess */\n      dup2\n        /* \"sybil_resistant_s.sol\":764:775  guess <= 10 */\n      0xff\n      and\n      gt\n      iszero\n        /* \"sybil_resistant_s.sol\":750:775  guess >= 1 && guess <= 10 */\n    tag_50:\n        /* \"sybil_resistant_s.sol\":742:798  require(guess >= 1 && guess <= 10, \"Guess must be 1-10\") */\n      tag_51\n      jumpi\n      mload(0x40)\n      0x08c379a000000000000000000000000000000000000000000000000000000000\n      dup2\n      mstore\n      0x04\n      add\n      tag_52\n      swap1\n      tag_53\n      jump\t// in\n    tag_52:\n      mload(0x40)\n      dup1\n      swap2\n      sub\n      swap1\n      revert\n    tag_51:\n        /* \"sybil_resistant_s.sol\":817:825  sttToken */\n      0x00\n      dup1\n      sload\n      swap1\n      0x0100\n      exp\n      swap1\n      div\n      0xffffffffffffffffffffffffffffffffffffffff\n      and\n        /* \"sybil_resistant_s.sol\":817:838  sttToken.transferFrom */\n      0xffffffffffffffffffffffffffffffffffffffff\n      and\n      0x23b872dd\n        /* \"sybil_resistant_s.sol\":839:849  msg.sender */\n      caller\n        /* \"sybil_resistant_s.sol\":859:863  this */\n      address\n        /* \"sybil_resistant_s.sol\":866:871  stake */\n      sload(0x02)\n        /* \"sybil_resistant_s.sol\":817:872  sttToken.transferFrom(msg.sender, address(this), stake) */\n      mload(0x40)\n      dup5\n      0xffffffff\n      and\n      0xe0\n      shl\n      dup2\n      mstore\n      0x04\n      add\n      tag_54\n      swap4\n      swap3\n      swap2\n      swap1\n      tag_55\n      jump\t// in\n    tag_54:\n      0x20\n      mload(0x40)\n      dup1\n      dup4\n      sub\n      dup2\n      0x00\n      dup8\n      gas\n      call\n      iszero\n      dup1\n      iszero\n      tag_57\n      jumpi\n      returndatasize\n      0x00\n      dup1\n      returndatacopy\n      revert(0x00, returndatasize)\n    tag_57:\n      pop\n      pop\n      pop\n      pop\n      mload(0x40)\n      returndatasize\n      not(0x1f)\n      0x1f\n      dup3\n      add\n      and\n      dup3\n      add\n      dup1\n      0x40\n      mstore\n      pop\n      dup2\n      add\n      swap1\n      tag_58\n      swap2\n      swap1\n      tag_48\n      jump\t// in\n    tag_58:\n        /* \"sybil_resistant_s.sol\":809:896  require(sttToken.transferFrom(msg.sender, address(this), stake), \"STT transfer failed\") */\n      tag_59\n      jumpi\n      mload(0x40)\n      0x08c379a000000000000000000000000000000000000000000000000000000000\n      dup2\n      mstore\n      0x04\n      add\n      tag_60\n      swap1\n      tag_61\n      jump\t// in\n    tag_60:\n      mload(0x40)\n      dup1\n      swap2\n      sub\n      swap1\n      revert\n    tag_59:\n        /* \"sybil_resistant_s.sol\":916:921  stake */\n      sload(0x02)\n        /* \"sybil_resistant_s.sol\":909:912  pot */\n      0x04\n      0x00\n        /* \"sybil_resistant_s.sol\":909:921  pot += stake */\n      dup3\n      dup3\n      sload\n      tag_62\n      swap2\n      swap1\n      tag_63\n      jump\t// in\n    tag_62:\n      swap3\n      pop\n      pop\n      dup2\n      swap1\n      sstore\n      pop\n        /* \"sybil_resistant_s.sol\":934:946  uint8 answer */\n      0x00\n        /* \"sybil_resistant_s.sol\":1048:1049  1 */\n      0x01\n        /* \"sybil_resistant_s.sol\":1042:1044  10 */\n      0x0a\n        /* \"sybil_resistant_s.sol\":991:1006  block.timestamp */\n      timestamp\n        /* \"sybil_resistant_s.sol\":1008:1018  msg.sender */\n      caller\n        /* \"sybil_resistant_s.sol\":1020:1036  block.prevrandao */\n      prevrandao\n        /* \"sybil_resistant_s.sol\":974:1037  abi.encodePacked(block.timestamp, msg.sender, block.prevrandao) */\n      add(0x20, mload(0x40))\n      tag_64\n      swap4\n      swap3\n      swap2\n      swap1\n      tag_65\n      jump\t// in\n    tag_64:\n      mload(0x40)\n      0x20\n      dup2\n      dup4\n      sub\n      sub\n      dup2\n      mstore\n      swap1\n      0x40\n      mstore\n        /* \"sybil_resistant_s.sol\":964:1038  keccak256(abi.encodePacked(block.timestamp, msg.sender, block.prevrandao)) */\n      dup1\n      mload\n      swap1\n      0x20\n      add\n      keccak256\n        /* \"sybil_resistant_s.sol\":956:1039  uint256(keccak256(abi.encodePacked(block.timestamp, msg.sender, block.prevrandao))) */\n      0x00\n      shr\n        /* \"sybil_resistant_s.sol\":956:1044  uint256(keccak256(abi.encodePacked(block.timestamp, msg.sender, block.prevrandao))) % 10 */\n      tag_66\n      swap2\n      swap1\n      tag_67\n      jump\t// in\n    tag_66:\n        /* \"sybil_resistant_s.sol\":955:1049  (uint256(keccak256(abi.encodePacked(block.timestamp, msg.sender, block.prevrandao))) % 10) + 1 */\n      tag_68\n      swap2\n      swap1\n      tag_63\n      jump\t// in\n    tag_68:\n        /* \"sybil_resistant_s.sol\":934:1050  uint8 answer = uint8((uint256(keccak256(abi.encodePacked(block.timestamp, msg.sender, block.prevrandao))) % 10) + 1) */\n      swap1\n      pop\n        /* \"sybil_resistant_s.sol\":1061:1073  bool success */\n      0x00\n        /* \"sybil_resistant_s.sol\":1086:1092  answer */\n      dup2\n        /* \"sybil_resistant_s.sol\":1077:1092  guess == answer */\n      0xff\n      and\n        /* \"sybil_resistant_s.sol\":1077:1082  guess */\n      dup4\n        /* \"sybil_resistant_s.sol\":1077:1092  guess == answer */\n      0xff\n      and\n      eq\n        /* \"sybil_resistant_s.sol\":1061:1093  bool success = (guess == answer) */\n      swap1\n      pop\n        /* \"sybil_resistant_s.sol\":1110:1117  success */\n      dup1\n        /* \"sybil_resistant_s.sol\":1106:1269  if (success) {... */\n      iszero\n      tag_69\n      jumpi\n        /* \"sybil_resistant_s.sol\":1149:1155  reward */\n      sload(0x03)\n        /* \"sybil_resistant_s.sol\":1142:1145  pot */\n      sload(0x04)\n        /* \"sybil_resistant_s.sol\":1142:1155  pot >= reward */\n      lt\n      iszero\n        /* \"sybil_resistant_s.sol\":1134:1177  require(pot >= reward, \"Not enough in pot\") */\n      tag_70\n      jumpi\n      mload(0x40)\n      0x08c379a000000000000000000000000000000000000000000000000000000000\n      dup2\n      mstore\n      0x04\n      add\n      tag_71\n      swap1\n      tag_72\n      jump\t// in\n    tag_71:\n      mload(0x40)\n      dup1\n      swap2\n      sub\n      swap1\n      revert\n    tag_70:\n        /* \"sybil_resistant_s.sol\":1192:1200  sttToken */\n      0x00\n      dup1\n      sload\n      swap1\n      0x0100\n      exp\n      swap1\n      div\n      0xffffffffffffffffffffffffffffffffffffffff\n      and\n        /* \"sybil_resistant_s.sol\":1192:1209  sttToken.transfer */\n      0xffffffffffffffffffffffffffffffffffffffff\n      and\n      0xa9059cbb\n        /* \"sybil_resistant_s.sol\":1210:1220  msg.sender */\n      caller\n        /* \"sybil_resistant_s.sol\":1222:1228  reward */\n      sload(0x03)\n        /* \"sybil_resistant_s.sol\":1192:1229  sttToken.transfer(msg.sender, reward) */\n      mload(0x40)\n      dup4\n      0xffffffff\n      and\n      0xe0\n      shl\n      dup2\n      mstore\n      0x04\n      add\n      tag_73\n      swap3\n      swap2\n      swap1\n      tag_44\n      jump\t// in\n    tag_73:\n      0x20\n      mload(0x40)\n      dup1\n      dup4\n      sub\n      dup2\n      0x00\n      dup8\n      gas\n      call\n      iszero\n      dup1\n      iszero\n      tag_75\n      jumpi\n      returndatasize\n      0x00\n      dup1\n      returndatacopy\n      revert(0x00, returndatasize)\n    tag_75:\n      pop\n      pop\n      pop\n      pop\n      mload(0x40)\n      returndatasize\n      not(0x1f)\n      0x1f\n      dup3\n      add\n      and\n      dup3\n      add\n      dup1\n      0x40\n      mstore\n      pop\n      dup2\n      add\n      swap1\n      tag_76\n      swap2\n      swap1\n      tag_48\n      jump\t// in\n    tag_76:\n      pop\n        /* \"sybil_resistant_s.sol\":1251:1257  reward */\n      sload(0x03)\n        /* \"sybil_resistant_s.sol\":1244:1247  pot */\n      0x04\n      0x00\n        /* \"sybil_resistant_s.sol\":1244:1257  pot -= reward */\n      dup3\n      dup3\n      sload\n      tag_77\n      swap2\n      swap1\n      tag_78\n      jump\t// in\n    tag_77:\n      swap3\n      pop\n      pop\n      dup2\n      swap1\n      sstore\n      pop\n        /* \"sybil_resistant_s.sol\":1106:1269  if (success) {... */\n    tag_69:\n        /* \"sybil_resistant_s.sol\":1297:1307  msg.sender */\n      caller\n        /* \"sybil_resistant_s.sol\":1286:1332  GameResult(msg.sender, guess, answer, success) */\n      0xffffffffffffffffffffffffffffffffffffffff\n      and\n      0xe797642872b32e72a4dcefab4f9e4de91e11f9f917046fbaad3186888aa8a0ce\n        /* \"sybil_resistant_s.sol\":1309:1314  guess */\n      dup5\n        /* \"sybil_resistant_s.sol\":1316:1322  answer */\n      dup5\n        /* \"sybil_resistant_s.sol\":1324:1331  success */\n      dup5\n        /* \"sybil_resistant_s.sol\":1286:1332  GameResult(msg.sender, guess, answer, success) */\n      mload(0x40)\n      tag_79\n      swap4\n      swap3\n      swap2\n      swap1\n      tag_80\n      jump\t// in\n    tag_79:\n      mload(0x40)\n      dup1\n      swap2\n      sub\n      swap1\n      log2\n        /* \"sybil_resistant_s.sol\":731:1340  {... */\n      pop\n      pop\n        /* \"sybil_resistant_s.sol\":695:1340  function play(uint8 guess) external {... */\n      pop\n      jump\t// out\n        /* \"sybil_resistant_s.sol\":1348:1434  function getPotBalance() external view returns (uint256) {... */\n    tag_29:\n        /* \"sybil_resistant_s.sol\":1396:1403  uint256 */\n      0x00\n        /* \"sybil_resistant_s.sol\":1423:1426  pot */\n      sload(0x04)\n        /* \"sybil_resistant_s.sol\":1416:1426  return pot */\n      swap1\n      pop\n        /* \"sybil_resistant_s.sol\":1348:1434  function getPotBalance() external view returns (uint256) {... */\n      swap1\n      jump\t// out\n        /* \"sybil_resistant_s.sol\":304:326  IERC20 public sttToken */\n    tag_32:\n      0x00\n      dup1\n      sload\n      swap1\n      0x0100\n      exp\n      swap1\n      div\n      0xffffffffffffffffffffffffffffffffffffffff\n      and\n      dup2\n      jump\t// out\n        /* \"sybil_resistant_s.sol\":333:353  address public owner */\n    tag_36:\n      0x01\n      0x00\n      swap1\n      sload\n      swap1\n      0x0100\n      exp\n      swap1\n      div\n      0xffffffffffffffffffffffffffffffffffffffff\n      and\n      dup2\n      jump\t// out\n        /* \"#utility.yul\":7:84   */\n    tag_82:\n        /* \"#utility.yul\":44:51   */\n      0x00\n        /* \"#utility.yul\":73:78   */\n      dup2\n        /* \"#utility.yul\":62:78   */\n      swap1\n      pop\n        /* \"#utility.yul\":7:84   */\n      swap2\n      swap1\n      pop\n      jump\t// out\n        /* \"#utility.yul\":90:208   */\n    tag_83:\n        /* \"#utility.yul\":177:201   */\n      tag_123\n        /* \"#utility.yul\":195:200   */\n      dup2\n        /* \"#utility.yul\":177:201   */\n      tag_82\n      jump\t// in\n    tag_123:\n        /* \"#utility.yul\":172:175   */\n      dup3\n        /* \"#utility.yul\":165:202   */\n      mstore\n        /* \"#utility.yul\":90:208   */\n      pop\n      pop\n      jump\t// out\n        /* \"#utility.yul\":214:436   */\n    tag_17:\n        /* \"#utility.yul\":307:311   */\n      0x00\n        /* \"#utility.yul\":345:347   */\n      0x20\n        /* \"#utility.yul\":334:343   */\n      dup3\n        /* \"#utility.yul\":330:348   */\n      add\n        /* \"#utility.yul\":322:348   */\n      swap1\n      pop\n        /* \"#utility.yul\":358:429   */\n      tag_125\n        /* \"#utility.yul\":426:427   */\n      0x00\n        /* \"#utility.yul\":415:424   */\n      dup4\n        /* \"#utility.yul\":411:428   */\n      add\n        /* \"#utility.yul\":402:408   */\n      dup5\n        /* \"#utility.yul\":358:429   */\n      tag_83\n      jump\t// in\n    tag_125:\n        /* \"#utility.yul\":214:436   */\n      swap3\n      swap2\n      pop\n      pop\n      jump\t// out\n        /* \"#utility.yul\":523:640   */\n    tag_85:\n        /* \"#utility.yul\":632:633   */\n      0x00\n        /* \"#utility.yul\":629:630   */\n      dup1\n        /* \"#utility.yul\":622:634   */\n      revert\n        /* \"#utility.yul\":769:855   */\n    tag_87:\n        /* \"#utility.yul\":804:811   */\n      0x00\n        /* \"#utility.yul\":844:848   */\n      0xff\n        /* \"#utility.yul\":837:842   */\n      dup3\n        /* \"#utility.yul\":833:849   */\n      and\n        /* \"#utility.yul\":822:849   */\n      swap1\n      pop\n        /* \"#utility.yul\":769:855   */\n      swap2\n      swap1\n      pop\n      jump\t// out\n        /* \"#utility.yul\":861:979   */\n    tag_88:\n        /* \"#utility.yul\":932:954   */\n      tag_131\n        /* \"#utility.yul\":948:953   */\n      dup2\n        /* \"#utility.yul\":932:954   */\n      tag_87\n      jump\t// in\n    tag_131:\n        /* \"#utility.yul\":925:930   */\n      dup2\n        /* \"#utility.yul\":922:955   */\n      eq\n        /* \"#utility.yul\":912:973   */\n      tag_132\n      jumpi\n        /* \"#utility.yul\":969:970   */\n      0x00\n        /* \"#utility.yul\":966:967   */\n      dup1\n        /* \"#utility.yul\":959:971   */\n      revert\n        /* \"#utility.yul\":912:973   */\n    tag_132:\n        /* \"#utility.yul\":861:979   */\n      pop\n      jump\t// out\n        /* \"#utility.yul\":985:1120   */\n    tag_89:\n        /* \"#utility.yul\":1029:1034   */\n      0x00\n        /* \"#utility.yul\":1067:1073   */\n      dup2\n        /* \"#utility.yul\":1054:1074   */\n      calldataload\n        /* \"#utility.yul\":1045:1074   */\n      swap1\n      pop\n        /* \"#utility.yul\":1083:1114   */\n      tag_134\n        /* \"#utility.yul\":1108:1113   */\n      dup2\n        /* \"#utility.yul\":1083:1114   */\n      tag_88\n      jump\t// in\n    tag_134:\n        /* \"#utility.yul\":985:1120   */\n      swap3\n      swap2\n      pop\n      pop\n      jump\t// out\n        /* \"#utility.yul\":1126:1451   */\n    tag_26:\n        /* \"#utility.yul\":1183:1189   */\n      0x00\n        /* \"#utility.yul\":1232:1234   */\n      0x20\n        /* \"#utility.yul\":1220:1229   */\n      dup3\n        /* \"#utility.yul\":1211:1218   */\n      dup5\n        /* \"#utility.yul\":1207:1230   */\n      sub\n        /* \"#utility.yul\":1203:1235   */\n      slt\n        /* \"#utility.yul\":1200:1319   */\n      iszero\n      tag_136\n      jumpi\n        /* \"#utility.yul\":1238:1317   */\n      tag_137\n      tag_85\n      jump\t// in\n    tag_137:\n        /* \"#utility.yul\":1200:1319   */\n    tag_136:\n        /* \"#utility.yul\":1358:1359   */\n      0x00\n        /* \"#utility.yul\":1383:1434   */\n      tag_138\n        /* \"#utility.yul\":1426:1433   */\n      dup5\n        /* \"#utility.yul\":1417:1423   */\n      dup3\n        /* \"#utility.yul\":1406:1415   */\n      dup6\n        /* \"#utility.yul\":1402:1424   */\n      add\n        /* \"#utility.yul\":1383:1434   */\n      tag_89\n      jump\t// in\n    tag_138:\n        /* \"#utility.yul\":1373:1434   */\n      swap2\n      pop\n        /* \"#utility.yul\":1329:1444   */\n      pop\n        /* \"#utility.yul\":1126:1451   */\n      swap3\n      swap2\n      pop\n      pop\n      jump\t// out\n        /* \"#utility.yul\":1457:1583   */\n    tag_90:\n        /* \"#utility.yul\":1494:1501   */\n      0x00\n        /* \"#utility.yul\":1534:1576   */\n      0xffffffffffffffffffffffffffffffffffffffff\n        /* \"#utility.yul\":1527:1532   */\n      dup3\n        /* \"#utility.yul\":1523:1577   */\n      and\n        /* \"#utility.yul\":1512:1577   */\n      swap1\n      pop\n        /* \"#utility.yul\":1457:1583   */\n      swap2\n      swap1\n      pop\n      jump\t// out\n        /* \"#utility.yul\":1589:1649   */\n    tag_91:\n        /* \"#utility.yul\":1617:1620   */\n      0x00\n        /* \"#utility.yul\":1638:1643   */\n      dup2\n        /* \"#utility.yul\":1631:1643   */\n      swap1\n      pop\n        /* \"#utility.yul\":1589:1649   */\n      swap2\n      swap1\n      pop\n      jump\t// out\n        /* \"#utility.yul\":1655:1797   */\n    tag_92:\n        /* \"#utility.yul\":1705:1714   */\n      0x00\n        /* \"#utility.yul\":1738:1791   */\n      tag_142\n        /* \"#utility.yul\":1756:1790   */\n      tag_143\n        /* \"#utility.yul\":1765:1789   */\n      tag_144\n        /* \"#utility.yul\":1783:1788   */\n      dup5\n        /* \"#utility.yul\":1765:1789   */\n      tag_90\n      jump\t// in\n    tag_144:\n        /* \"#utility.yul\":1756:1790   */\n      tag_91\n      jump\t// in\n    tag_143:\n        /* \"#utility.yul\":1738:1791   */\n      tag_90\n      jump\t// in\n    tag_142:\n        /* \"#utility.yul\":1725:1791   */\n      swap1\n      pop\n        /* \"#utility.yul\":1655:1797   */\n      swap2\n      swap1\n      pop\n      jump\t// out\n        /* \"#utility.yul\":1803:1929   */\n    tag_93:\n        /* \"#utility.yul\":1853:1862   */\n      0x00\n        /* \"#utility.yul\":1886:1923   */\n      tag_146\n        /* \"#utility.yul\":1917:1922   */\n      dup3\n        /* \"#utility.yul\":1886:1923   */\n      tag_92\n      jump\t// in\n    tag_146:\n        /* \"#utility.yul\":1873:1923   */\n      swap1\n      pop\n        /* \"#utility.yul\":1803:1929   */\n      swap2\n      swap1\n      pop\n      jump\t// out\n        /* \"#utility.yul\":1935:2074   */\n    tag_94:\n        /* \"#utility.yul\":1998:2007   */\n      0x00\n        /* \"#utility.yul\":2031:2068   */\n      tag_148\n        /* \"#utility.yul\":2062:2067   */\n      dup3\n        /* \"#utility.yul\":2031:2068   */\n      tag_93\n      jump\t// in\n    tag_148:\n        /* \"#utility.yul\":2018:2068   */\n      swap1\n      pop\n        /* \"#utility.yul\":1935:2074   */\n      swap2\n      swap1\n      pop\n      jump\t// out\n        /* \"#utility.yul\":2080:2237   */\n    tag_95:\n        /* \"#utility.yul\":2180:2230   */\n      tag_150\n        /* \"#utility.yul\":2224:2229   */\n      dup2\n        /* \"#utility.yul\":2180:2230   */\n      tag_94\n      jump\t// in\n    tag_150:\n        /* \"#utility.yul\":2175:2178   */\n      dup3\n        /* \"#utility.yul\":2168:2231   */\n      mstore\n        /* \"#utility.yul\":2080:2237   */\n      pop\n      pop\n      jump\t// out\n        /* \"#utility.yul\":2243:2491   */\n    tag_34:\n        /* \"#utility.yul\":2349:2353   */\n      0x00\n        /* \"#utility.yul\":2387:2389   */\n      0x20\n        /* \"#utility.yul\":2376:2385   */\n      dup3\n        /* \"#utility.yul\":2372:2390   */\n      add\n        /* \"#utility.yul\":2364:2390   */\n      swap1\n      pop\n        /* \"#utility.yul\":2400:2484   */\n      tag_152\n        /* \"#utility.yul\":2481:2482   */\n      0x00\n        /* \"#utility.yul\":2470:2479   */\n      dup4\n        /* \"#utility.yul\":2466:2483   */\n      add\n        /* \"#utility.yul\":2457:2463   */\n      dup5\n        /* \"#utility.yul\":2400:2484   */\n      tag_95\n      jump\t// in\n    tag_152:\n        /* \"#utility.yul\":2243:2491   */\n      swap3\n      swap2\n      pop\n      pop\n      jump\t// out\n        /* \"#utility.yul\":2497:2593   */\n    tag_96:\n        /* \"#utility.yul\":2534:2541   */\n      0x00\n        /* \"#utility.yul\":2563:2587   */\n      tag_154\n        /* \"#utility.yul\":2581:2586   */\n      dup3\n        /* \"#utility.yul\":2563:2587   */\n      tag_90\n      jump\t// in\n    tag_154:\n        /* \"#utility.yul\":2552:2587   */\n      swap1\n      pop\n        /* \"#utility.yul\":2497:2593   */\n      swap2\n      swap1\n      pop\n      jump\t// out\n        /* \"#utility.yul\":2599:2717   */\n    tag_97:\n        /* \"#utility.yul\":2686:2710   */\n      tag_156\n        /* \"#utility.yul\":2704:2709   */\n      dup2\n        /* \"#utility.yul\":2686:2710   */\n      tag_96\n      jump\t// in\n    tag_156:\n        /* \"#utility.yul\":2681:2684   */\n      dup3\n        /* \"#utility.yul\":2674:2711   */\n      mstore\n        /* \"#utility.yul\":2599:2717   */\n      pop\n      pop\n      jump\t// out\n        /* \"#utility.yul\":2723:2945   */\n    tag_38:\n        /* \"#utility.yul\":2816:2820   */\n      0x00\n        /* \"#utility.yul\":2854:2856   */\n      0x20\n        /* \"#utility.yul\":2843:2852   */\n      dup3\n        /* \"#utility.yul\":2839:2857   */\n      add\n        /* \"#utility.yul\":2831:2857   */\n      swap1\n      pop\n        /* \"#utility.yul\":2867:2938   */\n      tag_158\n        /* \"#utility.yul\":2935:2936   */\n      0x00\n        /* \"#utility.yul\":2924:2933   */\n      dup4\n        /* \"#utility.yul\":2920:2937   */\n      add\n        /* \"#utility.yul\":2911:2917   */\n      dup5\n        /* \"#utility.yul\":2867:2938   */\n      tag_97\n      jump\t// in\n    tag_158:\n        /* \"#utility.yul\":2723:2945   */\n      swap3\n      swap2\n      pop\n      pop\n      jump\t// out\n        /* \"#utility.yul\":2951:3120   */\n    tag_98:\n        /* \"#utility.yul\":3035:3046   */\n      0x00\n        /* \"#utility.yul\":3069:3075   */\n      dup3\n        /* \"#utility.yul\":3064:3067   */\n      dup3\n        /* \"#utility.yul\":3057:3076   */\n      mstore\n        /* \"#utility.yul\":3109:3113   */\n      0x20\n        /* \"#utility.yul\":3104:3107   */\n      dup3\n        /* \"#utility.yul\":3100:3114   */\n      add\n        /* \"#utility.yul\":3085:3114   */\n      swap1\n      pop\n        /* \"#utility.yul\":2951:3120   */\n      swap3\n      swap2\n      pop\n      pop\n      jump\t// out\n        /* \"#utility.yul\":3126:3286   */\n    tag_99:\n        /* \"#utility.yul\":3266:3278   */\n      0x4f6e6c79206f776e657200000000000000000000000000000000000000000000\n        /* \"#utility.yul\":3262:3263   */\n      0x00\n        /* \"#utility.yul\":3254:3260   */\n      dup3\n        /* \"#utility.yul\":3250:3264   */\n      add\n        /* \"#utility.yul\":3243:3279   */\n      mstore\n        /* \"#utility.yul\":3126:3286   */\n      pop\n      jump\t// out\n        /* \"#utility.yul\":3292:3658   */\n    tag_100:\n        /* \"#utility.yul\":3434:3437   */\n      0x00\n        /* \"#utility.yul\":3455:3522   */\n      tag_162\n        /* \"#utility.yul\":3519:3521   */\n      0x0a\n        /* \"#utility.yul\":3514:3517   */\n      dup4\n        /* \"#utility.yul\":3455:3522   */\n      tag_98\n      jump\t// in\n    tag_162:\n        /* \"#utility.yul\":3448:3522   */\n      swap2\n      pop\n        /* \"#utility.yul\":3531:3624   */\n      tag_163\n        /* \"#utility.yul\":3620:3623   */\n      dup3\n        /* \"#utility.yul\":3531:3624   */\n      tag_99\n      jump\t// in\n    tag_163:\n        /* \"#utility.yul\":3649:3651   */\n      0x20\n        /* \"#utility.yul\":3644:3647   */\n      dup3\n        /* \"#utility.yul\":3640:3652   */\n      add\n        /* \"#utility.yul\":3633:3652   */\n      swap1\n      pop\n        /* \"#utility.yul\":3292:3658   */\n      swap2\n      swap1\n      pop\n      jump\t// out\n        /* \"#utility.yul\":3664:4083   */\n    tag_42:\n        /* \"#utility.yul\":3830:3834   */\n      0x00\n        /* \"#utility.yul\":3868:3870   */\n      0x20\n        /* \"#utility.yul\":3857:3866   */\n      dup3\n        /* \"#utility.yul\":3853:3871   */\n      add\n        /* \"#utility.yul\":3845:3871   */\n      swap1\n      pop\n        /* \"#utility.yul\":3917:3926   */\n      dup2\n        /* \"#utility.yul\":3911:3915   */\n      dup2\n        /* \"#utility.yul\":3907:3927   */\n      sub\n        /* \"#utility.yul\":3903:3904   */\n      0x00\n        /* \"#utility.yul\":3892:3901   */\n      dup4\n        /* \"#utility.yul\":3888:3905   */\n      add\n        /* \"#utility.yul\":3881:3928   */\n      mstore\n        /* \"#utility.yul\":3945:4076   */\n      tag_165\n        /* \"#utility.yul\":4071:4075   */\n      dup2\n        /* \"#utility.yul\":3945:4076   */\n      tag_100\n      jump\t// in\n    tag_165:\n        /* \"#utility.yul\":3937:4076   */\n      swap1\n      pop\n        /* \"#utility.yul\":3664:4083   */\n      swap2\n      swap1\n      pop\n      jump\t// out\n        /* \"#utility.yul\":4089:4421   */\n    tag_44:\n        /* \"#utility.yul\":4210:4214   */\n      0x00\n        /* \"#utility.yul\":4248:4250   */\n      0x40\n        /* \"#utility.yul\":4237:4246   */\n      dup3\n        /* \"#utility.yul\":4233:4251   */\n      add\n        /* \"#utility.yul\":4225:4251   */\n      swap1\n      pop\n        /* \"#utility.yul\":4261:4332   */\n      tag_167\n        /* \"#utility.yul\":4329:4330   */\n      0x00\n        /* \"#utility.yul\":4318:4327   */\n      dup4\n        /* \"#utility.yul\":4314:4331   */\n      add\n        /* \"#utility.yul\":4305:4311   */\n      dup6\n        /* \"#utility.yul\":4261:4332   */\n      tag_97\n      jump\t// in\n    tag_167:\n        /* \"#utility.yul\":4342:4414   */\n      tag_168\n        /* \"#utility.yul\":4410:4412   */\n      0x20\n        /* \"#utility.yul\":4399:4408   */\n      dup4\n        /* \"#utility.yul\":4395:4413   */\n      add\n        /* \"#utility.yul\":4386:4392   */\n      dup5\n        /* \"#utility.yul\":4342:4414   */\n      tag_83\n      jump\t// in\n    tag_168:\n        /* \"#utility.yul\":4089:4421   */\n      swap4\n      swap3\n      pop\n      pop\n      pop\n      jump\t// out\n        /* \"#utility.yul\":4427:4517   */\n    tag_101:\n        /* \"#utility.yul\":4461:4468   */\n      0x00\n        /* \"#utility.yul\":4504:4509   */\n      dup2\n        /* \"#utility.yul\":4497:4510   */\n      iszero\n        /* \"#utility.yul\":4490:4511   */\n      iszero\n        /* \"#utility.yul\":4479:4511   */\n      swap1\n      pop\n        /* \"#utility.yul\":4427:4517   */\n      swap2\n      swap1\n      pop\n      jump\t// out\n        /* \"#utility.yul\":4523:4639   */\n    tag_102:\n        /* \"#utility.yul\":4593:4614   */\n      tag_171\n        /* \"#utility.yul\":4608:4613   */\n      dup2\n        /* \"#utility.yul\":4593:4614   */\n      tag_101\n      jump\t// in\n    tag_171:\n        /* \"#utility.yul\":4586:4591   */\n      dup2\n        /* \"#utility.yul\":4583:4615   */\n      eq\n        /* \"#utility.yul\":4573:4633   */\n      tag_172\n      jumpi\n        /* \"#utility.yul\":4629:4630   */\n      0x00\n        /* \"#utility.yul\":4626:4627   */\n      dup1\n        /* \"#utility.yul\":4619:4631   */\n      revert\n        /* \"#utility.yul\":4573:4633   */\n    tag_172:\n        /* \"#utility.yul\":4523:4639   */\n      pop\n      jump\t// out\n        /* \"#utility.yul\":4645:4782   */\n    tag_103:\n        /* \"#utility.yul\":4699:4704   */\n      0x00\n        /* \"#utility.yul\":4730:4736   */\n      dup2\n        /* \"#utility.yul\":4724:4737   */\n      mload\n        /* \"#utility.yul\":4715:4737   */\n      swap1\n      pop\n        /* \"#utility.yul\":4746:4776   */\n      tag_174\n        /* \"#utility.yul\":4770:4775   */\n      dup2\n        /* \"#utility.yul\":4746:4776   */\n      tag_102\n      jump\t// in\n    tag_174:\n        /* \"#utility.yul\":4645:4782   */\n      swap3\n      swap2\n      pop\n      pop\n      jump\t// out\n        /* \"#utility.yul\":4788:5133   */\n    tag_48:\n        /* \"#utility.yul\":4855:4861   */\n      0x00\n        /* \"#utility.yul\":4904:4906   */\n      0x20\n        /* \"#utility.yul\":4892:4901   */\n      dup3\n        /* \"#utility.yul\":4883:4890   */\n      dup5\n        /* \"#utility.yul\":4879:4902   */\n      sub\n        /* \"#utility.yul\":4875:4907   */\n      slt\n        /* \"#utility.yul\":4872:4991   */\n      iszero\n      tag_176\n      jumpi\n        /* \"#utility.yul\":4910:4989   */\n      tag_177\n      tag_85\n      jump\t// in\n    tag_177:\n        /* \"#utility.yul\":4872:4991   */\n    tag_176:\n        /* \"#utility.yul\":5030:5031   */\n      0x00\n        /* \"#utility.yul\":5055:5116   */\n      tag_178\n        /* \"#utility.yul\":5108:5115   */\n      dup5\n        /* \"#utility.yul\":5099:5105   */\n      dup3\n        /* \"#utility.yul\":5088:5097   */\n      dup6\n        /* \"#utility.yul\":5084:5106   */\n      add\n        /* \"#utility.yul\":5055:5116   */\n      tag_103\n      jump\t// in\n    tag_178:\n        /* \"#utility.yul\":5045:5116   */\n      swap2\n      pop\n        /* \"#utility.yul\":5001:5126   */\n      pop\n        /* \"#utility.yul\":4788:5133   */\n      swap3\n      swap2\n      pop\n      pop\n      jump\t// out\n        /* \"#utility.yul\":5139:5307   */\n    tag_104:\n        /* \"#utility.yul\":5279:5299   */\n      0x4775657373206d75737420626520312d31300000000000000000000000000000\n        /* \"#utility.yul\":5275:5276   */\n      0x00\n        /* \"#utility.yul\":5267:5273   */\n      dup3\n        /* \"#utility.yul\":5263:5277   */\n      add\n        /* \"#utility.yul\":5256:5300   */\n      mstore\n        /* \"#utility.yul\":5139:5307   */\n      pop\n      jump\t// out\n        /* \"#utility.yul\":5313:5679   */\n    tag_105:\n        /* \"#utility.yul\":5455:5458   */\n      0x00\n        /* \"#utility.yul\":5476:5543   */\n      tag_181\n        /* \"#utility.yul\":5540:5542   */\n      0x12\n        /* \"#utility.yul\":5535:5538   */\n      dup4\n        /* \"#utility.yul\":5476:5543   */\n      tag_98\n      jump\t// in\n    tag_181:\n        /* \"#utility.yul\":5469:5543   */\n      swap2\n      pop\n        /* \"#utility.yul\":5552:5645   */\n      tag_182\n        /* \"#utility.yul\":5641:5644   */\n      dup3\n        /* \"#utility.yul\":5552:5645   */\n      tag_104\n      jump\t// in\n    tag_182:\n        /* \"#utility.yul\":5670:5672   */\n      0x20\n        /* \"#utility.yul\":5665:5668   */\n      dup3\n        /* \"#utility.yul\":5661:5673   */\n      add\n        /* \"#utility.yul\":5654:5673   */\n      swap1\n      pop\n        /* \"#utility.yul\":5313:5679   */\n      swap2\n      swap1\n      pop\n      jump\t// out\n        /* \"#utility.yul\":5685:6104   */\n    tag_53:\n        /* \"#utility.yul\":5851:5855   */\n      0x00\n        /* \"#utility.yul\":5889:5891   */\n      0x20\n        /* \"#utility.yul\":5878:5887   */\n      dup3\n        /* \"#utility.yul\":5874:5892   */\n      add\n        /* \"#utility.yul\":5866:5892   */\n      swap1\n      pop\n        /* \"#utility.yul\":5938:5947   */\n      dup2\n        /* \"#utility.yul\":5932:5936   */\n      dup2\n        /* \"#utility.yul\":5928:5948   */\n      sub\n        /* \"#utility.yul\":5924:5925   */\n      0x00\n        /* \"#utility.yul\":5913:5922   */\n      dup4\n        /* \"#utility.yul\":5909:5926   */\n      add\n        /* \"#utility.yul\":5902:5949   */\n      mstore\n        /* \"#utility.yul\":5966:6097   */\n      tag_184\n        /* \"#utility.yul\":6092:6096   */\n      dup2\n        /* \"#utility.yul\":5966:6097   */\n      tag_105\n      jump\t// in\n    tag_184:\n        /* \"#utility.yul\":5958:6097   */\n      swap1\n      pop\n        /* \"#utility.yul\":5685:6104   */\n      swap2\n      swap1\n      pop\n      jump\t// out\n        /* \"#utility.yul\":6110:6552   */\n    tag_55:\n        /* \"#utility.yul\":6259:6263   */\n      0x00\n        /* \"#utility.yul\":6297:6299   */\n      0x60\n        /* \"#utility.yul\":6286:6295   */\n      dup3\n        /* \"#utility.yul\":6282:6300   */\n      add\n        /* \"#utility.yul\":6274:6300   */\n      swap1\n      pop\n        /* \"#utility.yul\":6310:6381   */\n      tag_186\n        /* \"#utility.yul\":6378:6379   */\n      0x00\n        /* \"#utility.yul\":6367:6376   */\n      dup4\n        /* \"#utility.yul\":6363:6380   */\n      add\n        /* \"#utility.yul\":6354:6360   */\n      dup7\n        /* \"#utility.yul\":6310:6381   */\n      tag_97\n      jump\t// in\n    tag_186:\n        /* \"#utility.yul\":6391:6463   */\n      tag_187\n        /* \"#utility.yul\":6459:6461   */\n      0x20\n        /* \"#utility.yul\":6448:6457   */\n      dup4\n        /* \"#utility.yul\":6444:6462   */\n      add\n        /* \"#utility.yul\":6435:6441   */\n      dup6\n        /* \"#utility.yul\":6391:6463   */\n      tag_97\n      jump\t// in\n    tag_187:\n        /* \"#utility.yul\":6473:6545   */\n      tag_188\n        /* \"#utility.yul\":6541:6543   */\n      0x40\n        /* \"#utility.yul\":6530:6539   */\n      dup4\n        /* \"#utility.yul\":6526:6544   */\n      add\n        /* \"#utility.yul\":6517:6523   */\n      dup5\n        /* \"#utility.yul\":6473:6545   */\n      tag_83\n      jump\t// in\n    tag_188:\n        /* \"#utility.yul\":6110:6552   */\n      swap5\n      swap4\n      pop\n      pop\n      pop\n      pop\n      jump\t// out\n        /* \"#utility.yul\":6558:6727   */\n    tag_106:\n        /* \"#utility.yul\":6698:6719   */\n      0x535454207472616e73666572206661696c656400000000000000000000000000\n        /* \"#utility.yul\":6694:6695   */\n      0x00\n        /* \"#utility.yul\":6686:6692   */\n      dup3\n        /* \"#utility.yul\":6682:6696   */\n      add\n        /* \"#utility.yul\":6675:6720   */\n      mstore\n        /* \"#utility.yul\":6558:6727   */\n      pop\n      jump\t// out\n        /* \"#utility.yul\":6733:7099   */\n    tag_107:\n        /* \"#utility.yul\":6875:6878   */\n      0x00\n        /* \"#utility.yul\":6896:6963   */\n      tag_191\n        /* \"#utility.yul\":6960:6962   */\n      0x13\n        /* \"#utility.yul\":6955:6958   */\n      dup4\n        /* \"#utility.yul\":6896:6963   */\n      tag_98\n      jump\t// in\n    tag_191:\n        /* \"#utility.yul\":6889:6963   */\n      swap2\n      pop\n        /* \"#utility.yul\":6972:7065   */\n      tag_192\n        /* \"#utility.yul\":7061:7064   */\n      dup3\n        /* \"#utility.yul\":6972:7065   */\n      tag_106\n      jump\t// in\n    tag_192:\n        /* \"#utility.yul\":7090:7092   */\n      0x20\n        /* \"#utility.yul\":7085:7088   */\n      dup3\n        /* \"#utility.yul\":7081:7093   */\n      add\n        /* \"#utility.yul\":7074:7093   */\n      swap1\n      pop\n        /* \"#utility.yul\":6733:7099   */\n      swap2\n      swap1\n      pop\n      jump\t// out\n        /* \"#utility.yul\":7105:7524   */\n    tag_61:\n        /* \"#utility.yul\":7271:7275   */\n      0x00\n        /* \"#utility.yul\":7309:7311   */\n      0x20\n        /* \"#utility.yul\":7298:7307   */\n      dup3\n        /* \"#utility.yul\":7294:7312   */\n      add\n        /* \"#utility.yul\":7286:7312   */\n      swap1\n      pop\n        /* \"#utility.yul\":7358:7367   */\n      dup2\n        /* \"#utility.yul\":7352:7356   */\n      dup2\n        /* \"#utility.yul\":7348:7368   */\n      sub\n        /* \"#utility.yul\":7344:7345   */\n      0x00\n        /* \"#utility.yul\":7333:7342   */\n      dup4\n        /* \"#utility.yul\":7329:7346   */\n      add\n        /* \"#utility.yul\":7322:7369   */\n      mstore\n        /* \"#utility.yul\":7386:7517   */\n      tag_194\n        /* \"#utility.yul\":7512:7516   */\n      dup2\n        /* \"#utility.yul\":7386:7517   */\n      tag_107\n      jump\t// in\n    tag_194:\n        /* \"#utility.yul\":7378:7517   */\n      swap1\n      pop\n        /* \"#utility.yul\":7105:7524   */\n      swap2\n      swap1\n      pop\n      jump\t// out\n        /* \"#utility.yul\":7530:7710   */\n    tag_108:\n        /* \"#utility.yul\":7578:7655   */\n      0x4e487b7100000000000000000000000000000000000000000000000000000000\n        /* \"#utility.yul\":7575:7576   */\n      0x00\n        /* \"#utility.yul\":7568:7656   */\n      mstore\n        /* \"#utility.yul\":7675:7679   */\n      0x11\n        /* \"#utility.yul\":7672:7673   */\n      0x04\n        /* \"#utility.yul\":7665:7680   */\n      mstore\n        /* \"#utility.yul\":7699:7703   */\n      0x24\n        /* \"#utility.yul\":7696:7697   */\n      0x00\n        /* \"#utility.yul\":7689:7704   */\n      revert\n        /* \"#utility.yul\":7716:7907   */\n    tag_63:\n        /* \"#utility.yul\":7756:7759   */\n      0x00\n        /* \"#utility.yul\":7775:7795   */\n      tag_197\n        /* \"#utility.yul\":7793:7794   */\n      dup3\n        /* \"#utility.yul\":7775:7795   */\n      tag_82\n      jump\t// in\n    tag_197:\n        /* \"#utility.yul\":7770:7795   */\n      swap2\n      pop\n        /* \"#utility.yul\":7809:7829   */\n      tag_198\n        /* \"#utility.yul\":7827:7828   */\n      dup4\n        /* \"#utility.yul\":7809:7829   */\n      tag_82\n      jump\t// in\n    tag_198:\n        /* \"#utility.yul\":7804:7829   */\n      swap3\n      pop\n        /* \"#utility.yul\":7852:7853   */\n      dup3\n        /* \"#utility.yul\":7849:7850   */\n      dup3\n        /* \"#utility.yul\":7845:7854   */\n      add\n        /* \"#utility.yul\":7838:7854   */\n      swap1\n      pop\n        /* \"#utility.yul\":7873:7876   */\n      dup1\n        /* \"#utility.yul\":7870:7871   */\n      dup3\n        /* \"#utility.yul\":7867:7877   */\n      gt\n        /* \"#utility.yul\":7864:7900   */\n      iszero\n      tag_199\n      jumpi\n        /* \"#utility.yul\":7880:7898   */\n      tag_200\n      tag_108\n      jump\t// in\n    tag_200:\n        /* \"#utility.yul\":7864:7900   */\n    tag_199:\n        /* \"#utility.yul\":7716:7907   */\n      swap3\n      swap2\n      pop\n      pop\n      jump\t// out\n        /* \"#utility.yul\":7913:7992   */\n    tag_109:\n        /* \"#utility.yul\":7952:7959   */\n      0x00\n        /* \"#utility.yul\":7981:7986   */\n      dup2\n        /* \"#utility.yul\":7970:7986   */\n      swap1\n      pop\n        /* \"#utility.yul\":7913:7992   */\n      swap2\n      swap1\n      pop\n      jump\t// out\n        /* \"#utility.yul\":7998:8155   */\n    tag_110:\n        /* \"#utility.yul\":8103:8148   */\n      tag_203\n        /* \"#utility.yul\":8123:8147   */\n      tag_204\n        /* \"#utility.yul\":8141:8146   */\n      dup3\n        /* \"#utility.yul\":8123:8147   */\n      tag_82\n      jump\t// in\n    tag_204:\n        /* \"#utility.yul\":8103:8148   */\n      tag_109\n      jump\t// in\n    tag_203:\n        /* \"#utility.yul\":8098:8101   */\n      dup3\n        /* \"#utility.yul\":8091:8149   */\n      mstore\n        /* \"#utility.yul\":7998:8155   */\n      pop\n      pop\n      jump\t// out\n        /* \"#utility.yul\":8161:8255   */\n    tag_111:\n        /* \"#utility.yul\":8194:8202   */\n      0x00\n        /* \"#utility.yul\":8242:8247   */\n      dup2\n        /* \"#utility.yul\":8238:8240   */\n      0x60\n        /* \"#utility.yul\":8234:8248   */\n      shl\n        /* \"#utility.yul\":8213:8248   */\n      swap1\n      pop\n        /* \"#utility.yul\":8161:8255   */\n      swap2\n      swap1\n      pop\n      jump\t// out\n        /* \"#utility.yul\":8261:8355   */\n    tag_112:\n        /* \"#utility.yul\":8300:8307   */\n      0x00\n        /* \"#utility.yul\":8329:8349   */\n      tag_207\n        /* \"#utility.yul\":8343:8348   */\n      dup3\n        /* \"#utility.yul\":8329:8349   */\n      tag_111\n      jump\t// in\n    tag_207:\n        /* \"#utility.yul\":8318:8349   */\n      swap1\n      pop\n        /* \"#utility.yul\":8261:8355   */\n      swap2\n      swap1\n      pop\n      jump\t// out\n        /* \"#utility.yul\":8361:8461   */\n    tag_113:\n        /* \"#utility.yul\":8400:8407   */\n      0x00\n        /* \"#utility.yul\":8429:8455   */\n      tag_209\n        /* \"#utility.yul\":8449:8454   */\n      dup3\n        /* \"#utility.yul\":8429:8455   */\n      tag_112\n      jump\t// in\n    tag_209:\n        /* \"#utility.yul\":8418:8455   */\n      swap1\n      pop\n        /* \"#utility.yul\":8361:8461   */\n      swap2\n      swap1\n      pop\n      jump\t// out\n        /* \"#utility.yul\":8467:8624   */\n    tag_114:\n        /* \"#utility.yul\":8572:8617   */\n      tag_211\n        /* \"#utility.yul\":8592:8616   */\n      tag_212\n        /* \"#utility.yul\":8610:8615   */\n      dup3\n        /* \"#utility.yul\":8592:8616   */\n      tag_96\n      jump\t// in\n    tag_212:\n        /* \"#utility.yul\":8572:8617   */\n      tag_113\n      jump\t// in\n    tag_211:\n        /* \"#utility.yul\":8567:8570   */\n      dup3\n        /* \"#utility.yul\":8560:8618   */\n      mstore\n        /* \"#utility.yul\":8467:8624   */\n      pop\n      pop\n      jump\t// out\n        /* \"#utility.yul\":8630:9168   */\n    tag_65:\n        /* \"#utility.yul\":8798:8801   */\n      0x00\n        /* \"#utility.yul\":8813:8888   */\n      tag_214\n        /* \"#utility.yul\":8884:8887   */\n      dup3\n        /* \"#utility.yul\":8875:8881   */\n      dup7\n        /* \"#utility.yul\":8813:8888   */\n      tag_110\n      jump\t// in\n    tag_214:\n        /* \"#utility.yul\":8913:8915   */\n      0x20\n        /* \"#utility.yul\":8908:8911   */\n      dup3\n        /* \"#utility.yul\":8904:8916   */\n      add\n        /* \"#utility.yul\":8897:8916   */\n      swap2\n      pop\n        /* \"#utility.yul\":8926:9001   */\n      tag_215\n        /* \"#utility.yul\":8997:9000   */\n      dup3\n        /* \"#utility.yul\":8988:8994   */\n      dup6\n        /* \"#utility.yul\":8926:9001   */\n      tag_114\n      jump\t// in\n    tag_215:\n        /* \"#utility.yul\":9026:9028   */\n      0x14\n        /* \"#utility.yul\":9021:9024   */\n      dup3\n        /* \"#utility.yul\":9017:9029   */\n      add\n        /* \"#utility.yul\":9010:9029   */\n      swap2\n      pop\n        /* \"#utility.yul\":9039:9114   */\n      tag_216\n        /* \"#utility.yul\":9110:9113   */\n      dup3\n        /* \"#utility.yul\":9101:9107   */\n      dup5\n        /* \"#utility.yul\":9039:9114   */\n      tag_110\n      jump\t// in\n    tag_216:\n        /* \"#utility.yul\":9139:9141   */\n      0x20\n        /* \"#utility.yul\":9134:9137   */\n      dup3\n        /* \"#utility.yul\":9130:9142   */\n      add\n        /* \"#utility.yul\":9123:9142   */\n      swap2\n      pop\n        /* \"#utility.yul\":9159:9162   */\n      dup2\n        /* \"#utility.yul\":9152:9162   */\n      swap1\n      pop\n        /* \"#utility.yul\":8630:9168   */\n      swap5\n      swap4\n      pop\n      pop\n      pop\n      pop\n      jump\t// out\n        /* \"#utility.yul\":9174:9354   */\n    tag_115:\n        /* \"#utility.yul\":9222:9299   */\n      0x4e487b7100000000000000000000000000000000000000000000000000000000\n        /* \"#utility.yul\":9219:9220   */\n      0x00\n        /* \"#utility.yul\":9212:9300   */\n      mstore\n        /* \"#utility.yul\":9319:9323   */\n      0x12\n        /* \"#utility.yul\":9316:9317   */\n      0x04\n        /* \"#utility.yul\":9309:9324   */\n      mstore\n        /* \"#utility.yul\":9343:9347   */\n      0x24\n        /* \"#utility.yul\":9340:9341   */\n      0x00\n        /* \"#utility.yul\":9333:9348   */\n      revert\n        /* \"#utility.yul\":9360:9536   */\n    tag_67:\n        /* \"#utility.yul\":9392:9393   */\n      0x00\n        /* \"#utility.yul\":9409:9429   */\n      tag_219\n        /* \"#utility.yul\":9427:9428   */\n      dup3\n        /* \"#utility.yul\":9409:9429   */\n      tag_82\n      jump\t// in\n    tag_219:\n        /* \"#utility.yul\":9404:9429   */\n      swap2\n      pop\n        /* \"#utility.yul\":9443:9463   */\n      tag_220\n        /* \"#utility.yul\":9461:9462   */\n      dup4\n        /* \"#utility.yul\":9443:9463   */\n      tag_82\n      jump\t// in\n    tag_220:\n        /* \"#utility.yul\":9438:9463   */\n      swap3\n      pop\n        /* \"#utility.yul\":9482:9483   */\n      dup3\n        /* \"#utility.yul\":9472:9507   */\n      tag_221\n      jumpi\n        /* \"#utility.yul\":9487:9505   */\n      tag_222\n      tag_115\n      jump\t// in\n    tag_222:\n        /* \"#utility.yul\":9472:9507   */\n    tag_221:\n        /* \"#utility.yul\":9528:9529   */\n      dup3\n        /* \"#utility.yul\":9525:9526   */\n      dup3\n        /* \"#utility.yul\":9521:9530   */\n      mod\n        /* \"#utility.yul\":9516:9530   */\n      swap1\n      pop\n        /* \"#utility.yul\":9360:9536   */\n      swap3\n      swap2\n      pop\n      pop\n      jump\t// out\n        /* \"#utility.yul\":9542:9709   */\n    tag_116:\n        /* \"#utility.yul\":9682:9701   */\n      0x4e6f7420656e6f75676820696e20706f74000000000000000000000000000000\n        /* \"#utility.yul\":9678:9679   */\n      0x00\n        /* \"#utility.yul\":9670:9676   */\n      dup3\n        /* \"#utility.yul\":9666:9680   */\n      add\n        /* \"#utility.yul\":9659:9702   */\n      mstore\n        /* \"#utility.yul\":9542:9709   */\n      pop\n      jump\t// out\n        /* \"#utility.yul\":9715:10081   */\n    tag_117:\n        /* \"#utility.yul\":9857:9860   */\n      0x00\n        /* \"#utility.yul\":9878:9945   */\n      tag_225\n        /* \"#utility.yul\":9942:9944   */\n      0x11\n        /* \"#utility.yul\":9937:9940   */\n      dup4\n        /* \"#utility.yul\":9878:9945   */\n      tag_98\n      jump\t// in\n    tag_225:\n        /* \"#utility.yul\":9871:9945   */\n      swap2\n      pop\n        /* \"#utility.yul\":9954:10047   */\n      tag_226\n        /* \"#utility.yul\":10043:10046   */\n      dup3\n        /* \"#utility.yul\":9954:10047   */\n      tag_116\n      jump\t// in\n    tag_226:\n        /* \"#utility.yul\":10072:10074   */\n      0x20\n        /* \"#utility.yul\":10067:10070   */\n      dup3\n        /* \"#utility.yul\":10063:10075   */\n      add\n        /* \"#utility.yul\":10056:10075   */\n      swap1\n      pop\n        /* \"#utility.yul\":9715:10081   */\n      swap2\n      swap1\n      pop\n      jump\t// out\n        /* \"#utility.yul\":10087:10506   */\n    tag_72:\n        /* \"#utility.yul\":10253:10257   */\n      0x00\n        /* \"#utility.yul\":10291:10293   */\n      0x20\n        /* \"#utility.yul\":10280:10289   */\n      dup3\n        /* \"#utility.yul\":10276:10294   */\n      add\n        /* \"#utility.yul\":10268:10294   */\n      swap1\n      pop\n        /* \"#utility.yul\":10340:10349   */\n      dup2\n        /* \"#utility.yul\":10334:10338   */\n      dup2\n        /* \"#utility.yul\":10330:10350   */\n      sub\n        /* \"#utility.yul\":10326:10327   */\n      0x00\n        /* \"#utility.yul\":10315:10324   */\n      dup4\n        /* \"#utility.yul\":10311:10328   */\n      add\n        /* \"#utility.yul\":10304:10351   */\n      mstore\n        /* \"#utility.yul\":10368:10499   */\n      tag_228\n        /* \"#utility.yul\":10494:10498   */\n      dup2\n        /* \"#utility.yul\":10368:10499   */\n      tag_117\n      jump\t// in\n    tag_228:\n        /* \"#utility.yul\":10360:10499   */\n      swap1\n      pop\n        /* \"#utility.yul\":10087:10506   */\n      swap2\n      swap1\n      pop\n      jump\t// out\n        /* \"#utility.yul\":10512:10706   */\n    tag_78:\n        /* \"#utility.yul\":10552:10556   */\n      0x00\n        /* \"#utility.yul\":10572:10592   */\n      tag_230\n        /* \"#utility.yul\":10590:10591   */\n      dup3\n        /* \"#utility.yul\":10572:10592   */\n      tag_82\n      jump\t// in\n    tag_230:\n        /* \"#utility.yul\":10567:10592   */\n      swap2\n      pop\n        /* \"#utility.yul\":10606:10626   */\n      tag_231\n        /* \"#utility.yul\":10624:10625   */\n      dup4\n        /* \"#utility.yul\":10606:10626   */\n      tag_82\n      jump\t// in\n    tag_231:\n        /* \"#utility.yul\":10601:10626   */\n      swap3\n      pop\n        /* \"#utility.yul\":10650:10651   */\n      dup3\n        /* \"#utility.yul\":10647:10648   */\n      dup3\n        /* \"#utility.yul\":10643:10652   */\n      sub\n        /* \"#utility.yul\":10635:10652   */\n      swap1\n      pop\n        /* \"#utility.yul\":10674:10675   */\n      dup2\n        /* \"#utility.yul\":10668:10672   */\n      dup2\n        /* \"#utility.yul\":10665:10676   */\n      gt\n        /* \"#utility.yul\":10662:10699   */\n      iszero\n      tag_232\n      jumpi\n        /* \"#utility.yul\":10679:10697   */\n      tag_233\n      tag_108\n      jump\t// in\n    tag_233:\n        /* \"#utility.yul\":10662:10699   */\n    tag_232:\n        /* \"#utility.yul\":10512:10706   */\n      swap3\n      swap2\n      pop\n      pop\n      jump\t// out\n        /* \"#utility.yul\":10712:10824   */\n    tag_118:\n        /* \"#utility.yul\":10795:10817   */\n      tag_235\n        /* \"#utility.yul\":10811:10816   */\n      dup2\n        /* \"#utility.yul\":10795:10817   */\n      tag_87\n      jump\t// in\n    tag_235:\n        /* \"#utility.yul\":10790:10793   */\n      dup3\n        /* \"#utility.yul\":10783:10818   */\n      mstore\n        /* \"#utility.yul\":10712:10824   */\n      pop\n      pop\n      jump\t// out\n        /* \"#utility.yul\":10830:10939   */\n    tag_119:\n        /* \"#utility.yul\":10911:10932   */\n      tag_237\n        /* \"#utility.yul\":10926:10931   */\n      dup2\n        /* \"#utility.yul\":10911:10932   */\n      tag_101\n      jump\t// in\n    tag_237:\n        /* \"#utility.yul\":10906:10909   */\n      dup3\n        /* \"#utility.yul\":10899:10933   */\n      mstore\n        /* \"#utility.yul\":10830:10939   */\n      pop\n      pop\n      jump\t// out\n        /* \"#utility.yul\":10945:11359   */\n    tag_80:\n        /* \"#utility.yul\":11080:11084   */\n      0x00\n        /* \"#utility.yul\":11118:11120   */\n      0x60\n        /* \"#utility.yul\":11107:11116   */\n      dup3\n        /* \"#utility.yul\":11103:11121   */\n      add\n        /* \"#utility.yul\":11095:11121   */\n      swap1\n      pop\n        /* \"#utility.yul\":11131:11198   */\n      tag_239\n        /* \"#utility.yul\":11195:11196   */\n      0x00\n        /* \"#utility.yul\":11184:11193   */\n      dup4\n        /* \"#utility.yul\":11180:11197   */\n      add\n        /* \"#utility.yul\":11171:11177   */\n      dup7\n        /* \"#utility.yul\":11131:11198   */\n      tag_118\n      jump\t// in\n    tag_239:\n        /* \"#utility.yul\":11208:11276   */\n      tag_240\n        /* \"#utility.yul\":11272:11274   */\n      0x20\n        /* \"#utility.yul\":11261:11270   */\n      dup4\n        /* \"#utility.yul\":11257:11275   */\n      add\n        /* \"#utility.yul\":11248:11254   */\n      dup6\n        /* \"#utility.yul\":11208:11276   */\n      tag_118\n      jump\t// in\n    tag_240:\n        /* \"#utility.yul\":11286:11352   */\n      tag_241\n        /* \"#utility.yul\":11348:11350   */\n      0x40\n        /* \"#utility.yul\":11337:11346   */\n      dup4\n        /* \"#utility.yul\":11333:11351   */\n      add\n        /* \"#utility.yul\":11324:11330   */\n      dup5\n        /* \"#utility.yul\":11286:11352   */\n      tag_119\n      jump\t// in\n    tag_241:\n        /* \"#utility.yul\":10945:11359   */\n      swap5\n      swap4\n      pop\n      pop\n      pop\n      pop\n      jump\t// out\n\n    auxdata: 0xa2646970667358221220959940eeaa88669d813a3a472fd495149a9c4928a5c6f5c0a41f67c4123370bc64736f6c634300081a0033\n}\n",
				"bytecode": {
					"linkReferences": {},
					"object": "6080604052671bc16d674ec80000600255674563918244f40000600355348015610027575f80fd5b50604051610d6c380380610d6c8339818101604052810190610049919061012c565b805f806101000a81548173ffffffffffffffffffffffffffffffffffffffff021916908373ffffffffffffffffffffffffffffffffffffffff1602179055503360015f6101000a81548173ffffffffffffffffffffffffffffffffffffffff021916908373ffffffffffffffffffffffffffffffffffffffff16021790555050610157565b5f80fd5b5f73ffffffffffffffffffffffffffffffffffffffff82169050919050565b5f6100fb826100d2565b9050919050565b61010b816100f1565b8114610115575f80fd5b50565b5f8151905061012681610102565b92915050565b5f60208284031215610141576101406100ce565b5b5f61014e84828501610118565b91505092915050565b610c08806101645f395ff3fe608060405234801561000f575f80fd5b5060043610610086575f3560e01c806353a04b051161005957806353a04b05146100ee57806371e8fb571461010a5780637882bf7e146101285780638da5cb5b1461014657610086565b80630c76316d1461008a578063228cb733146100945780633a4b66f1146100b25780634ba2363a146100d0575b5f80fd5b610092610164565b005b61009c6102bf565b6040516100a99190610638565b60405180910390f35b6100ba6102c5565b6040516100c79190610638565b60405180910390f35b6100d86102cb565b6040516100e59190610638565b60405180910390f35b6101086004803603810190610103919061068b565b6102d1565b005b6101126105cf565b60405161011f9190610638565b60405180910390f35b6101306105d8565b60405161013d9190610730565b60405180910390f35b61014e6105fb565b60405161015b9190610769565b60405180910390f35b60015f9054906101000a900473ffffffffffffffffffffffffffffffffffffffff1673ffffffffffffffffffffffffffffffffffffffff163373ffffffffffffffffffffffffffffffffffffffff16146101f3576040517f08c379a00000000000000000000000000000000000000000000000000000000081526004016101ea906107dc565b60405180910390fd5b5f60045490505f6004819055505f8054906101000a900473ffffffffffffffffffffffffffffffffffffffff1673ffffffffffffffffffffffffffffffffffffffff1663a9059cbb60015f9054906101000a900473ffffffffffffffffffffffffffffffffffffffff16836040518363ffffffff1660e01b815260040161027b9291906107fa565b6020604051808303815f875af1158015610297573d5f803e3d5ffd5b505050506040513d601f19601f820116820180604052508101906102bb9190610856565b5050565b60035481565b60025481565b60045481565b60018160ff16101580156102e95750600a8160ff1611155b610328576040517f08c379a000000000000000000000000000000000000000000000000000000000815260040161031f906108cb565b60405180910390fd5b5f8054906101000a900473ffffffffffffffffffffffffffffffffffffffff1673ffffffffffffffffffffffffffffffffffffffff166323b872dd33306002546040518463ffffffff1660e01b8152600401610386939291906108e9565b6020604051808303815f875af11580156103a2573d5f803e3d5ffd5b505050506040513d601f19601f820116820180604052508101906103c69190610856565b610405576040517f08c379a00000000000000000000000000000000000000000000000000000000081526004016103fc90610968565b60405180910390fd5b60025460045f82825461041891906109b3565b925050819055505f6001600a42334460405160200161043993929190610a4b565b604051602081830303815290604052805190602001205f1c61045b9190610ab4565b61046591906109b3565b90505f8160ff168360ff1614905080156105785760035460045410156104c0576040517f08c379a00000000000000000000000000000000000000000000000000000000081526004016104b790610b2e565b60405180910390fd5b5f8054906101000a900473ffffffffffffffffffffffffffffffffffffffff1673ffffffffffffffffffffffffffffffffffffffff1663a9059cbb336003546040518363ffffffff1660e01b815260040161051c9291906107fa565b6020604051808303815f875af1158015610538573d5f803e3d5ffd5b505050506040513d601f19601f8201168201806040525081019061055c9190610856565b5060035460045f8282546105709190610b4c565b925050819055505b3373ffffffffffffffffffffffffffffffffffffffff167fe797642872b32e72a4dcefab4f9e4de91e11f9f917046fbaad3186888aa8a0ce8484846040516105c293929190610b9d565b60405180910390a2505050565b5f600454905090565b5f8054906101000a900473ffffffffffffffffffffffffffffffffffffffff1681565b60015f9054906101000a900473ffffffffffffffffffffffffffffffffffffffff1681565b5f819050919050565b61063281610620565b82525050565b5f60208201905061064b5f830184610629565b92915050565b5f80fd5b5f60ff82169050919050565b61066a81610655565b8114610674575f80fd5b50565b5f8135905061068581610661565b92915050565b5f602082840312156106a05761069f610651565b5b5f6106ad84828501610677565b91505092915050565b5f73ffffffffffffffffffffffffffffffffffffffff82169050919050565b5f819050919050565b5f6106f86106f36106ee846106b6565b6106d5565b6106b6565b9050919050565b5f610709826106de565b9050919050565b5f61071a826106ff565b9050919050565b61072a81610710565b82525050565b5f6020820190506107435f830184610721565b92915050565b5f610753826106b6565b9050919050565b61076381610749565b82525050565b5f60208201905061077c5f83018461075a565b92915050565b5f82825260208201905092915050565b7f4f6e6c79206f776e6572000000000000000000000000000000000000000000005f82015250565b5f6107c6600a83610782565b91506107d182610792565b602082019050919050565b5f6020820190508181035f8301526107f3816107ba565b9050919050565b5f60408201905061080d5f83018561075a565b61081a6020830184610629565b9392505050565b5f8115159050919050565b61083581610821565b811461083f575f80fd5b50565b5f815190506108508161082c565b92915050565b5f6020828403121561086b5761086a610651565b5b5f61087884828501610842565b91505092915050565b7f4775657373206d75737420626520312d313000000000000000000000000000005f82015250565b5f6108b5601283610782565b91506108c082610881565b602082019050919050565b5f6020820190508181035f8301526108e2816108a9565b9050919050565b5f6060820190506108fc5f83018661075a565b610909602083018561075a565b6109166040830184610629565b949350505050565b7f535454207472616e73666572206661696c6564000000000000000000000000005f82015250565b5f610952601383610782565b915061095d8261091e565b602082019050919050565b5f6020820190508181035f83015261097f81610946565b9050919050565b7f4e487b71000000000000000000000000000000000000000000000000000000005f52601160045260245ffd5b5f6109bd82610620565b91506109c883610620565b92508282019050808211156109e0576109df610986565b5b92915050565b5f819050919050565b610a006109fb82610620565b6109e6565b82525050565b5f8160601b9050919050565b5f610a1c82610a06565b9050919050565b5f610a2d82610a12565b9050919050565b610a45610a4082610749565b610a23565b82525050565b5f610a5682866109ef565b602082019150610a668285610a34565b601482019150610a7682846109ef565b602082019150819050949350505050565b7f4e487b71000000000000000000000000000000000000000000000000000000005f52601260045260245ffd5b5f610abe82610620565b9150610ac983610620565b925082610ad957610ad8610a87565b5b828206905092915050565b7f4e6f7420656e6f75676820696e20706f740000000000000000000000000000005f82015250565b5f610b18601183610782565b9150610b2382610ae4565b602082019050919050565b5f6020820190508181035f830152610b4581610b0c565b9050919050565b5f610b5682610620565b9150610b6183610620565b9250828203905081811115610b7957610b78610986565b5b92915050565b610b8881610655565b82525050565b610b9781610821565b82525050565b5f606082019050610bb05f830186610b7f565b610bbd6020830185610b7f565b610bca6040830184610b8e565b94935050505056fea2646970667358221220959940eeaa88669d813a3a472fd495149a9c4928a5c6f5c0a41f67c4123370bc64736f6c634300081a0033",
					"opcodes": "PUSH1 0x80 PUSH1 0x40 MSTORE PUSH8 0x1BC16D674EC80000 PUSH1 0x2 SSTORE PUSH8 0x4563918244F40000 PUSH1 0x3 SSTORE CALLVALUE DUP1 ISZERO PUSH2 0x27 JUMPI PUSH0 DUP1 REVERT JUMPDEST POP PUSH1 0x40 MLOAD PUSH2 0xD6C CODESIZE SUB DUP1 PUSH2 0xD6C DUP4 CODECOPY DUP2 DUP2 ADD PUSH1 0x40 MSTORE DUP2 ADD SWAP1 PUSH2 0x49 SWAP2 SWAP1 PUSH2 0x12C JUMP JUMPDEST DUP1 PUSH0 DUP1 PUSH2 0x100 EXP DUP2 SLOAD DUP2 PUSH20 0xFFFFFFFFFFFFFFFFFFFFFFFFFFFFFFFFFFFFFFFF MUL NOT AND SWAP1 DUP4 PUSH20 0xFFFFFFFFFFFFFFFFFFFFFFFFFFFFFFFFFFFFFFFF AND MUL OR SWAP1 SSTORE POP CALLER PUSH1 0x1 PUSH0 PUSH2 0x100 EXP DUP2 SLOAD DUP2 PUSH20 0xFFFFFFFFFFFFFFFFFFFFFFFFFFFFFFFFFFFFFFFF MUL NOT AND SWAP1 DUP4 PUSH20 0xFFFFFFFFFFFFFFFFFFFFFFFFFFFFFFFFFFFFFFFF AND MUL OR SWAP1 SSTORE POP POP PUSH2 0x157 JUMP JUMPDEST PUSH0 DUP1 REVERT JUMPDEST PUSH0 PUSH20 0xFFFFFFFFFFFFFFFFFFFFFFFFFFFFFFFFFFFFFFFF DUP3 AND SWAP1 POP SWAP2 SWAP1 POP JUMP JUMPDEST PUSH0 PUSH2 0xFB DUP3 PUSH2 0xD2 JUMP JUMPDEST SWAP1 POP SWAP2 SWAP1 POP JUMP JUMPDEST PUSH2 0x10B DUP2 PUSH2 0xF1 JUMP JUMPDEST DUP2 EQ PUSH2 0x115 JUMPI PUSH0 DUP1 REVERT JUMPDEST POP JUMP JUMPDEST PUSH0 DUP2 MLOAD SWAP1 POP PUSH2 0x126 DUP2 PUSH2 0x102 JUMP JUMPDEST SWAP3 SWAP2 POP POP JUMP JUMPDEST PUSH0 PUSH1 0x20 DUP3 DUP5 SUB SLT ISZERO PUSH2 0x141 JUMPI PUSH2 0x140 PUSH2 0xCE JUMP JUMPDEST JUMPDEST PUSH0 PUSH2 0x14E DUP5 DUP3 DUP6 ADD PUSH2 0x118 JUMP JUMPDEST SWAP2 POP POP SWAP3 SWAP2 POP POP JUMP JUMPDEST PUSH2 0xC08 DUP1 PUSH2 0x164 PUSH0 CODECOPY PUSH0 RETURN INVALID PUSH1 0x80 PUSH1 0x40 MSTORE CALLVALUE DUP1 ISZERO PUSH2 0xF JUMPI PUSH0 DUP1 REVERT JUMPDEST POP PUSH1 0x4 CALLDATASIZE LT PUSH2 0x86 JUMPI PUSH0 CALLDATALOAD PUSH1 0xE0 SHR DUP1 PUSH4 0x53A04B05 GT PUSH2 0x59 JUMPI DUP1 PUSH4 0x53A04B05 EQ PUSH2 0xEE JUMPI DUP1 PUSH4 0x71E8FB57 EQ PUSH2 0x10A JUMPI DUP1 PUSH4 0x7882BF7E EQ PUSH2 0x128 JUMPI DUP1 PUSH4 0x8DA5CB5B EQ PUSH2 0x146 JUMPI PUSH2 0x86 JUMP JUMPDEST DUP1 PUSH4 0xC76316D EQ PUSH2 0x8A JUMPI DUP1 PUSH4 0x228CB733 EQ PUSH2 0x94 JUMPI DUP1 PUSH4 0x3A4B66F1 EQ PUSH2 0xB2 JUMPI DUP1 PUSH4 0x4BA2363A EQ PUSH2 0xD0 JUMPI JUMPDEST PUSH0 DUP1 REVERT JUMPDEST PUSH2 0x92 PUSH2 0x164 JUMP JUMPDEST STOP JUMPDEST PUSH2 0x9C PUSH2 0x2BF JUMP JUMPDEST PUSH1 0x40 MLOAD PUSH2 0xA9 SWAP2 SWAP1 PUSH2 0x638 JUMP JUMPDEST PUSH1 0x40 MLOAD DUP1 SWAP2 SUB SWAP1 RETURN JUMPDEST PUSH2 0xBA PUSH2 0x2C5 JUMP JUMPDEST PUSH1 0x40 MLOAD PUSH2 0xC7 SWAP2 SWAP1 PUSH2 0x638 JUMP JUMPDEST PUSH1 0x40 MLOAD DUP1 SWAP2 SUB SWAP1 RETURN JUMPDEST PUSH2 0xD8 PUSH2 0x2CB JUMP JUMPDEST PUSH1 0x40 MLOAD PUSH2 0xE5 SWAP2 SWAP1 PUSH2 0x638 JUMP JUMPDEST PUSH1 0x40 MLOAD DUP1 SWAP2 SUB SWAP1 RETURN JUMPDEST PUSH2 0x108 PUSH1 0x4 DUP1 CALLDATASIZE SUB DUP2 ADD SWAP1 PUSH2 0x103 SWAP2 SWAP1 PUSH2 0x68B JUMP JUMPDEST PUSH2 0x2D1 JUMP JUMPDEST STOP JUMPDEST PUSH2 0x112 PUSH2 0x5CF JUMP JUMPDEST PUSH1 0x40 MLOAD PUSH2 0x11F SWAP2 SWAP1 PUSH2 0x638 JUMP JUMPDEST PUSH1 0x40 MLOAD DUP1 SWAP2 SUB SWAP1 RETURN JUMPDEST PUSH2 0x130 PUSH2 0x5D8 JUMP JUMPDEST PUSH1 0x40 MLOAD PUSH2 0x13D SWAP2 SWAP1 PUSH2 0x730 JUMP JUMPDEST PUSH1 0x40 MLOAD DUP1 SWAP2 SUB SWAP1 RETURN JUMPDEST PUSH2 0x14E PUSH2 0x5FB JUMP JUMPDEST PUSH1 0x40 MLOAD PUSH2 0x15B SWAP2 SWAP1 PUSH2 0x769 JUMP JUMPDEST PUSH1 0x40 MLOAD DUP1 SWAP2 SUB SWAP1 RETURN JUMPDEST PUSH1 0x1 PUSH0 SWAP1 SLOAD SWAP1 PUSH2 0x100 EXP SWAP1 DIV PUSH20 0xFFFFFFFFFFFFFFFFFFFFFFFFFFFFFFFFFFFFFFFF AND PUSH20 0xFFFFFFFFFFFFFFFFFFFFFFFFFFFFFFFFFFFFFFFF AND CALLER PUSH20 0xFFFFFFFFFFFFFFFFFFFFFFFFFFFFFFFFFFFFFFFF AND EQ PUSH2 0x1F3 JUMPI PUSH1 0x40 MLOAD PUSH32 0x8C379A000000000000000000000000000000000000000000000000000000000 DUP2 MSTORE PUSH1 0x4 ADD PUSH2 0x1EA SWAP1 PUSH2 0x7DC JUMP JUMPDEST PUSH1 0x40 MLOAD DUP1 SWAP2 SUB SWAP1 REVERT JUMPDEST PUSH0 PUSH1 0x4 SLOAD SWAP1 POP PUSH0 PUSH1 0x4 DUP2 SWAP1 SSTORE POP PUSH0 DUP1 SLOAD SWAP1 PUSH2 0x100 EXP SWAP1 DIV PUSH20 0xFFFFFFFFFFFFFFFFFFFFFFFFFFFFFFFFFFFFFFFF AND PUSH20 0xFFFFFFFFFFFFFFFFFFFFFFFFFFFFFFFFFFFFFFFF AND PUSH4 0xA9059CBB PUSH1 0x1 PUSH0 SWAP1 SLOAD SWAP1 PUSH2 0x100 EXP SWAP1 DIV PUSH20 0xFFFFFFFFFFFFFFFFFFFFFFFFFFFFFFFFFFFFFFFF AND DUP4 PUSH1 0x40 MLOAD DUP4 PUSH4 0xFFFFFFFF AND PUSH1 0xE0 SHL DUP2 MSTORE PUSH1 0x4 ADD PUSH2 0x27B SWAP3 SWAP2 SWAP1 PUSH2 0x7FA JUMP JUMPDEST PUSH1 0x20 PUSH1 0x40 MLOAD DUP1 DUP4 SUB DUP2 PUSH0 DUP8 GAS CALL ISZERO DUP1 ISZERO PUSH2 0x297 JUMPI RETURNDATASIZE PUSH0 DUP1 RETURNDATACOPY RETURNDATASIZE PUSH0 REVERT JUMPDEST POP POP POP POP PUSH1 0x40 MLOAD RETURNDATASIZE PUSH1 0x1F NOT PUSH1 0x1F DUP3 ADD AND DUP3 ADD DUP1 PUSH1 0x40 MSTORE POP DUP2 ADD SWAP1 PUSH2 0x2BB SWAP2 SWAP1 PUSH2 0x856 JUMP JUMPDEST POP POP JUMP JUMPDEST PUSH1 0x3 SLOAD DUP2 JUMP JUMPDEST PUSH1 0x2 SLOAD DUP2 JUMP JUMPDEST PUSH1 0x4 SLOAD DUP2 JUMP JUMPDEST PUSH1 0x1 DUP2 PUSH1 0xFF AND LT ISZERO DUP1 ISZERO PUSH2 0x2E9 JUMPI POP PUSH1 0xA DUP2 PUSH1 0xFF AND GT ISZERO JUMPDEST PUSH2 0x328 JUMPI PUSH1 0x40 MLOAD PUSH32 0x8C379A000000000000000000000000000000000000000000000000000000000 DUP2 MSTORE PUSH1 0x4 ADD PUSH2 0x31F SWAP1 PUSH2 0x8CB JUMP JUMPDEST PUSH1 0x40 MLOAD DUP1 SWAP2 SUB SWAP1 REVERT JUMPDEST PUSH0 DUP1 SLOAD SWAP1 PUSH2 0x100 EXP SWAP1 DIV PUSH20 0xFFFFFFFFFFFFFFFFFFFFFFFFFFFFFFFFFFFFFFFF AND PUSH20 0xFFFFFFFFFFFFFFFFFFFFFFFFFFFFFFFFFFFFFFFF AND PUSH4 0x23B872DD CALLER ADDRESS PUSH1 0x2 SLOAD PUSH1 0x40 MLOAD DUP5 PUSH4 0xFFFFFFFF AND PUSH1 0xE0 SHL DUP2 MSTORE PUSH1 0x4 ADD PUSH2 0x386 SWAP4 SWAP3 SWAP2 SWAP1 PUSH2 0x8E9 JUMP JUMPDEST PUSH1 0x20 PUSH1 0x40 MLOAD DUP1 DUP4 SUB DUP2 PUSH0 DUP8 GAS CALL ISZERO DUP1 ISZERO PUSH2 0x3A2 JUMPI RETURNDATASIZE PUSH0 DUP1 RETURNDATACOPY RETURNDATASIZE PUSH0 REVERT JUMPDEST POP POP POP POP PUSH1 0x40 MLOAD RETURNDATASIZE PUSH1 0x1F NOT PUSH1 0x1F DUP3 ADD AND DUP3 ADD DUP1 PUSH1 0x40 MSTORE POP DUP2 ADD SWAP1 PUSH2 0x3C6 SWAP2 SWAP1 PUSH2 0x856 JUMP JUMPDEST PUSH2 0x405 JUMPI PUSH1 0x40 MLOAD PUSH32 0x8C379A000000000000000000000000000000000000000000000000000000000 DUP2 MSTORE PUSH1 0x4 ADD PUSH2 0x3FC SWAP1 PUSH2 0x968 JUMP JUMPDEST PUSH1 0x40 MLOAD DUP1 SWAP2 SUB SWAP1 REVERT JUMPDEST PUSH1 0x2 SLOAD PUSH1 0x4 PUSH0 DUP3 DUP3 SLOAD PUSH2 0x418 SWAP2 SWAP1 PUSH2 0x9B3 JUMP JUMPDEST SWAP3 POP POP DUP2 SWAP1 SSTORE POP PUSH0 PUSH1 0x1 PUSH1 0xA TIMESTAMP CALLER PREVRANDAO PUSH1 0x40 MLOAD PUSH1 0x20 ADD PUSH2 0x439 SWAP4 SWAP3 SWAP2 SWAP1 PUSH2 0xA4B JUMP JUMPDEST PUSH1 0x40 MLOAD PUSH1 0x20 DUP2 DUP4 SUB SUB DUP2 MSTORE SWAP1 PUSH1 0x40 MSTORE DUP1 MLOAD SWAP1 PUSH1 0x20 ADD KECCAK256 PUSH0 SHR PUSH2 0x45B SWAP2 SWAP1 PUSH2 0xAB4 JUMP JUMPDEST PUSH2 0x465 SWAP2 SWAP1 PUSH2 0x9B3 JUMP JUMPDEST SWAP1 POP PUSH0 DUP2 PUSH1 0xFF AND DUP4 PUSH1 0xFF AND EQ SWAP1 POP DUP1 ISZERO PUSH2 0x578 JUMPI PUSH1 0x3 SLOAD PUSH1 0x4 SLOAD LT ISZERO PUSH2 0x4C0 JUMPI PUSH1 0x40 MLOAD PUSH32 0x8C379A000000000000000000000000000000000000000000000000000000000 DUP2 MSTORE PUSH1 0x4 ADD PUSH2 0x4B7 SWAP1 PUSH2 0xB2E JUMP JUMPDEST PUSH1 0x40 MLOAD DUP1 SWAP2 SUB SWAP1 REVERT JUMPDEST PUSH0 DUP1 SLOAD SWAP1 PUSH2 0x100 EXP SWAP1 DIV PUSH20 0xFFFFFFFFFFFFFFFFFFFFFFFFFFFFFFFFFFFFFFFF AND PUSH20 0xFFFFFFFFFFFFFFFFFFFFFFFFFFFFFFFFFFFFFFFF AND PUSH4 0xA9059CBB CALLER PUSH1 0x3 SLOAD PUSH1 0x40 MLOAD DUP4 PUSH4 0xFFFFFFFF AND PUSH1 0xE0 SHL DUP2 MSTORE PUSH1 0x4 ADD PUSH2 0x51C SWAP3 SWAP2 SWAP1 PUSH2 0x7FA JUMP JUMPDEST PUSH1 0x20 PUSH1 0x40 MLOAD DUP1 DUP4 SUB DUP2 PUSH0 DUP8 GAS CALL ISZERO DUP1 ISZERO PUSH2 0x538 JUMPI RETURNDATASIZE PUSH0 DUP1 RETURNDATACOPY RETURNDATASIZE PUSH0 REVERT JUMPDEST POP POP POP POP PUSH1 0x40 MLOAD RETURNDATASIZE PUSH1 0x1F NOT PUSH1 0x1F DUP3 ADD AND DUP3 ADD DUP1 PUSH1 0x40 MSTORE POP DUP2 ADD SWAP1 PUSH2 0x55C SWAP2 SWAP1 PUSH2 0x856 JUMP JUMPDEST POP PUSH1 0x3 SLOAD PUSH1 0x4 PUSH0 DUP3 DUP3 SLOAD PUSH2 0x570 SWAP2 SWAP1 PUSH2 0xB4C JUMP JUMPDEST SWAP3 POP POP DUP2 SWAP1 SSTORE POP JUMPDEST CALLER PUSH20 0xFFFFFFFFFFFFFFFFFFFFFFFFFFFFFFFFFFFFFFFF AND PUSH32 0xE797642872B32E72A4DCEFAB4F9E4DE91E11F9F917046FBAAD3186888AA8A0CE DUP5 DUP5 DUP5 PUSH1 0x40 MLOAD PUSH2 0x5C2 SWAP4 SWAP3 SWAP2 SWAP1 PUSH2 0xB9D JUMP JUMPDEST PUSH1 0x40 MLOAD DUP1 SWAP2 SUB SWAP1 LOG2 POP POP POP JUMP JUMPDEST PUSH0 PUSH1 0x4 SLOAD SWAP1 POP SWAP1 JUMP JUMPDEST PUSH0 DUP1 SLOAD SWAP1 PUSH2 0x100 EXP SWAP1 DIV PUSH20 0xFFFFFFFFFFFFFFFFFFFFFFFFFFFFFFFFFFFFFFFF AND DUP2 JUMP JUMPDEST PUSH1 0x1 PUSH0 SWAP1 SLOAD SWAP1 PUSH2 0x100 EXP SWAP1 DIV PUSH20 0xFFFFFFFFFFFFFFFFFFFFFFFFFFFFFFFFFFFFFFFF AND DUP2 JUMP JUMPDEST PUSH0 DUP2 SWAP1 POP SWAP2 SWAP1 POP JUMP JUMPDEST PUSH2 0x632 DUP2 PUSH2 0x620 JUMP JUMPDEST DUP3 MSTORE POP POP JUMP JUMPDEST PUSH0 PUSH1 0x20 DUP3 ADD SWAP1 POP PUSH2 0x64B PUSH0 DUP4 ADD DUP5 PUSH2 0x629 JUMP JUMPDEST SWAP3 SWAP2 POP POP JUMP JUMPDEST PUSH0 DUP1 REVERT JUMPDEST PUSH0 PUSH1 0xFF DUP3 AND SWAP1 POP SWAP2 SWAP1 POP JUMP JUMPDEST PUSH2 0x66A DUP2 PUSH2 0x655 JUMP JUMPDEST DUP2 EQ PUSH2 0x674 JUMPI PUSH0 DUP1 REVERT JUMPDEST POP JUMP JUMPDEST PUSH0 DUP2 CALLDATALOAD SWAP1 POP PUSH2 0x685 DUP2 PUSH2 0x661 JUMP JUMPDEST SWAP3 SWAP2 POP POP JUMP JUMPDEST PUSH0 PUSH1 0x20 DUP3 DUP5 SUB SLT ISZERO PUSH2 0x6A0 JUMPI PUSH2 0x69F PUSH2 0x651 JUMP JUMPDEST JUMPDEST PUSH0 PUSH2 0x6AD DUP5 DUP3 DUP6 ADD PUSH2 0x677 JUMP JUMPDEST SWAP2 POP POP SWAP3 SWAP2 POP POP JUMP JUMPDEST PUSH0 PUSH20 0xFFFFFFFFFFFFFFFFFFFFFFFFFFFFFFFFFFFFFFFF DUP3 AND SWAP1 POP SWAP2 SWAP1 POP JUMP JUMPDEST PUSH0 DUP2 SWAP1 POP SWAP2 SWAP1 POP JUMP JUMPDEST PUSH0 PUSH2 0x6F8 PUSH2 0x6F3 PUSH2 0x6EE DUP5 PUSH2 0x6B6 JUMP JUMPDEST PUSH2 0x6D5 JUMP JUMPDEST PUSH2 0x6B6 JUMP JUMPDEST SWAP1 POP SWAP2 SWAP1 POP JUMP JUMPDEST PUSH0 PUSH2 0x709 DUP3 PUSH2 0x6DE JUMP JUMPDEST SWAP1 POP SWAP2 SWAP1 POP JUMP JUMPDEST PUSH0 PUSH2 0x71A DUP3 PUSH2 0x6FF JUMP JUMPDEST SWAP1 POP SWAP2 SWAP1 POP JUMP JUMPDEST PUSH2 0x72A DUP2 PUSH2 0x710 JUMP JUMPDEST DUP3 MSTORE POP POP JUMP JUMPDEST PUSH0 PUSH1 0x20 DUP3 ADD SWAP1 POP PUSH2 0x743 PUSH0 DUP4 ADD DUP5 PUSH2 0x721 JUMP JUMPDEST SWAP3 SWAP2 POP POP JUMP JUMPDEST PUSH0 PUSH2 0x753 DUP3 PUSH2 0x6B6 JUMP JUMPDEST SWAP1 POP SWAP2 SWAP1 POP JUMP JUMPDEST PUSH2 0x763 DUP2 PUSH2 0x749 JUMP JUMPDEST DUP3 MSTORE POP POP JUMP JUMPDEST PUSH0 PUSH1 0x20 DUP3 ADD SWAP1 POP PUSH2 0x77C PUSH0 DUP4 ADD DUP5 PUSH2 0x75A JUMP JUMPDEST SWAP3 SWAP2 POP POP JUMP JUMPDEST PUSH0 DUP3 DUP3 MSTORE PUSH1 0x20 DUP3 ADD SWAP1 POP SWAP3 SWAP2 POP POP JUMP JUMPDEST PUSH32 0x4F6E6C79206F776E657200000000000000000000000000000000000000000000 PUSH0 DUP3 ADD MSTORE POP JUMP JUMPDEST PUSH0 PUSH2 0x7C6 PUSH1 0xA DUP4 PUSH2 0x782 JUMP JUMPDEST SWAP2 POP PUSH2 0x7D1 DUP3 PUSH2 0x792 JUMP JUMPDEST PUSH1 0x20 DUP3 ADD SWAP1 POP SWAP2 SWAP1 POP JUMP JUMPDEST PUSH0 PUSH1 0x20 DUP3 ADD SWAP1 POP DUP2 DUP2 SUB PUSH0 DUP4 ADD MSTORE PUSH2 0x7F3 DUP2 PUSH2 0x7BA JUMP JUMPDEST SWAP1 POP SWAP2 SWAP1 POP JUMP JUMPDEST PUSH0 PUSH1 0x40 DUP3 ADD SWAP1 POP PUSH2 0x80D PUSH0 DUP4 ADD DUP6 PUSH2 0x75A JUMP JUMPDEST PUSH2 0x81A PUSH1 0x20 DUP4 ADD DUP5 PUSH2 0x629 JUMP JUMPDEST SWAP4 SWAP3 POP POP POP JUMP JUMPDEST PUSH0 DUP2 ISZERO ISZERO SWAP1 POP SWAP2 SWAP1 POP JUMP JUMPDEST PUSH2 0x835 DUP2 PUSH2 0x821 JUMP JUMPDEST DUP2 EQ PUSH2 0x83F JUMPI PUSH0 DUP1 REVERT JUMPDEST POP JUMP JUMPDEST PUSH0 DUP2 MLOAD SWAP1 POP PUSH2 0x850 DUP2 PUSH2 0x82C JUMP JUMPDEST SWAP3 SWAP2 POP POP JUMP JUMPDEST PUSH0 PUSH1 0x20 DUP3 DUP5 SUB SLT ISZERO PUSH2 0x86B JUMPI PUSH2 0x86A PUSH2 0x651 JUMP JUMPDEST JUMPDEST PUSH0 PUSH2 0x878 DUP5 DUP3 DUP6 ADD PUSH2 0x842 JUMP JUMPDEST SWAP2 POP POP SWAP3 SWAP2 POP POP JUMP JUMPDEST PUSH32 0x4775657373206D75737420626520312D31300000000000000000000000000000 PUSH0 DUP3 ADD MSTORE POP JUMP JUMPDEST PUSH0 PUSH2 0x8B5 PUSH1 0x12 DUP4 PUSH2 0x782 JUMP JUMPDEST SWAP2 POP PUSH2 0x8C0 DUP3 PUSH2 0x881 JUMP JUMPDEST PUSH1 0x20 DUP3 ADD SWAP1 POP SWAP2 SWAP1 POP JUMP JUMPDEST PUSH0 PUSH1 0x20 DUP3 ADD SWAP1 POP DUP2 DUP2 SUB PUSH0 DUP4 ADD MSTORE PUSH2 0x8E2 DUP2 PUSH2 0x8A9 JUMP JUMPDEST SWAP1 POP SWAP2 SWAP1 POP JUMP JUMPDEST PUSH0 PUSH1 0x60 DUP3 ADD SWAP1 POP PUSH2 0x8FC PUSH0 DUP4 ADD DUP7 PUSH2 0x75A JUMP JUMPDEST PUSH2 0x909 PUSH1 0x20 DUP4 ADD DUP6 PUSH2 0x75A JUMP JUMPDEST PUSH2 0x916 PUSH1 0x40 DUP4 ADD DUP5 PUSH2 0x629 JUMP JUMPDEST SWAP5 SWAP4 POP POP POP POP JUMP JUMPDEST PUSH32 0x535454207472616E73666572206661696C656400000000000000000000000000 PUSH0 DUP3 ADD MSTORE POP JUMP JUMPDEST PUSH0 PUSH2 0x952 PUSH1 0x13 DUP4 PUSH2 0x782 JUMP JUMPDEST SWAP2 POP PUSH2 0x95D DUP3 PUSH2 0x91E JUMP JUMPDEST PUSH1 0x20 DUP3 ADD SWAP1 POP SWAP2 SWAP1 POP JUMP JUMPDEST PUSH0 PUSH1 0x20 DUP3 ADD SWAP1 POP DUP2 DUP2 SUB PUSH0 DUP4 ADD MSTORE PUSH2 0x97F DUP2 PUSH2 0x946 JUMP JUMPDEST SWAP1 POP SWAP2 SWAP1 POP JUMP JUMPDEST PUSH32 0x4E487B7100000000000000000000000000000000000000000000000000000000 PUSH0 MSTORE PUSH1 0x11 PUSH1 0x4 MSTORE PUSH1 0x24 PUSH0 REVERT JUMPDEST PUSH0 PUSH2 0x9BD DUP3 PUSH2 0x620 JUMP JUMPDEST SWAP2 POP PUSH2 0x9C8 DUP4 PUSH2 0x620 JUMP JUMPDEST SWAP3 POP DUP3 DUP3 ADD SWAP1 POP DUP1 DUP3 GT ISZERO PUSH2 0x9E0 JUMPI PUSH2 0x9DF PUSH2 0x986 JUMP JUMPDEST JUMPDEST SWAP3 SWAP2 POP POP JUMP JUMPDEST PUSH0 DUP2 SWAP1 POP SWAP2 SWAP1 POP JUMP JUMPDEST PUSH2 0xA00 PUSH2 0x9FB DUP3 PUSH2 0x620 JUMP JUMPDEST PUSH2 0x9E6 JUMP JUMPDEST DUP3 MSTORE POP POP JUMP JUMPDEST PUSH0 DUP2 PUSH1 0x60 SHL SWAP1 POP SWAP2 SWAP1 POP JUMP JUMPDEST PUSH0 PUSH2 0xA1C DUP3 PUSH2 0xA06 JUMP JUMPDEST SWAP1 POP SWAP2 SWAP1 POP JUMP JUMPDEST PUSH0 PUSH2 0xA2D DUP3 PUSH2 0xA12 JUMP JUMPDEST SWAP1 POP SWAP2 SWAP1 POP JUMP JUMPDEST PUSH2 0xA45 PUSH2 0xA40 DUP3 PUSH2 0x749 JUMP JUMPDEST PUSH2 0xA23 JUMP JUMPDEST DUP3 MSTORE POP POP JUMP JUMPDEST PUSH0 PUSH2 0xA56 DUP3 DUP7 PUSH2 0x9EF JUMP JUMPDEST PUSH1 0x20 DUP3 ADD SWAP2 POP PUSH2 0xA66 DUP3 DUP6 PUSH2 0xA34 JUMP JUMPDEST PUSH1 0x14 DUP3 ADD SWAP2 POP PUSH2 0xA76 DUP3 DUP5 PUSH2 0x9EF JUMP JUMPDEST PUSH1 0x20 DUP3 ADD SWAP2 POP DUP2 SWAP1 POP SWAP5 SWAP4 POP POP POP POP JUMP JUMPDEST PUSH32 0x4E487B7100000000000000000000000000000000000000000000000000000000 PUSH0 MSTORE PUSH1 0x12 PUSH1 0x4 MSTORE PUSH1 0x24 PUSH0 REVERT JUMPDEST PUSH0 PUSH2 0xABE DUP3 PUSH2 0x620 JUMP JUMPDEST SWAP2 POP PUSH2 0xAC9 DUP4 PUSH2 0x620 JUMP JUMPDEST SWAP3 POP DUP3 PUSH2 0xAD9 JUMPI PUSH2 0xAD8 PUSH2 0xA87 JUMP JUMPDEST JUMPDEST DUP3 DUP3 MOD SWAP1 POP SWAP3 SWAP2 POP POP JUMP JUMPDEST PUSH32 0x4E6F7420656E6F75676820696E20706F74000000000000000000000000000000 PUSH0 DUP3 ADD MSTORE POP JUMP JUMPDEST PUSH0 PUSH2 0xB18 PUSH1 0x11 DUP4 PUSH2 0x782 JUMP JUMPDEST SWAP2 POP PUSH2 0xB23 DUP3 PUSH2 0xAE4 JUMP JUMPDEST PUSH1 0x20 DUP3 ADD SWAP1 POP SWAP2 SWAP1 POP JUMP JUMPDEST PUSH0 PUSH1 0x20 DUP3 ADD SWAP1 POP DUP2 DUP2 SUB PUSH0 DUP4 ADD MSTORE PUSH2 0xB45 DUP2 PUSH2 0xB0C JUMP JUMPDEST SWAP1 POP SWAP2 SWAP1 POP JUMP JUMPDEST PUSH0 PUSH2 0xB56 DUP3 PUSH2 0x620 JUMP JUMPDEST SWAP2 POP PUSH2 0xB61 DUP4 PUSH2 0x620 JUMP JUMPDEST SWAP3 POP DUP3 DUP3 SUB SWAP1 POP DUP2 DUP2 GT ISZERO PUSH2 0xB79 JUMPI PUSH2 0xB78 PUSH2 0x986 JUMP JUMPDEST JUMPDEST SWAP3 SWAP2 POP POP JUMP JUMPDEST PUSH2 0xB88 DUP2 PUSH2 0x655 JUMP JUMPDEST DUP3 MSTORE POP POP JUMP JUMPDEST PUSH2 0xB97 DUP2 PUSH2 0x821 JUMP JUMPDEST DUP3 MSTORE POP POP JUMP JUMPDEST PUSH0 PUSH1 0x60 DUP3 ADD SWAP1 POP PUSH2 0xBB0 PUSH0 DUP4 ADD DUP7 PUSH2 0xB7F JUMP JUMPDEST PUSH2 0xBBD PUSH1 0x20 DUP4 ADD DUP6 PUSH2 0xB7F JUMP JUMPDEST PUSH2 0xBCA PUSH1 0x40 DUP4 ADD DUP5 PUSH2 0xB8E JUMP JUMPDEST SWAP5 SWAP4 POP POP POP POP JUMP INVALID LOG2 PUSH5 0x6970667358 0x22 SLT KECCAK256 SWAP6 SWAP10 BLOCKHASH 0xEE 0xAA DUP9 PUSH7 0x9D813A3A472FD4 SWAP6 EQ SWAP11 SWAP13 BLOBHASH 0x28 0xA5 0xC6 CREATE2 0xC0 LOG4 0x1F PUSH8 0xC4123370BC64736F PUSH13 0x634300081A0033000000000000 "
				},
				"gasEstimates": {
					"creation": {
						"codeDepositCost": "616000",
						"executionCost": "infinite",
						"totalCost": "infinite"
					},
					"external": {
						"getPotBalance()": "2454",
						"owner()": "2574",
						"play(uint8)": "infinite",
						"pot()": "2492",
						"reward()": "2448",
						"stake()": "2470",
						"sttToken()": "infinite",
						"withdrawPot()": "infinite"
					}
				},
				"methodIdentifiers": {
					"getPotBalance()": "71e8fb57",
					"owner()": "8da5cb5b",
					"play(uint8)": "53a04b05",
					"pot()": "4ba2363a",
					"reward()": "228cb733",
					"stake()": "3a4b66f1",
					"sttToken()": "7882bf7e",
					"withdrawPot()": "0c76316d"
				}
			},
			"storageLayout": {
				"storage": [
					{
						"astId": 25,
						"contract": "sybil_resistant_s.sol:GuessNumberGame",
						"label": "sttToken",
						"offset": 0,
						"slot": "0",
						"type": "t_contract(IERC20)22"
					},
					{
						"astId": 27,
						"contract": "sybil_resistant_s.sol:GuessNumberGame",
						"label": "owner",
						"offset": 0,
						"slot": "1",
						"type": "t_address"
					},
					{
						"astId": 34,
						"contract": "sybil_resistant_s.sol:GuessNumberGame",
						"label": "stake",
						"offset": 0,
						"slot": "2",
						"type": "t_uint256"
					},
					{
						"astId": 41,
						"contract": "sybil_resistant_s.sol:GuessNumberGame",
						"label": "reward",
						"offset": 0,
						"slot": "3",
						"type": "t_uint256"
					},
					{
						"astId": 43,
						"contract": "sybil_resistant_s.sol:GuessNumberGame",
						"label": "pot",
						"offset": 0,
						"slot": "4",
						"type": "t_uint256"
					}
				],
				"types": {
					"t_address": {
						"encoding": "inplace",
						"label": "address",
						"numberOfBytes": "20"
					},
					"t_contract(IERC20)22": {
						"encoding": "inplace",
						"label": "contract IERC20",
						"numberOfBytes": "20"
					},
					"t_uint256": {
						"encoding": "inplace",
						"label": "uint256",
						"numberOfBytes": "32"
					}
				}
			},
			"userdoc": {
				"kind": "user",
				"methods": {},
				"version": 1
			}
		}
	}
}