{
	"data": {
		"bytecode": {
			"linkReferences": {},
			"object": "60a0604052600560025568056bc75e2d63100000600355348015610021575f5ffd5b50604051610f6a380380610f6a8339818101604052810190610043919061021d565b335f73ffffffffffffffffffffffffffffffffffffffff168173ffffffffffffffffffffffffffffffffffffffff16036100b4575f6040517f1e4fbdf70000000000000000000000000000000000000000000000000000000081526004016100ab9190610257565b60405180910390fd5b6100c3816100fe60201b60201c565b508073ffffffffffffffffffffffffffffffffffffffff1660808173ffffffffffffffffffffffffffffffffffffffff168152505050610270565b5f5f5f9054906101000a900473ffffffffffffffffffffffffffffffffffffffff169050815f5f6101000a81548173ffffffffffffffffffffffffffffffffffffffff021916908373ffffffffffffffffffffffffffffffffffffffff1602179055508173ffffffffffffffffffffffffffffffffffffffff168173ffffffffffffffffffffffffffffffffffffffff167f8be0079c531659141344cd1fd0a4f28419497f9722a3daafe3b4186f6b6457e060405160405180910390a35050565b5f5ffd5b5f73ffffffffffffffffffffffffffffffffffffffff82169050919050565b5f6101ec826101c3565b9050919050565b6101fc816101e2565b8114610206575f5ffd5b50565b5f81519050610217816101f3565b92915050565b5f60208284031215610232576102316101bf565b5b5f61023f84828501610209565b91505092915050565b610251816101e2565b82525050565b5f60208201905061026a5f830184610248565b92915050565b608051610cd46102965f395f81816102800152818161041c01526106e50152610cd45ff3fe608060405234801561000f575f5ffd5b50600436106100b2575f3560e01c8063b4a36ca21161006f578063b4a36ca214610164578063b88a802f14610182578063df5c937c1461018c578063f2fde38b14610196578063f7b2a7be146101b2578063f7c618c1146101d0576100b2565b80630d310e5a146100b6578063293be456146100d2578063715018a6146100ee5780638da5cb5b146100f857806399e6da3414610116578063abe73ef514610148575b5f5ffd5b6100d060048036038101906100cb919061088d565b6101ee565b005b6100ec60048036038101906100e7919061088d565b610200565b005b6100f6610212565b005b610100610225565b60405161010d91906108f7565b60405180910390f35b610130600480360381019061012b919061093a565b61024c565b60405161013f9392919061098e565b60405180910390f35b610162600480360381019061015d919061088d565b61027e565b005b61016c61031f565b60405161017991906109c3565b60405180910390f35b61018a610325565b005b61019461050b565b005b6101b060048036038101906101ab919061093a565b610659565b005b6101ba6106dd565b6040516101c791906109c3565b60405180910390f35b6101d86106e3565b6040516101e59190610a37565b60405180910390f35b6101f6610707565b8060028190555050565b610208610707565b8060038190555050565b61021a610707565b6102235f61078e565b565b5f5f5f9054906101000a900473ffffffffffffffffffffffffffffffffffffffff16905090565b6001602052805f5260405f205f91509050805f015490806001015490806002015f9054906101000a900460ff16905083565b7f000000000000000000000000000000000000000000000000000000000000000073ffffffffffffffffffffffffffffffffffffffff166323b872dd3330846040518463ffffffff1660e01b81526004016102db93929190610a50565b6020604051808303815f875af11580156102f7573d5f5f3e3d5ffd5b505050506040513d601f19601f8201168201806040525081019061031b9190610aaf565b5050565b60025481565b5f60015f3373ffffffffffffffffffffffffffffffffffffffff1673ffffffffffffffffffffffffffffffffffffffff1681526020019081526020015f209050806002015f9054906101000a900460ff16156103b6576040517f08c379a00000000000000000000000000000000000000000000000000000000081526004016103ad90610b34565b60405180910390fd5b600254815f015410156103fe576040517f08c379a00000000000000000000000000000000000000000000000000000000081526004016103f590610b9c565b60405180910390fd5b6001816002015f6101000a81548160ff0219169083151502179055507f000000000000000000000000000000000000000000000000000000000000000073ffffffffffffffffffffffffffffffffffffffff1663a9059cbb336003546040518363ffffffff1660e01b8152600401610477929190610bba565b6020604051808303815f875af1158015610493573d5f5f3e3d5ffd5b505050506040513d601f19601f820116820180604052508101906104b79190610aaf565b503373ffffffffffffffffffffffffffffffffffffffff167f106f923f993c2149d49b4255ff723acafa1f2d94393f561d3eda32ae348f724160035460405161050091906109c3565b60405180910390a250565b5f620151804261051b9190610c3b565b90505f60015f3373ffffffffffffffffffffffffffffffffffffffff1673ffffffffffffffffffffffffffffffffffffffff1681526020019081526020015f209050806002015f9054906101000a900460ff16156105ae576040517f08c379a00000000000000000000000000000000000000000000000000000000081526004016105a590610b34565b60405180910390fd5b81816001015410156106045781600182600101546105cc9190610c6b565b036105f0576001815f015f8282546105e49190610c6b565b925050819055506105fa565b6001815f01819055505b8181600101819055505b3373ffffffffffffffffffffffffffffffffffffffff167f855d55d778eaec76ff07ac75f120e5843c0baaaf8da265d6b5a32185663b80da825f015460405161064d91906109c3565b60405180910390a25050565b610661610707565b5f73ffffffffffffffffffffffffffffffffffffffff168173ffffffffffffffffffffffffffffffffffffffff16036106d1575f6040517f1e4fbdf70000000000000000000000000000000000000000000000000000000081526004016106c891906108f7565b60405180910390fd5b6106da8161078e565b50565b60035481565b7f000000000000000000000000000000000000000000000000000000000000000081565b61070f61084f565b73ffffffffffffffffffffffffffffffffffffffff1661072d610225565b73ffffffffffffffffffffffffffffffffffffffff161461078c5761075061084f565b6040517f118cdaa700000000000000000000000000000000000000000000000000000000815260040161078391906108f7565b60405180910390fd5b565b5f5f5f9054906101000a900473ffffffffffffffffffffffffffffffffffffffff169050815f5f6101000a81548173ffffffffffffffffffffffffffffffffffffffff021916908373ffffffffffffffffffffffffffffffffffffffff1602179055508173ffffffffffffffffffffffffffffffffffffffff168173ffffffffffffffffffffffffffffffffffffffff167f8be0079c531659141344cd1fd0a4f28419497f9722a3daafe3b4186f6b6457e060405160405180910390a35050565b5f33905090565b5f5ffd5b5f819050919050565b61086c8161085a565b8114610876575f5ffd5b50565b5f8135905061088781610863565b92915050565b5f602082840312156108a2576108a1610856565b5b5f6108af84828501610879565b91505092915050565b5f73ffffffffffffffffffffffffffffffffffffffff82169050919050565b5f6108e1826108b8565b9050919050565b6108f1816108d7565b82525050565b5f60208201905061090a5f8301846108e8565b92915050565b610919816108d7565b8114610923575f5ffd5b50565b5f8135905061093481610910565b92915050565b5f6020828403121561094f5761094e610856565b5b5f61095c84828501610926565b91505092915050565b61096e8161085a565b82525050565b5f8115159050919050565b61098881610974565b82525050565b5f6060820190506109a15f830186610965565b6109ae6020830185610965565b6109bb604083018461097f565b949350505050565b5f6020820190506109d65f830184610965565b92915050565b5f819050919050565b5f6109ff6109fa6109f5846108b8565b6109dc565b6108b8565b9050919050565b5f610a10826109e5565b9050919050565b5f610a2182610a06565b9050919050565b610a3181610a17565b82525050565b5f602082019050610a4a5f830184610a28565b92915050565b5f606082019050610a635f8301866108e8565b610a7060208301856108e8565b610a7d6040830184610965565b949350505050565b610a8e81610974565b8114610a98575f5ffd5b50565b5f81519050610aa981610a85565b92915050565b5f60208284031215610ac457610ac3610856565b5b5f610ad184828501610a9b565b91505092915050565b5f82825260208201905092915050565b7f416c726561647920636c61696d656400000000000000000000000000000000005f82015250565b5f610b1e600f83610ada565b9150610b2982610aea565b602082019050919050565b5f6020820190508181035f830152610b4b81610b12565b9050919050565b7f53747265616b206e6f7420636f6d706c657465000000000000000000000000005f82015250565b5f610b86601383610ada565b9150610b9182610b52565b602082019050919050565b5f6020820190508181035f830152610bb381610b7a565b9050919050565b5f604082019050610bcd5f8301856108e8565b610bda6020830184610965565b9392505050565b7f4e487b71000000000000000000000000000000000000000000000000000000005f52601260045260245ffd5b7f4e487b71000000000000000000000000000000000000000000000000000000005f52601160045260245ffd5b5f610c458261085a565b9150610c508361085a565b925082610c6057610c5f610be1565b5b828204905092915050565b5f610c758261085a565b9150610c808361085a565b9250828201905080821115610c9857610c97610c0e565b5b9291505056fea26469706673582212201fc3af36736f56e8c5e057e6c2b9a7153d4c27047fd8702a1f8cba3ef4f1352e64736f6c634300081e0033",
			"opcodes": "PUSH1 0xA0 PUSH1 0x40 MSTORE PUSH1 0x5 PUSH1 0x2 SSTORE PUSH9 0x56BC75E2D63100000 PUSH1 0x3 SSTORE CALLVALUE DUP1 ISZERO PUSH2 0x21 JUMPI PUSH0 PUSH0 REVERT JUMPDEST POP PUSH1 0x40 MLOAD PUSH2 0xF6A CODESIZE SUB DUP1 PUSH2 0xF6A DUP4 CODECOPY DUP2 DUP2 ADD PUSH1 0x40 MSTORE DUP2 ADD SWAP1 PUSH2 0x43 SWAP2 SWAP1 PUSH2 0x21D JUMP JUMPDEST CALLER PUSH0 PUSH20 0xFFFFFFFFFFFFFFFFFFFFFFFFFFFFFFFFFFFFFFFF AND DUP2 PUSH20 0xFFFFFFFFFFFFFFFFFFFFFFFFFFFFFFFFFFFFFFFF AND SUB PUSH2 0xB4 JUMPI PUSH0 PUSH1 0x40 MLOAD PUSH32 0x1E4FBDF700000000000000000000000000000000000000000000000000000000 DUP2 MSTORE PUSH1 0x4 ADD PUSH2 0xAB SWAP2 SWAP1 PUSH2 0x257 JUMP JUMPDEST PUSH1 0x40 MLOAD DUP1 SWAP2 SUB SWAP1 REVERT JUMPDEST PUSH2 0xC3 DUP2 PUSH2 0xFE PUSH1 0x20 SHL PUSH1 0x20 SHR JUMP JUMPDEST POP DUP1 PUSH20 0xFFFFFFFFFFFFFFFFFFFFFFFFFFFFFFFFFFFFFFFF AND PUSH1 0x80 DUP2 PUSH20 0xFFFFFFFFFFFFFFFFFFFFFFFFFFFFFFFFFFFFFFFF AND DUP2 MSTORE POP POP POP PUSH2 0x270 JUMP JUMPDEST PUSH0 PUSH0 PUSH0 SWAP1 SLOAD SWAP1 PUSH2 0x100 EXP SWAP1 DIV PUSH20 0xFFFFFFFFFFFFFFFFFFFFFFFFFFFFFFFFFFFFFFFF AND SWAP1 POP DUP2 PUSH0 PUSH0 PUSH2 0x100 EXP DUP2 SLOAD DUP2 PUSH20 0xFFFFFFFFFFFFFFFFFFFFFFFFFFFFFFFFFFFFFFFF MUL NOT AND SWAP1 DUP4 PUSH20 0xFFFFFFFFFFFFFFFFFFFFFFFFFFFFFFFFFFFFFFFF AND MUL OR SWAP1 SSTORE POP DUP2 PUSH20 0xFFFFFFFFFFFFFFFFFFFFFFFFFFFFFFFFFFFFFFFF AND DUP2 PUSH20 0xFFFFFFFFFFFFFFFFFFFFFFFFFFFFFFFFFFFFFFFF AND PUSH32 0x8BE0079C531659141344CD1FD0A4F28419497F9722A3DAAFE3B4186F6B6457E0 PUSH1 0x40 MLOAD PUSH1 0x40 MLOAD DUP1 SWAP2 SUB SWAP1 LOG3 POP POP JUMP JUMPDEST PUSH0 PUSH0 REVERT JUMPDEST PUSH0 PUSH20 0xFFFFFFFFFFFFFFFFFFFFFFFFFFFFFFFFFFFFFFFF DUP3 AND SWAP1 POP SWAP2 SWAP1 POP JUMP JUMPDEST PUSH0 PUSH2 0x1EC DUP3 PUSH2 0x1C3 JUMP JUMPDEST SWAP1 POP SWAP2 SWAP1 POP JUMP JUMPDEST PUSH2 0x1FC DUP2 PUSH2 0x1E2 JUMP JUMPDEST DUP2 EQ PUSH2 0x206 JUMPI PUSH0 PUSH0 REVERT JUMPDEST POP JUMP JUMPDEST PUSH0 DUP2 MLOAD SWAP1 POP PUSH2 0x217 DUP2 PUSH2 0x1F3 JUMP JUMPDEST SWAP3 SWAP2 POP POP JUMP JUMPDEST PUSH0 PUSH1 0x20 DUP3 DUP5 SUB SLT ISZERO PUSH2 0x232 JUMPI PUSH2 0x231 PUSH2 0x1BF JUMP JUMPDEST JUMPDEST PUSH0 PUSH2 0x23F DUP5 DUP3 DUP6 ADD PUSH2 0x209 JUMP JUMPDEST SWAP2 POP POP SWAP3 SWAP2 POP POP JUMP JUMPDEST PUSH2 0x251 DUP2 PUSH2 0x1E2 JUMP JUMPDEST DUP3 MSTORE POP POP JUMP JUMPDEST PUSH0 PUSH1 0x20 DUP3 ADD SWAP1 POP PUSH2 0x26A PUSH0 DUP4 ADD DUP5 PUSH2 0x248 JUMP JUMPDEST SWAP3 SWAP2 POP POP JUMP JUMPDEST PUSH1 0x80 MLOAD PUSH2 0xCD4 PUSH2 0x296 PUSH0 CODECOPY PUSH0 DUP2 DUP2 PUSH2 0x280 ADD MSTORE DUP2 DUP2 PUSH2 0x41C ADD MSTORE PUSH2 0x6E5 ADD MSTORE PUSH2 0xCD4 PUSH0 RETURN INVALID PUSH1 0x80 PUSH1 0x40 MSTORE CALLVALUE DUP1 ISZERO PUSH2 0xF JUMPI PUSH0 PUSH0 REVERT JUMPDEST POP PUSH1 0x4 CALLDATASIZE LT PUSH2 0xB2 JUMPI PUSH0 CALLDATALOAD PUSH1 0xE0 SHR DUP1 PUSH4 0xB4A36CA2 GT PUSH2 0x6F JUMPI DUP1 PUSH4 0xB4A36CA2 EQ PUSH2 0x164 JUMPI DUP1 PUSH4 0xB88A802F EQ PUSH2 0x182 JUMPI DUP1 PUSH4 0xDF5C937C EQ PUSH2 0x18C JUMPI DUP1 PUSH4 0xF2FDE38B EQ PUSH2 0x196 JUMPI DUP1 PUSH4 0xF7B2A7BE EQ PUSH2 0x1B2 JUMPI DUP1 PUSH4 0xF7C618C1 EQ PUSH2 0x1D0 JUMPI PUSH2 0xB2 JUMP JUMPDEST DUP1 PUSH4 0xD310E5A EQ PUSH2 0xB6 JUMPI DUP1 PUSH4 0x293BE456 EQ PUSH2 0xD2 JUMPI DUP1 PUSH4 0x715018A6 EQ PUSH2 0xEE JUMPI DUP1 PUSH4 0x8DA5CB5B EQ PUSH2 0xF8 JUMPI DUP1 PUSH4 0x99E6DA34 EQ PUSH2 0x116 JUMPI DUP1 PUSH4 0xABE73EF5 EQ PUSH2 0x148 JUMPI JUMPDEST PUSH0 PUSH0 REVERT JUMPDEST PUSH2 0xD0 PUSH1 0x4 DUP1 CALLDATASIZE SUB DUP2 ADD SWAP1 PUSH2 0xCB SWAP2 SWAP1 PUSH2 0x88D JUMP JUMPDEST PUSH2 0x1EE JUMP JUMPDEST STOP JUMPDEST PUSH2 0xEC PUSH1 0x4 DUP1 CALLDATASIZE SUB DUP2 ADD SWAP1 PUSH2 0xE7 SWAP2 SWAP1 PUSH2 0x88D JUMP JUMPDEST PUSH2 0x200 JUMP JUMPDEST STOP JUMPDEST PUSH2 0xF6 PUSH2 0x212 JUMP JUMPDEST STOP JUMPDEST PUSH2 0x100 PUSH2 0x225 JUMP JUMPDEST PUSH1 0x40 MLOAD PUSH2 0x10D SWAP2 SWAP1 PUSH2 0x8F7 JUMP JUMPDEST PUSH1 0x40 MLOAD DUP1 SWAP2 SUB SWAP1 RETURN JUMPDEST PUSH2 0x130 PUSH1 0x4 DUP1 CALLDATASIZE SUB DUP2 ADD SWAP1 PUSH2 0x12B SWAP2 SWAP1 PUSH2 0x93A JUMP JUMPDEST PUSH2 0x24C JUMP JUMPDEST PUSH1 0x40 MLOAD PUSH2 0x13F SWAP4 SWAP3 SWAP2 SWAP1 PUSH2 0x98E JUMP JUMPDEST PUSH1 0x40 MLOAD DUP1 SWAP2 SUB SWAP1 RETURN JUMPDEST PUSH2 0x162 PUSH1 0x4 DUP1 CALLDATASIZE SUB DUP2 ADD SWAP1 PUSH2 0x15D SWAP2 SWAP1 PUSH2 0x88D JUMP JUMPDEST PUSH2 0x27E JUMP JUMPDEST STOP JUMPDEST PUSH2 0x16C PUSH2 0x31F JUMP JUMPDEST PUSH1 0x40 MLOAD PUSH2 0x179 SWAP2 SWAP1 PUSH2 0x9C3 JUMP JUMPDEST PUSH1 0x40 MLOAD DUP1 SWAP2 SUB SWAP1 RETURN JUMPDEST PUSH2 0x18A PUSH2 0x325 JUMP JUMPDEST STOP JUMPDEST PUSH2 0x194 PUSH2 0x50B JUMP JUMPDEST STOP JUMPDEST PUSH2 0x1B0 PUSH1 0x4 DUP1 CALLDATASIZE SUB DUP2 ADD SWAP1 PUSH2 0x1AB SWAP2 SWAP1 PUSH2 0x93A JUMP JUMPDEST PUSH2 0x659 JUMP JUMPDEST STOP JUMPDEST PUSH2 0x1BA PUSH2 0x6DD JUMP JUMPDEST PUSH1 0x40 MLOAD PUSH2 0x1C7 SWAP2 SWAP1 PUSH2 0x9C3 JUMP JUMPDEST PUSH1 0x40 MLOAD DUP1 SWAP2 SUB SWAP1 RETURN JUMPDEST PUSH2 0x1D8 PUSH2 0x6E3 JUMP JUMPDEST PUSH1 0x40 MLOAD PUSH2 0x1E5 SWAP2 SWAP1 PUSH2 0xA37 JUMP JUMPDEST PUSH1 0x40 MLOAD DUP1 SWAP2 SUB SWAP1 RETURN JUMPDEST PUSH2 0x1F6 PUSH2 0x707 JUMP JUMPDEST DUP1 PUSH1 0x2 DUP2 SWAP1 SSTORE POP POP JUMP JUMPDEST PUSH2 0x208 PUSH2 0x707 JUMP JUMPDEST DUP1 PUSH1 0x3 DUP2 SWAP1 SSTORE POP POP JUMP JUMPDEST PUSH2 0x21A PUSH2 0x707 JUMP JUMPDEST PUSH2 0x223 PUSH0 PUSH2 0x78E JUMP JUMPDEST JUMP JUMPDEST PUSH0 PUSH0 PUSH0 SWAP1 SLOAD SWAP1 PUSH2 0x100 EXP SWAP1 DIV PUSH20 0xFFFFFFFFFFFFFFFFFFFFFFFFFFFFFFFFFFFFFFFF AND SWAP1 POP SWAP1 JUMP JUMPDEST PUSH1 0x1 PUSH1 0x20 MSTORE DUP1 PUSH0 MSTORE PUSH1 0x40 PUSH0 KECCAK256 PUSH0 SWAP2 POP SWAP1 POP DUP1 PUSH0 ADD SLOAD SWAP1 DUP1 PUSH1 0x1 ADD SLOAD SWAP1 DUP1 PUSH1 0x2 ADD PUSH0 SWAP1 SLOAD SWAP1 PUSH2 0x100 EXP SWAP1 DIV PUSH1 0xFF AND SWAP1 POP DUP4 JUMP JUMPDEST PUSH32 0x0 PUSH20 0xFFFFFFFFFFFFFFFFFFFFFFFFFFFFFFFFFFFFFFFF AND PUSH4 0x23B872DD CALLER ADDRESS DUP5 PUSH1 0x40 MLOAD DUP5 PUSH4 0xFFFFFFFF AND PUSH1 0xE0 SHL DUP2 MSTORE PUSH1 0x4 ADD PUSH2 0x2DB SWAP4 SWAP3 SWAP2 SWAP1 PUSH2 0xA50 JUMP JUMPDEST PUSH1 0x20 PUSH1 0x40 MLOAD DUP1 DUP4 SUB DUP2 PUSH0 DUP8 GAS CALL ISZERO DUP1 ISZERO PUSH2 0x2F7 JUMPI RETURNDATASIZE PUSH0 PUSH0 RETURNDATACOPY RETURNDATASIZE PUSH0 REVERT JUMPDEST POP POP POP POP PUSH1 0x40 MLOAD RETURNDATASIZE PUSH1 0x1F NOT PUSH1 0x1F DUP3 ADD AND DUP3 ADD DUP1 PUSH1 0x40 MSTORE POP DUP2 ADD SWAP1 PUSH2 0x31B SWAP2 SWAP1 PUSH2 0xAAF JUMP JUMPDEST POP POP JUMP JUMPDEST PUSH1 0x2 SLOAD DUP2 JUMP JUMPDEST PUSH0 PUSH1 0x1 PUSH0 CALLER PUSH20 0xFFFFFFFFFFFFFFFFFFFFFFFFFFFFFFFFFFFFFFFF AND PUSH20 0xFFFFFFFFFFFFFFFFFFFFFFFFFFFFFFFFFFFFFFFF AND DUP2 MSTORE PUSH1 0x20 ADD SWAP1 DUP2 MSTORE PUSH1 0x20 ADD PUSH0 KECCAK256 SWAP1 POP DUP1 PUSH1 0x2 ADD PUSH0 SWAP1 SLOAD SWAP1 PUSH2 0x100 EXP SWAP1 DIV PUSH1 0xFF AND ISZERO PUSH2 0x3B6 JUMPI PUSH1 0x40 MLOAD PUSH32 0x8C379A000000000000000000000000000000000000000000000000000000000 DUP2 MSTORE PUSH1 0x4 ADD PUSH2 0x3AD SWAP1 PUSH2 0xB34 JUMP JUMPDEST PUSH1 0x40 MLOAD DUP1 SWAP2 SUB SWAP1 REVERT JUMPDEST PUSH1 0x2 SLOAD DUP2 PUSH0 ADD SLOAD LT ISZERO PUSH2 0x3FE JUMPI PUSH1 0x40 MLOAD PUSH32 0x8C379A000000000000000000000000000000000000000000000000000000000 DUP2 MSTORE PUSH1 0x4 ADD PUSH2 0x3F5 SWAP1 PUSH2 0xB9C JUMP JUMPDEST PUSH1 0x40 MLOAD DUP1 SWAP2 SUB SWAP1 REVERT JUMPDEST PUSH1 0x1 DUP2 PUSH1 0x2 ADD PUSH0 PUSH2 0x100 EXP DUP2 SLOAD DUP2 PUSH1 0xFF MUL NOT AND SWAP1 DUP4 ISZERO ISZERO MUL OR SWAP1 SSTORE POP PUSH32 0x0 PUSH20 0xFFFFFFFFFFFFFFFFFFFFFFFFFFFFFFFFFFFFFFFF AND PUSH4 0xA9059CBB CALLER PUSH1 0x3 SLOAD PUSH1 0x40 MLOAD DUP4 PUSH4 0xFFFFFFFF AND PUSH1 0xE0 SHL DUP2 MSTORE PUSH1 0x4 ADD PUSH2 0x477 SWAP3 SWAP2 SWAP1 PUSH2 0xBBA JUMP JUMPDEST PUSH1 0x20 PUSH1 0x40 MLOAD DUP1 DUP4 SUB DUP2 PUSH0 DUP8 GAS CALL ISZERO DUP1 ISZERO PUSH2 0x493 JUMPI RETURNDATASIZE PUSH0 PUSH0 RETURNDATACOPY RETURNDATASIZE PUSH0 REVERT JUMPDEST POP POP POP POP PUSH1 0x40 MLOAD RETURNDATASIZE PUSH1 0x1F NOT PUSH1 0x1F DUP3 ADD AND DUP3 ADD DUP1 PUSH1 0x40 MSTORE POP DUP2 ADD SWAP1 PUSH2 0x4B7 SWAP2 SWAP1 PUSH2 0xAAF JUMP JUMPDEST POP CALLER PUSH20 0xFFFFFFFFFFFFFFFFFFFFFFFFFFFFFFFFFFFFFFFF AND PUSH32 0x106F923F993C2149D49B4255FF723ACAFA1F2D94393F561D3EDA32AE348F7241 PUSH1 0x3 SLOAD PUSH1 0x40 MLOAD PUSH2 0x500 SWAP2 SWAP1 PUSH2 0x9C3 JUMP JUMPDEST PUSH1 0x40 MLOAD DUP1 SWAP2 SUB SWAP1 LOG2 POP JUMP JUMPDEST PUSH0 PUSH3 0x15180 TIMESTAMP PUSH2 0x51B SWAP2 SWAP1 PUSH2 0xC3B JUMP JUMPDEST SWAP1 POP PUSH0 PUSH1 0x1 PUSH0 CALLER PUSH20 0xFFFFFFFFFFFFFFFFFFFFFFFFFFFFFFFFFFFFFFFF AND PUSH20 0xFFFFFFFFFFFFFFFFFFFFFFFFFFFFFFFFFFFFFFFF AND DUP2 MSTORE PUSH1 0x20 ADD SWAP1 DUP2 MSTORE PUSH1 0x20 ADD PUSH0 KECCAK256 SWAP1 POP DUP1 PUSH1 0x2 ADD PUSH0 SWAP1 SLOAD SWAP1 PUSH2 0x100 EXP SWAP1 DIV PUSH1 0xFF AND ISZERO PUSH2 0x5AE JUMPI PUSH1 0x40 MLOAD PUSH32 0x8C379A000000000000000000000000000000000000000000000000000000000 DUP2 MSTORE PUSH1 0x4 ADD PUSH2 0x5A5 SWAP1 PUSH2 0xB34 JUMP JUMPDEST PUSH1 0x40 MLOAD DUP1 SWAP2 SUB SWAP1 REVERT JUMPDEST DUP2 DUP2 PUSH1 0x1 ADD SLOAD LT ISZERO PUSH2 0x604 JUMPI DUP2 PUSH1 0x1 DUP3 PUSH1 0x1 ADD SLOAD PUSH2 0x5CC SWAP2 SWAP1 PUSH2 0xC6B JUMP JUMPDEST SUB PUSH2 0x5F0 JUMPI PUSH1 0x1 DUP2 PUSH0 ADD PUSH0 DUP3 DUP3 SLOAD PUSH2 0x5E4 SWAP2 SWAP1 PUSH2 0xC6B JUMP JUMPDEST SWAP3 POP POP DUP2 SWAP1 SSTORE POP PUSH2 0x5FA JUMP JUMPDEST PUSH1 0x1 DUP2 PUSH0 ADD DUP2 SWAP1 SSTORE POP JUMPDEST DUP2 DUP2 PUSH1 0x1 ADD DUP2 SWAP1 SSTORE POP JUMPDEST CALLER PUSH20 0xFFFFFFFFFFFFFFFFFFFFFFFFFFFFFFFFFFFFFFFF AND PUSH32 0x855D55D778EAEC76FF07AC75F120E5843C0BAAAF8DA265D6B5A32185663B80DA DUP3 PUSH0 ADD SLOAD PUSH1 0x40 MLOAD PUSH2 0x64D SWAP2 SWAP1 PUSH2 0x9C3 JUMP JUMPDEST PUSH1 0x40 MLOAD DUP1 SWAP2 SUB SWAP1 LOG2 POP POP JUMP JUMPDEST PUSH2 0x661 PUSH2 0x707 JUMP JUMPDEST PUSH0 PUSH20 0xFFFFFFFFFFFFFFFFFFFFFFFFFFFFFFFFFFFFFFFF AND DUP2 PUSH20 0xFFFFFFFFFFFFFFFFFFFFFFFFFFFFFFFFFFFFFFFF AND SUB PUSH2 0x6D1 JUMPI PUSH0 PUSH1 0x40 MLOAD PUSH32 0x1E4FBDF700000000000000000000000000000000000000000000000000000000 DUP2 MSTORE PUSH1 0x4 ADD PUSH2 0x6C8 SWAP2 SWAP1 PUSH2 0x8F7 JUMP JUMPDEST PUSH1 0x40 MLOAD DUP1 SWAP2 SUB SWAP1 REVERT JUMPDEST PUSH2 0x6DA DUP2 PUSH2 0x78E JUMP JUMPDEST POP JUMP JUMPDEST PUSH1 0x3 SLOAD DUP2 JUMP JUMPDEST PUSH32 0x0 DUP2 JUMP JUMPDEST PUSH2 0x70F PUSH2 0x84F JUMP JUMPDEST PUSH20 0xFFFFFFFFFFFFFFFFFFFFFFFFFFFFFFFFFFFFFFFF AND PUSH2 0x72D PUSH2 0x225 JUMP JUMPDEST PUSH20 0xFFFFFFFFFFFFFFFFFFFFFFFFFFFFFFFFFFFFFFFF AND EQ PUSH2 0x78C JUMPI PUSH2 0x750 PUSH2 0x84F JUMP JUMPDEST PUSH1 0x40 MLOAD PUSH32 0x118CDAA700000000000000000000000000000000000000000000000000000000 DUP2 MSTORE PUSH1 0x4 ADD PUSH2 0x783 SWAP2 SWAP1 PUSH2 0x8F7 JUMP JUMPDEST PUSH1 0x40 MLOAD DUP1 SWAP2 SUB SWAP1 REVERT JUMPDEST JUMP JUMPDEST PUSH0 PUSH0 PUSH0 SWAP1 SLOAD SWAP1 PUSH2 0x100 EXP SWAP1 DIV PUSH20 0xFFFFFFFFFFFFFFFFFFFFFFFFFFFFFFFFFFFFFFFF AND SWAP1 POP DUP2 PUSH0 PUSH0 PUSH2 0x100 EXP DUP2 SLOAD DUP2 PUSH20 0xFFFFFFFFFFFFFFFFFFFFFFFFFFFFFFFFFFFFFFFF MUL NOT AND SWAP1 DUP4 PUSH20 0xFFFFFFFFFFFFFFFFFFFFFFFFFFFFFFFFFFFFFFFF AND MUL OR SWAP1 SSTORE POP DUP2 PUSH20 0xFFFFFFFFFFFFFFFFFFFFFFFFFFFFFFFFFFFFFFFF AND DUP2 PUSH20 0xFFFFFFFFFFFFFFFFFFFFFFFFFFFFFFFFFFFFFFFF AND PUSH32 0x8BE0079C531659141344CD1FD0A4F28419497F9722A3DAAFE3B4186F6B6457E0 PUSH1 0x40 MLOAD PUSH1 0x40 MLOAD DUP1 SWAP2 SUB SWAP1 LOG3 POP POP JUMP JUMPDEST PUSH0 CALLER SWAP1 POP SWAP1 JUMP JUMPDEST PUSH0 PUSH0 REVERT JUMPDEST PUSH0 DUP2 SWAP1 POP SWAP2 SWAP1 POP JUMP JUMPDEST PUSH2 0x86C DUP2 PUSH2 0x85A JUMP JUMPDEST DUP2 EQ PUSH2 0x876 JUMPI PUSH0 PUSH0 REVERT JUMPDEST POP JUMP JUMPDEST PUSH0 DUP2 CALLDATALOAD SWAP1 POP PUSH2 0x887 DUP2 PUSH2 0x863 JUMP JUMPDEST SWAP3 SWAP2 POP POP JUMP JUMPDEST PUSH0 PUSH1 0x20 DUP3 DUP5 SUB SLT ISZERO PUSH2 0x8A2 JUMPI PUSH2 0x8A1 PUSH2 0x856 JUMP JUMPDEST JUMPDEST PUSH0 PUSH2 0x8AF DUP5 DUP3 DUP6 ADD PUSH2 0x879 JUMP JUMPDEST SWAP2 POP POP SWAP3 SWAP2 POP POP JUMP JUMPDEST PUSH0 PUSH20 0xFFFFFFFFFFFFFFFFFFFFFFFFFFFFFFFFFFFFFFFF DUP3 AND SWAP1 POP SWAP2 SWAP1 POP JUMP JUMPDEST PUSH0 PUSH2 0x8E1 DUP3 PUSH2 0x8B8 JUMP JUMPDEST SWAP1 POP SWAP2 SWAP1 POP JUMP JUMPDEST PUSH2 0x8F1 DUP2 PUSH2 0x8D7 JUMP JUMPDEST DUP3 MSTORE POP POP JUMP JUMPDEST PUSH0 PUSH1 0x20 DUP3 ADD SWAP1 POP PUSH2 0x90A PUSH0 DUP4 ADD DUP5 PUSH2 0x8E8 JUMP JUMPDEST SWAP3 SWAP2 POP POP JUMP JUMPDEST PUSH2 0x919 DUP2 PUSH2 0x8D7 JUMP JUMPDEST DUP2 EQ PUSH2 0x923 JUMPI PUSH0 PUSH0 REVERT JUMPDEST POP JUMP JUMPDEST PUSH0 DUP2 CALLDATALOAD SWAP1 POP PUSH2 0x934 DUP2 PUSH2 0x910 JUMP JUMPDEST SWAP3 SWAP2 POP POP JUMP JUMPDEST PUSH0 PUSH1 0x20 DUP3 DUP5 SUB SLT ISZERO PUSH2 0x94F JUMPI PUSH2 0x94E PUSH2 0x856 JUMP JUMPDEST JUMPDEST PUSH0 PUSH2 0x95C DUP5 DUP3 DUP6 ADD PUSH2 0x926 JUMP JUMPDEST SWAP2 POP POP SWAP3 SWAP2 POP POP JUMP JUMPDEST PUSH2 0x96E DUP2 PUSH2 0x85A JUMP JUMPDEST DUP3 MSTORE POP POP JUMP JUMPDEST PUSH0 DUP2 ISZERO ISZERO SWAP1 POP SWAP2 SWAP1 POP JUMP JUMPDEST PUSH2 0x988 DUP2 PUSH2 0x974 JUMP JUMPDEST DUP3 MSTORE POP POP JUMP JUMPDEST PUSH0 PUSH1 0x60 DUP3 ADD SWAP1 POP PUSH2 0x9A1 PUSH0 DUP4 ADD DUP7 PUSH2 0x965 JUMP JUMPDEST PUSH2 0x9AE PUSH1 0x20 DUP4 ADD DUP6 PUSH2 0x965 JUMP JUMPDEST PUSH2 0x9BB PUSH1 0x40 DUP4 ADD DUP5 PUSH2 0x97F JUMP JUMPDEST SWAP5 SWAP4 POP POP POP POP JUMP JUMPDEST PUSH0 PUSH1 0x20 DUP3 ADD SWAP1 POP PUSH2 0x9D6 PUSH0 DUP4 ADD DUP5 PUSH2 0x965 JUMP JUMPDEST SWAP3 SWAP2 POP POP JUMP JUMPDEST PUSH0 DUP2 SWAP1 POP SWAP2 SWAP1 POP JUMP JUMPDEST PUSH0 PUSH2 0x9FF PUSH2 0x9FA PUSH2 0x9F5 DUP5 PUSH2 0x8B8 JUMP JUMPDEST PUSH2 0x9DC JUMP JUMPDEST PUSH2 0x8B8 JUMP JUMPDEST SWAP1 POP SWAP2 SWAP1 POP JUMP JUMPDEST PUSH0 PUSH2 0xA10 DUP3 PUSH2 0x9E5 JUMP JUMPDEST SWAP1 POP SWAP2 SWAP1 POP JUMP JUMPDEST PUSH0 PUSH2 0xA21 DUP3 PUSH2 0xA06 JUMP JUMPDEST SWAP1 POP SWAP2 SWAP1 POP JUMP JUMPDEST PUSH2 0xA31 DUP2 PUSH2 0xA17 JUMP JUMPDEST DUP3 MSTORE POP POP JUMP JUMPDEST PUSH0 PUSH1 0x20 DUP3 ADD SWAP1 POP PUSH2 0xA4A PUSH0 DUP4 ADD DUP5 PUSH2 0xA28 JUMP JUMPDEST SWAP3 SWAP2 POP POP JUMP JUMPDEST PUSH0 PUSH1 0x60 DUP3 ADD SWAP1 POP PUSH2 0xA63 PUSH0 DUP4 ADD DUP7 PUSH2 0x8E8 JUMP JUMPDEST PUSH2 0xA70 PUSH1 0x20 DUP4 ADD DUP6 PUSH2 0x8E8 JUMP JUMPDEST PUSH2 0xA7D PUSH1 0x40 DUP4 ADD DUP5 PUSH2 0x965 JUMP JUMPDEST SWAP5 SWAP4 POP POP POP POP JUMP JUMPDEST PUSH2 0xA8E DUP2 PUSH2 0x974 JUMP JUMPDEST DUP2 EQ PUSH2 0xA98 JUMPI PUSH0 PUSH0 REVERT JUMPDEST POP JUMP JUMPDEST PUSH0 DUP2 MLOAD SWAP1 POP PUSH2 0xAA9 DUP2 PUSH2 0xA85 JUMP JUMPDEST SWAP3 SWAP2 POP POP JUMP JUMPDEST PUSH0 PUSH1 0x20 DUP3 DUP5 SUB SLT ISZERO PUSH2 0xAC4 JUMPI PUSH2 0xAC3 PUSH2 0x856 JUMP JUMPDEST JUMPDEST PUSH0 PUSH2 0xAD1 DUP5 DUP3 DUP6 ADD PUSH2 0xA9B JUMP JUMPDEST SWAP2 POP POP SWAP3 SWAP2 POP POP JUMP JUMPDEST PUSH0 DUP3 DUP3 MSTORE PUSH1 0x20 DUP3 ADD SWAP1 POP SWAP3 SWAP2 POP POP JUMP JUMPDEST PUSH32 0x416C726561647920636C61696D65640000000000000000000000000000000000 PUSH0 DUP3 ADD MSTORE POP JUMP JUMPDEST PUSH0 PUSH2 0xB1E PUSH1 0xF DUP4 PUSH2 0xADA JUMP JUMPDEST SWAP2 POP PUSH2 0xB29 DUP3 PUSH2 0xAEA JUMP JUMPDEST PUSH1 0x20 DUP3 ADD SWAP1 POP SWAP2 SWAP1 POP JUMP JUMPDEST PUSH0 PUSH1 0x20 DUP3 ADD SWAP1 POP DUP2 DUP2 SUB PUSH0 DUP4 ADD MSTORE PUSH2 0xB4B DUP2 PUSH2 0xB12 JUMP JUMPDEST SWAP1 POP SWAP2 SWAP1 POP JUMP JUMPDEST PUSH32 0x53747265616B206E6F7420636F6D706C65746500000000000000000000000000 PUSH0 DUP3 ADD MSTORE POP JUMP JUMPDEST PUSH0 PUSH2 0xB86 PUSH1 0x13 DUP4 PUSH2 0xADA JUMP JUMPDEST SWAP2 POP PUSH2 0xB91 DUP3 PUSH2 0xB52 JUMP JUMPDEST PUSH1 0x20 DUP3 ADD SWAP1 POP SWAP2 SWAP1 POP JUMP JUMPDEST PUSH0 PUSH1 0x20 DUP3 ADD SWAP1 POP DUP2 DUP2 SUB PUSH0 DUP4 ADD MSTORE PUSH2 0xBB3 DUP2 PUSH2 0xB7A JUMP JUMPDEST SWAP1 POP SWAP2 SWAP1 POP JUMP JUMPDEST PUSH0 PUSH1 0x40 DUP3 ADD SWAP1 POP PUSH2 0xBCD PUSH0 DUP4 ADD DUP6 PUSH2 0x8E8 JUMP JUMPDEST PUSH2 0xBDA PUSH1 0x20 DUP4 ADD DUP5 PUSH2 0x965 JUMP JUMPDEST SWAP4 SWAP3 POP POP POP JUMP JUMPDEST PUSH32 0x4E487B7100000000000000000000000000000000000000000000000000000000 PUSH0 MSTORE PUSH1 0x12 PUSH1 0x4 MSTORE PUSH1 0x24 PUSH0 REVERT JUMPDEST PUSH32 0x4E487B7100000000000000000000000000000000000000000000000000000000 PUSH0 MSTORE PUSH1 0x11 PUSH1 0x4 MSTORE PUSH1 0x24 PUSH0 REVERT JUMPDEST PUSH0 PUSH2 0xC45 DUP3 PUSH2 0x85A JUMP JUMPDEST SWAP2 POP PUSH2 0xC50 DUP4 PUSH2 0x85A JUMP JUMPDEST SWAP3 POP DUP3 PUSH2 0xC60 JUMPI PUSH2 0xC5F PUSH2 0xBE1 JUMP JUMPDEST JUMPDEST DUP3 DUP3 DIV SWAP1 POP SWAP3 SWAP2 POP POP JUMP JUMPDEST PUSH0 PUSH2 0xC75 DUP3 PUSH2 0x85A JUMP JUMPDEST SWAP2 POP PUSH2 0xC80 DUP4 PUSH2 0x85A JUMP JUMPDEST SWAP3 POP DUP3 DUP3 ADD SWAP1 POP DUP1 DUP3 GT ISZERO PUSH2 0xC98 JUMPI PUSH2 0xC97 PUSH2 0xC0E JUMP JUMPDEST JUMPDEST SWAP3 SWAP2 POP POP JUMP INVALID LOG2 PUSH5 0x6970667358 0x22 SLT KECCAK256 0x1F 0xC3 0xAF CALLDATASIZE PUSH20 0x6F56E8C5E057E6C2B9A7153D4C27047FD8702A1F DUP13 0xBA RETURNDATACOPY DELEGATECALL CALL CALLDATALOAD 0x2E PUSH5 0x736F6C6343 STOP ADDMOD 0x1E STOP CALLER "
		},
		"gasEstimates": {
			"creation": {
				"codeDepositCost": "656800",
				"executionCost": "infinite",
				"totalCost": "infinite"
			},
			"external": {
				"claimReward()": "infinite",
				"fundVault(uint256)": "infinite",
				"owner()": "2581",
				"pingActivity()": "infinite",
				"renounceOwnership()": "infinite",
				"requiredStreak()": "2425",
				"rewardAmount()": "2513",
				"rewardToken()": "infinite",
				"setRequiredStreak(uint256)": "infinite",
				"setReward(uint256)": "infinite",
				"transferOwnership(address)": "infinite",
				"userActivity(address)": "infinite"
			}
		},
		"methodIdentifiers": {
			"claimReward()": "b88a802f",
			"fundVault(uint256)": "abe73ef5",
			"owner()": "8da5cb5b",
			"pingActivity()": "df5c937c",
			"renounceOwnership()": "715018a6",
			"requiredStreak()": "b4a36ca2",
			"rewardAmount()": "f7b2a7be",
			"rewardToken()": "f7c618c1",
			"setRequiredStreak(uint256)": "0d310e5a",
			"setReward(uint256)": "293be456",
			"transferOwnership(address)": "f2fde38b",
			"userActivity(address)": "99e6da34"
		}
	},
	"abi": [
		{
			"inputs": [
				{
					"internalType": "address",
					"name": "_rewardToken",
					"type": "address"
				}
			],
			"stateMutability": "nonpayable",
			"type": "constructor"
		},
		{
			"inputs": [
				{
					"internalType": "address",
					"name": "owner",
					"type": "address"
				}
			],
			"name": "OwnableInvalidOwner",
			"type": "error"
		},
		{
			"inputs": [
				{
					"internalType": "address",
					"name": "account",
					"type": "address"
				}
			],
			"name": "OwnableUnauthorizedAccount",
			"type": "error"
		},
		{
			"anonymous": false,
			"inputs": [
				{
					"indexed": true,
					"internalType": "address",
					"name": "user",
					"type": "address"
				},
				{
					"indexed": false,
					"internalType": "uint256",
					"name": "streak",
					"type": "uint256"
				}
			],
			"name": "ActivityPing",
			"type": "event"
		},
		{
			"anonymous": false,
			"inputs": [
				{
					"indexed": true,
					"internalType": "address",
					"name": "previousOwner",
					"type": "address"
				},
				{
					"indexed": true,
					"internalType": "address",
					"name": "newOwner",
					"type": "address"
				}
			],
			"name": "OwnershipTransferred",
			"type": "event"
		},
		{
			"anonymous": false,
			"inputs": [
				{
					"indexed": true,
					"internalType": "address",
					"name": "user",
					"type": "address"
				},
				{
					"indexed": false,
					"internalType": "uint256",
					"name": "amount",
					"type": "uint256"
				}
			],
			"name": "RewardClaimed",
			"type": "event"
		},
		{
			"inputs": [],
			"name": "claimReward",
			"outputs": [],
			"stateMutability": "nonpayable",
			"type": "function"
		},
		{
			"inputs": [
				{
					"internalType": "uint256",
					"name": "amount",
					"type": "uint256"
				}
			],
			"name": "fundVault",
			"outputs": [],
			"stateMutability": "nonpayable",
			"type": "function"
		},
		{
			"inputs": [],
			"name": "owner",
			"outputs": [
				{
					"internalType": "address",
					"name": "",
					"type": "address"
				}
			],
			"stateMutability": "view",
			"type": "function"
		},
		{
			"inputs": [],
			"name": "pingActivity",
			"outputs": [],
			"stateMutability": "nonpayable",
			"type": "function"
		},
		{
			"inputs": [],
			"name": "renounceOwnership",
			"outputs": [],
			"stateMutability": "nonpayable",
			"type": "function"
		},
		{
			"inputs": [],
			"name": "requiredStreak",
			"outputs": [
				{
					"internalType": "uint256",
					"name": "",
					"type": "uint256"
				}
			],
			"stateMutability": "view",
			"type": "function"
		},
		{
			"inputs": [],
			"name": "rewardAmount",
			"outputs": [
				{
					"internalType": "uint256",
					"name": "",
					"type": "uint256"
				}
			],
			"stateMutability": "view",
			"type": "function"
		},
		{
			"inputs": [],
			"name": "rewardToken",
			"outputs": [
				{
					"internalType": "contract IERC20",
					"name": "",
					"type": "address"
				}
			],
			"stateMutability": "view",
			"type": "function"
		},
		{
			"inputs": [
				{
					"internalType": "uint256",
					"name": "_streak",
					"type": "uint256"
				}
			],
			"name": "setRequiredStreak",
			"outputs": [],
			"stateMutability": "nonpayable",
			"type": "function"
		},
		{
			"inputs": [
				{
					"internalType": "uint256",
					"name": "_amount",
					"type": "uint256"
				}
			],
			"name": "setReward",
			"outputs": [],
			"stateMutability": "nonpayable",
			"type": "function"
		},
		{
			"inputs": [
				{
					"internalType": "address",
					"name": "newOwner",
					"type": "address"
				}
			],
			"name": "transferOwnership",
			"outputs": [],
			"stateMutability": "nonpayable",
			"type": "function"
		},
		{
			"inputs": [
				{
					"internalType": "address",
					"name": "",
					"type": "address"
				}
			],
			"name": "userActivity",
			"outputs": [
				{
					"internalType": "uint256",
					"name": "streak",
					"type": "uint256"
				},
				{
					"internalType": "uint256",
					"name": "lastActiveDay",
					"type": "uint256"
				},
				{
					"internalType": "bool",
					"name": "claimed",
					"type": "bool"
				}
			],
			"stateMutability": "view",
			"type": "function"
		}
	]
}