{
	"data": {
		"bytecode": {
			"linkReferences": {},
			"object": "6080604052671bc16d674ec80000600255674563918244f40000600355348015610027575f80fd5b50604051610d6c380380610d6c8339818101604052810190610049919061012c565b805f806101000a81548173ffffffffffffffffffffffffffffffffffffffff021916908373ffffffffffffffffffffffffffffffffffffffff1602179055503360015f6101000a81548173ffffffffffffffffffffffffffffffffffffffff021916908373ffffffffffffffffffffffffffffffffffffffff16021790555050610157565b5f80fd5b5f73ffffffffffffffffffffffffffffffffffffffff82169050919050565b5f6100fb826100d2565b9050919050565b61010b816100f1565b8114610115575f80fd5b50565b5f8151905061012681610102565b92915050565b5f60208284031215610141576101406100ce565b5b5f61014e84828501610118565b91505092915050565b610c08806101645f395ff3fe608060405234801561000f575f80fd5b5060043610610086575f3560e01c806353a04b051161005957806353a04b05146100ee57806371e8fb571461010a5780637882bf7e146101285780638da5cb5b1461014657610086565b80630c76316d1461008a578063228cb733146100945780633a4b66f1146100b25780634ba2363a146100d0575b5f80fd5b610092610164565b005b61009c6102bf565b6040516100a99190610638565b60405180910390f35b6100ba6102c5565b6040516100c79190610638565b60405180910390f35b6100d86102cb565b6040516100e59190610638565b60405180910390f35b6101086004803603810190610103919061068b565b6102d1565b005b6101126105cf565b60405161011f9190610638565b60405180910390f35b6101306105d8565b60405161013d9190610730565b60405180910390f35b61014e6105fb565b60405161015b9190610769565b60405180910390f35b60015f9054906101000a900473ffffffffffffffffffffffffffffffffffffffff1673ffffffffffffffffffffffffffffffffffffffff163373ffffffffffffffffffffffffffffffffffffffff16146101f3576040517f08c379a00000000000000000000000000000000000000000000000000000000081526004016101ea906107dc565b60405180910390fd5b5f60045490505f6004819055505f8054906101000a900473ffffffffffffffffffffffffffffffffffffffff1673ffffffffffffffffffffffffffffffffffffffff1663a9059cbb60015f9054906101000a900473ffffffffffffffffffffffffffffffffffffffff16836040518363ffffffff1660e01b815260040161027b9291906107fa565b6020604051808303815f875af1158015610297573d5f803e3d5ffd5b505050506040513d601f19601f820116820180604052508101906102bb9190610856565b5050565b60035481565b60025481565b60045481565b60018160ff16101580156102e95750600a8160ff1611155b610328576040517f08c379a000000000000000000000000000000000000000000000000000000000815260040161031f906108cb565b60405180910390fd5b5f8054906101000a900473ffffffffffffffffffffffffffffffffffffffff1673ffffffffffffffffffffffffffffffffffffffff166323b872dd33306002546040518463ffffffff1660e01b8152600401610386939291906108e9565b6020604051808303815f875af11580156103a2573d5f803e3d5ffd5b505050506040513d601f19601f820116820180604052508101906103c69190610856565b610405576040517f08c379a00000000000000000000000000000000000000000000000000000000081526004016103fc90610968565b60405180910390fd5b60025460045f82825461041891906109b3565b925050819055505f6001600a42334460405160200161043993929190610a4b565b604051602081830303815290604052805190602001205f1c61045b9190610ab4565b61046591906109b3565b90505f8160ff168360ff1614905080156105785760035460045410156104c0576040517f08c379a00000000000000000000000000000000000000000000000000000000081526004016104b790610b2e565b60405180910390fd5b5f8054906101000a900473ffffffffffffffffffffffffffffffffffffffff1673ffffffffffffffffffffffffffffffffffffffff1663a9059cbb336003546040518363ffffffff1660e01b815260040161051c9291906107fa565b6020604051808303815f875af1158015610538573d5f803e3d5ffd5b505050506040513d601f19601f8201168201806040525081019061055c9190610856565b5060035460045f8282546105709190610b4c565b925050819055505b3373ffffffffffffffffffffffffffffffffffffffff167fe797642872b32e72a4dcefab4f9e4de91e11f9f917046fbaad3186888aa8a0ce8484846040516105c293929190610b9d565b60405180910390a2505050565b5f600454905090565b5f8054906101000a900473ffffffffffffffffffffffffffffffffffffffff1681565b60015f9054906101000a900473ffffffffffffffffffffffffffffffffffffffff1681565b5f819050919050565b61063281610620565b82525050565b5f60208201905061064b5f830184610629565b92915050565b5f80fd5b5f60ff82169050919050565b61066a81610655565b8114610674575f80fd5b50565b5f8135905061068581610661565b92915050565b5f602082840312156106a05761069f610651565b5b5f6106ad84828501610677565b91505092915050565b5f73ffffffffffffffffffffffffffffffffffffffff82169050919050565b5f819050919050565b5f6106f86106f36106ee846106b6565b6106d5565b6106b6565b9050919050565b5f610709826106de565b9050919050565b5f61071a826106ff565b9050919050565b61072a81610710565b82525050565b5f6020820190506107435f830184610721565b92915050565b5f610753826106b6565b9050919050565b61076381610749565b82525050565b5f60208201905061077c5f83018461075a565b92915050565b5f82825260208201905092915050565b7f4f6e6c79206f776e6572000000000000000000000000000000000000000000005f82015250565b5f6107c6600a83610782565b91506107d182610792565b602082019050919050565b5f6020820190508181035f8301526107f3816107ba565b9050919050565b5f60408201905061080d5f83018561075a565b61081a6020830184610629565b9392505050565b5f8115159050919050565b61083581610821565b811461083f575f80fd5b50565b5f815190506108508161082c565b92915050565b5f6020828403121561086b5761086a610651565b5b5f61087884828501610842565b91505092915050565b7f4775657373206d75737420626520312d313000000000000000000000000000005f82015250565b5f6108b5601283610782565b91506108c082610881565b602082019050919050565b5f6020820190508181035f8301526108e2816108a9565b9050919050565b5f6060820190506108fc5f83018661075a565b610909602083018561075a565b6109166040830184610629565b949350505050565b7f535454207472616e73666572206661696c6564000000000000000000000000005f82015250565b5f610952601383610782565b915061095d8261091e565b602082019050919050565b5f6020820190508181035f83015261097f81610946565b9050919050565b7f4e487b71000000000000000000000000000000000000000000000000000000005f52601160045260245ffd5b5f6109bd82610620565b91506109c883610620565b92508282019050808211156109e0576109df610986565b5b92915050565b5f819050919050565b610a006109fb82610620565b6109e6565b82525050565b5f8160601b9050919050565b5f610a1c82610a06565b9050919050565b5f610a2d82610a12565b9050919050565b610a45610a4082610749565b610a23565b82525050565b5f610a5682866109ef565b602082019150610a668285610a34565b601482019150610a7682846109ef565b602082019150819050949350505050565b7f4e487b71000000000000000000000000000000000000000000000000000000005f52601260045260245ffd5b5f610abe82610620565b9150610ac983610620565b925082610ad957610ad8610a87565b5b828206905092915050565b7f4e6f7420656e6f75676820696e20706f740000000000000000000000000000005f82015250565b5f610b18601183610782565b9150610b2382610ae4565b602082019050919050565b5f6020820190508181035f830152610b4581610b0c565b9050919050565b5f610b5682610620565b9150610b6183610620565b9250828203905081811115610b7957610b78610986565b5b92915050565b610b8881610655565b82525050565b610b9781610821565b82525050565b5f606082019050610bb05f830186610b7f565b610bbd6020830185610b7f565b610bca6040830184610b8e565b94935050505056fea264697066735822122081c5895f042aa3ce0c6fa68e50f49d8dc0c01217bebde424d77224e4bf41db4e64736f6c634300081a0033",
			"opcodes": "PUSH1 0x80 PUSH1 0x40 MSTORE PUSH8 0x1BC16D674EC80000 PUSH1 0x2 SSTORE PUSH8 0x4563918244F40000 PUSH1 0x3 SSTORE CALLVALUE DUP1 ISZERO PUSH2 0x27 JUMPI PUSH0 DUP1 REVERT JUMPDEST POP PUSH1 0x40 MLOAD PUSH2 0xD6C CODESIZE SUB DUP1 PUSH2 0xD6C DUP4 CODECOPY DUP2 DUP2 ADD PUSH1 0x40 MSTORE DUP2 ADD SWAP1 PUSH2 0x49 SWAP2 SWAP1 PUSH2 0x12C JUMP JUMPDEST DUP1 PUSH0 DUP1 PUSH2 0x100 EXP DUP2 SLOAD DUP2 PUSH20 0xFFFFFFFFFFFFFFFFFFFFFFFFFFFFFFFFFFFFFFFF MUL NOT AND SWAP1 DUP4 PUSH20 0xFFFFFFFFFFFFFFFFFFFFFFFFFFFFFFFFFFFFFFFF AND MUL OR SWAP1 SSTORE POP CALLER PUSH1 0x1 PUSH0 PUSH2 0x100 EXP DUP2 SLOAD DUP2 PUSH20 0xFFFFFFFFFFFFFFFFFFFFFFFFFFFFFFFFFFFFFFFF MUL NOT AND SWAP1 DUP4 PUSH20 0xFFFFFFFFFFFFFFFFFFFFFFFFFFFFFFFFFFFFFFFF AND MUL OR SWAP1 SSTORE POP POP PUSH2 0x157 JUMP JUMPDEST PUSH0 DUP1 REVERT JUMPDEST PUSH0 PUSH20 0xFFFFFFFFFFFFFFFFFFFFFFFFFFFFFFFFFFFFFFFF DUP3 AND SWAP1 POP SWAP2 SWAP1 POP JUMP JUMPDEST PUSH0 PUSH2 0xFB DUP3 PUSH2 0xD2 JUMP JUMPDEST SWAP1 POP SWAP2 SWAP1 POP JUMP JUMPDEST PUSH2 0x10B DUP2 PUSH2 0xF1 JUMP JUMPDEST DUP2 EQ PUSH2 0x115 JUMPI PUSH0 DUP1 REVERT JUMPDEST POP JUMP JUMPDEST PUSH0 DUP2 MLOAD SWAP1 POP PUSH2 0x126 DUP2 PUSH2 0x102 JUMP JUMPDEST SWAP3 SWAP2 POP POP JUMP JUMPDEST PUSH0 PUSH1 0x20 DUP3 DUP5 SUB SLT ISZERO PUSH2 0x141 JUMPI PUSH2 0x140 PUSH2 0xCE JUMP JUMPDEST JUMPDEST PUSH0 PUSH2 0x14E DUP5 DUP3 DUP6 ADD PUSH2 0x118 JUMP JUMPDEST SWAP2 POP POP SWAP3 SWAP2 POP POP JUMP JUMPDEST PUSH2 0xC08 DUP1 PUSH2 0x164 PUSH0 CODECOPY PUSH0 RETURN INVALID PUSH1 0x80 PUSH1 0x40 MSTORE CALLVALUE DUP1 ISZERO PUSH2 0xF JUMPI PUSH0 DUP1 REVERT JUMPDEST POP PUSH1 0x4 CALLDATASIZE LT PUSH2 0x86 JUMPI PUSH0 CALLDATALOAD PUSH1 0xE0 SHR DUP1 PUSH4 0x53A04B05 GT PUSH2 0x59 JUMPI DUP1 PUSH4 0x53A04B05 EQ PUSH2 0xEE JUMPI DUP1 PUSH4 0x71E8FB57 EQ PUSH2 0x10A JUMPI DUP1 PUSH4 0x7882BF7E EQ PUSH2 0x128 JUMPI DUP1 PUSH4 0x8DA5CB5B EQ PUSH2 0x146 JUMPI PUSH2 0x86 JUMP JUMPDEST DUP1 PUSH4 0xC76316D EQ PUSH2 0x8A JUMPI DUP1 PUSH4 0x228CB733 EQ PUSH2 0x94 JUMPI DUP1 PUSH4 0x3A4B66F1 EQ PUSH2 0xB2 JUMPI DUP1 PUSH4 0x4BA2363A EQ PUSH2 0xD0 JUMPI JUMPDEST PUSH0 DUP1 REVERT JUMPDEST PUSH2 0x92 PUSH2 0x164 JUMP JUMPDEST STOP JUMPDEST PUSH2 0x9C PUSH2 0x2BF JUMP JUMPDEST PUSH1 0x40 MLOAD PUSH2 0xA9 SWAP2 SWAP1 PUSH2 0x638 JUMP JUMPDEST PUSH1 0x40 MLOAD DUP1 SWAP2 SUB SWAP1 RETURN JUMPDEST PUSH2 0xBA PUSH2 0x2C5 JUMP JUMPDEST PUSH1 0x40 MLOAD PUSH2 0xC7 SWAP2 SWAP1 PUSH2 0x638 JUMP JUMPDEST PUSH1 0x40 MLOAD DUP1 SWAP2 SUB SWAP1 RETURN JUMPDEST PUSH2 0xD8 PUSH2 0x2CB JUMP JUMPDEST PUSH1 0x40 MLOAD PUSH2 0xE5 SWAP2 SWAP1 PUSH2 0x638 JUMP JUMPDEST PUSH1 0x40 MLOAD DUP1 SWAP2 SUB SWAP1 RETURN JUMPDEST PUSH2 0x108 PUSH1 0x4 DUP1 CALLDATASIZE SUB DUP2 ADD SWAP1 PUSH2 0x103 SWAP2 SWAP1 PUSH2 0x68B JUMP JUMPDEST PUSH2 0x2D1 JUMP JUMPDEST STOP JUMPDEST PUSH2 0x112 PUSH2 0x5CF JUMP JUMPDEST PUSH1 0x40 MLOAD PUSH2 0x11F SWAP2 SWAP1 PUSH2 0x638 JUMP JUMPDEST PUSH1 0x40 MLOAD DUP1 SWAP2 SUB SWAP1 RETURN JUMPDEST PUSH2 0x130 PUSH2 0x5D8 JUMP JUMPDEST PUSH1 0x40 MLOAD PUSH2 0x13D SWAP2 SWAP1 PUSH2 0x730 JUMP JUMPDEST PUSH1 0x40 MLOAD DUP1 SWAP2 SUB SWAP1 RETURN JUMPDEST PUSH2 0x14E PUSH2 0x5FB JUMP JUMPDEST PUSH1 0x40 MLOAD PUSH2 0x15B SWAP2 SWAP1 PUSH2 0x769 JUMP JUMPDEST PUSH1 0x40 MLOAD DUP1 SWAP2 SUB SWAP1 RETURN JUMPDEST PUSH1 0x1 PUSH0 SWAP1 SLOAD SWAP1 PUSH2 0x100 EXP SWAP1 DIV PUSH20 0xFFFFFFFFFFFFFFFFFFFFFFFFFFFFFFFFFFFFFFFF AND PUSH20 0xFFFFFFFFFFFFFFFFFFFFFFFFFFFFFFFFFFFFFFFF AND CALLER PUSH20 0xFFFFFFFFFFFFFFFFFFFFFFFFFFFFFFFFFFFFFFFF AND EQ PUSH2 0x1F3 JUMPI PUSH1 0x40 MLOAD PUSH32 0x8C379A000000000000000000000000000000000000000000000000000000000 DUP2 MSTORE PUSH1 0x4 ADD PUSH2 0x1EA SWAP1 PUSH2 0x7DC JUMP JUMPDEST PUSH1 0x40 MLOAD DUP1 SWAP2 SUB SWAP1 REVERT JUMPDEST PUSH0 PUSH1 0x4 SLOAD SWAP1 POP PUSH0 PUSH1 0x4 DUP2 SWAP1 SSTORE POP PUSH0 DUP1 SLOAD SWAP1 PUSH2 0x100 EXP SWAP1 DIV PUSH20 0xFFFFFFFFFFFFFFFFFFFFFFFFFFFFFFFFFFFFFFFF AND PUSH20 0xFFFFFFFFFFFFFFFFFFFFFFFFFFFFFFFFFFFFFFFF AND PUSH4 0xA9059CBB PUSH1 0x1 PUSH0 SWAP1 SLOAD SWAP1 PUSH2 0x100 EXP SWAP1 DIV PUSH20 0xFFFFFFFFFFFFFFFFFFFFFFFFFFFFFFFFFFFFFFFF AND DUP4 PUSH1 0x40 MLOAD DUP4 PUSH4 0xFFFFFFFF AND PUSH1 0xE0 SHL DUP2 MSTORE PUSH1 0x4 ADD PUSH2 0x27B SWAP3 SWAP2 SWAP1 PUSH2 0x7FA JUMP JUMPDEST PUSH1 0x20 PUSH1 0x40 MLOAD DUP1 DUP4 SUB DUP2 PUSH0 DUP8 GAS CALL ISZERO DUP1 ISZERO PUSH2 0x297 JUMPI RETURNDATASIZE PUSH0 DUP1 RETURNDATACOPY RETURNDATASIZE PUSH0 REVERT JUMPDEST POP POP POP POP PUSH1 0x40 MLOAD RETURNDATASIZE PUSH1 0x1F NOT PUSH1 0x1F DUP3 ADD AND DUP3 ADD DUP1 PUSH1 0x40 MSTORE POP DUP2 ADD SWAP1 PUSH2 0x2BB SWAP2 SWAP1 PUSH2 0x856 JUMP JUMPDEST POP POP JUMP JUMPDEST PUSH1 0x3 SLOAD DUP2 JUMP JUMPDEST PUSH1 0x2 SLOAD DUP2 JUMP JUMPDEST PUSH1 0x4 SLOAD DUP2 JUMP JUMPDEST PUSH1 0x1 DUP2 PUSH1 0xFF AND LT ISZERO DUP1 ISZERO PUSH2 0x2E9 JUMPI POP PUSH1 0xA DUP2 PUSH1 0xFF AND GT ISZERO JUMPDEST PUSH2 0x328 JUMPI PUSH1 0x40 MLOAD PUSH32 0x8C379A000000000000000000000000000000000000000000000000000000000 DUP2 MSTORE PUSH1 0x4 ADD PUSH2 0x31F SWAP1 PUSH2 0x8CB JUMP JUMPDEST PUSH1 0x40 MLOAD DUP1 SWAP2 SUB SWAP1 REVERT JUMPDEST PUSH0 DUP1 SLOAD SWAP1 PUSH2 0x100 EXP SWAP1 DIV PUSH20 0xFFFFFFFFFFFFFFFFFFFFFFFFFFFFFFFFFFFFFFFF AND PUSH20 0xFFFFFFFFFFFFFFFFFFFFFFFFFFFFFFFFFFFFFFFF AND PUSH4 0x23B872DD CALLER ADDRESS PUSH1 0x2 SLOAD PUSH1 0x40 MLOAD DUP5 PUSH4 0xFFFFFFFF AND PUSH1 0xE0 SHL DUP2 MSTORE PUSH1 0x4 ADD PUSH2 0x386 SWAP4 SWAP3 SWAP2 SWAP1 PUSH2 0x8E9 JUMP JUMPDEST PUSH1 0x20 PUSH1 0x40 MLOAD DUP1 DUP4 SUB DUP2 PUSH0 DUP8 GAS CALL ISZERO DUP1 ISZERO PUSH2 0x3A2 JUMPI RETURNDATASIZE PUSH0 DUP1 RETURNDATACOPY RETURNDATASIZE PUSH0 REVERT JUMPDEST POP POP POP POP PUSH1 0x40 MLOAD RETURNDATASIZE PUSH1 0x1F NOT PUSH1 0x1F DUP3 ADD AND DUP3 ADD DUP1 PUSH1 0x40 MSTORE POP DUP2 ADD SWAP1 PUSH2 0x3C6 SWAP2 SWAP1 PUSH2 0x856 JUMP JUMPDEST PUSH2 0x405 JUMPI PUSH1 0x40 MLOAD PUSH32 0x8C379A000000000000000000000000000000000000000000000000000000000 DUP2 MSTORE PUSH1 0x4 ADD PUSH2 0x3FC SWAP1 PUSH2 0x968 JUMP JUMPDEST PUSH1 0x40 MLOAD DUP1 SWAP2 SUB SWAP1 REVERT JUMPDEST PUSH1 0x2 SLOAD PUSH1 0x4 PUSH0 DUP3 DUP3 SLOAD PUSH2 0x418 SWAP2 SWAP1 PUSH2 0x9B3 JUMP JUMPDEST SWAP3 POP POP DUP2 SWAP1 SSTORE POP PUSH0 PUSH1 0x1 PUSH1 0xA TIMESTAMP CALLER PREVRANDAO PUSH1 0x40 MLOAD PUSH1 0x20 ADD PUSH2 0x439 SWAP4 SWAP3 SWAP2 SWAP1 PUSH2 0xA4B JUMP JUMPDEST PUSH1 0x40 MLOAD PUSH1 0x20 DUP2 DUP4 SUB SUB DUP2 MSTORE SWAP1 PUSH1 0x40 MSTORE DUP1 MLOAD SWAP1 PUSH1 0x20 ADD KECCAK256 PUSH0 SHR PUSH2 0x45B SWAP2 SWAP1 PUSH2 0xAB4 JUMP JUMPDEST PUSH2 0x465 SWAP2 SWAP1 PUSH2 0x9B3 JUMP JUMPDEST SWAP1 POP PUSH0 DUP2 PUSH1 0xFF AND DUP4 PUSH1 0xFF AND EQ SWAP1 POP DUP1 ISZERO PUSH2 0x578 JUMPI PUSH1 0x3 SLOAD PUSH1 0x4 SLOAD LT ISZERO PUSH2 0x4C0 JUMPI PUSH1 0x40 MLOAD PUSH32 0x8C379A000000000000000000000000000000000000000000000000000000000 DUP2 MSTORE PUSH1 0x4 ADD PUSH2 0x4B7 SWAP1 PUSH2 0xB2E JUMP JUMPDEST PUSH1 0x40 MLOAD DUP1 SWAP2 SUB SWAP1 REVERT JUMPDEST PUSH0 DUP1 SLOAD SWAP1 PUSH2 0x100 EXP SWAP1 DIV PUSH20 0xFFFFFFFFFFFFFFFFFFFFFFFFFFFFFFFFFFFFFFFF AND PUSH20 0xFFFFFFFFFFFFFFFFFFFFFFFFFFFFFFFFFFFFFFFF AND PUSH4 0xA9059CBB CALLER PUSH1 0x3 SLOAD PUSH1 0x40 MLOAD DUP4 PUSH4 0xFFFFFFFF AND PUSH1 0xE0 SHL DUP2 MSTORE PUSH1 0x4 ADD PUSH2 0x51C SWAP3 SWAP2 SWAP1 PUSH2 0x7FA JUMP JUMPDEST PUSH1 0x20 PUSH1 0x40 MLOAD DUP1 DUP4 SUB DUP2 PUSH0 DUP8 GAS CALL ISZERO DUP1 ISZERO PUSH2 0x538 JUMPI RETURNDATASIZE PUSH0 DUP1 RETURNDATACOPY RETURNDATASIZE PUSH0 REVERT JUMPDEST POP POP POP POP PUSH1 0x40 MLOAD RETURNDATASIZE PUSH1 0x1F NOT PUSH1 0x1F DUP3 ADD AND DUP3 ADD DUP1 PUSH1 0x40 MSTORE POP DUP2 ADD SWAP1 PUSH2 0x55C SWAP2 SWAP1 PUSH2 0x856 JUMP JUMPDEST POP PUSH1 0x3 SLOAD PUSH1 0x4 PUSH0 DUP3 DUP3 SLOAD PUSH2 0x570 SWAP2 SWAP1 PUSH2 0xB4C JUMP JUMPDEST SWAP3 POP POP DUP2 SWAP1 SSTORE POP JUMPDEST CALLER PUSH20 0xFFFFFFFFFFFFFFFFFFFFFFFFFFFFFFFFFFFFFFFF AND PUSH32 0xE797642872B32E72A4DCEFAB4F9E4DE91E11F9F917046FBAAD3186888AA8A0CE DUP5 DUP5 DUP5 PUSH1 0x40 MLOAD PUSH2 0x5C2 SWAP4 SWAP3 SWAP2 SWAP1 PUSH2 0xB9D JUMP JUMPDEST PUSH1 0x40 MLOAD DUP1 SWAP2 SUB SWAP1 LOG2 POP POP POP JUMP JUMPDEST PUSH0 PUSH1 0x4 SLOAD SWAP1 POP SWAP1 JUMP JUMPDEST PUSH0 DUP1 SLOAD SWAP1 PUSH2 0x100 EXP SWAP1 DIV PUSH20 0xFFFFFFFFFFFFFFFFFFFFFFFFFFFFFFFFFFFFFFFF AND DUP2 JUMP JUMPDEST PUSH1 0x1 PUSH0 SWAP1 SLOAD SWAP1 PUSH2 0x100 EXP SWAP1 DIV PUSH20 0xFFFFFFFFFFFFFFFFFFFFFFFFFFFFFFFFFFFFFFFF AND DUP2 JUMP JUMPDEST PUSH0 DUP2 SWAP1 POP SWAP2 SWAP1 POP JUMP JUMPDEST PUSH2 0x632 DUP2 PUSH2 0x620 JUMP JUMPDEST DUP3 MSTORE POP POP JUMP JUMPDEST PUSH0 PUSH1 0x20 DUP3 ADD SWAP1 POP PUSH2 0x64B PUSH0 DUP4 ADD DUP5 PUSH2 0x629 JUMP JUMPDEST SWAP3 SWAP2 POP POP JUMP JUMPDEST PUSH0 DUP1 REVERT JUMPDEST PUSH0 PUSH1 0xFF DUP3 AND SWAP1 POP SWAP2 SWAP1 POP JUMP JUMPDEST PUSH2 0x66A DUP2 PUSH2 0x655 JUMP JUMPDEST DUP2 EQ PUSH2 0x674 JUMPI PUSH0 DUP1 REVERT JUMPDEST POP JUMP JUMPDEST PUSH0 DUP2 CALLDATALOAD SWAP1 POP PUSH2 0x685 DUP2 PUSH2 0x661 JUMP JUMPDEST SWAP3 SWAP2 POP POP JUMP JUMPDEST PUSH0 PUSH1 0x20 DUP3 DUP5 SUB SLT ISZERO PUSH2 0x6A0 JUMPI PUSH2 0x69F PUSH2 0x651 JUMP JUMPDEST JUMPDEST PUSH0 PUSH2 0x6AD DUP5 DUP3 DUP6 ADD PUSH2 0x677 JUMP JUMPDEST SWAP2 POP POP SWAP3 SWAP2 POP POP JUMP JUMPDEST PUSH0 PUSH20 0xFFFFFFFFFFFFFFFFFFFFFFFFFFFFFFFFFFFFFFFF DUP3 AND SWAP1 POP SWAP2 SWAP1 POP JUMP JUMPDEST PUSH0 DUP2 SWAP1 POP SWAP2 SWAP1 POP JUMP JUMPDEST PUSH0 PUSH2 0x6F8 PUSH2 0x6F3 PUSH2 0x6EE DUP5 PUSH2 0x6B6 JUMP JUMPDEST PUSH2 0x6D5 JUMP JUMPDEST PUSH2 0x6B6 JUMP JUMPDEST SWAP1 POP SWAP2 SWAP1 POP JUMP JUMPDEST PUSH0 PUSH2 0x709 DUP3 PUSH2 0x6DE JUMP JUMPDEST SWAP1 POP SWAP2 SWAP1 POP JUMP JUMPDEST PUSH0 PUSH2 0x71A DUP3 PUSH2 0x6FF JUMP JUMPDEST SWAP1 POP SWAP2 SWAP1 POP JUMP JUMPDEST PUSH2 0x72A DUP2 PUSH2 0x710 JUMP JUMPDEST DUP3 MSTORE POP POP JUMP JUMPDEST PUSH0 PUSH1 0x20 DUP3 ADD SWAP1 POP PUSH2 0x743 PUSH0 DUP4 ADD DUP5 PUSH2 0x721 JUMP JUMPDEST SWAP3 SWAP2 POP POP JUMP JUMPDEST PUSH0 PUSH2 0x753 DUP3 PUSH2 0x6B6 JUMP JUMPDEST SWAP1 POP SWAP2 SWAP1 POP JUMP JUMPDEST PUSH2 0x763 DUP2 PUSH2 0x749 JUMP JUMPDEST DUP3 MSTORE POP POP JUMP JUMPDEST PUSH0 PUSH1 0x20 DUP3 ADD SWAP1 POP PUSH2 0x77C PUSH0 DUP4 ADD DUP5 PUSH2 0x75A JUMP JUMPDEST SWAP3 SWAP2 POP POP JUMP JUMPDEST PUSH0 DUP3 DUP3 MSTORE PUSH1 0x20 DUP3 ADD SWAP1 POP SWAP3 SWAP2 POP POP JUMP JUMPDEST PUSH32 0x4F6E6C79206F776E657200000000000000000000000000000000000000000000 PUSH0 DUP3 ADD MSTORE POP JUMP JUMPDEST PUSH0 PUSH2 0x7C6 PUSH1 0xA DUP4 PUSH2 0x782 JUMP JUMPDEST SWAP2 POP PUSH2 0x7D1 DUP3 PUSH2 0x792 JUMP JUMPDEST PUSH1 0x20 DUP3 ADD SWAP1 POP SWAP2 SWAP1 POP JUMP JUMPDEST PUSH0 PUSH1 0x20 DUP3 ADD SWAP1 POP DUP2 DUP2 SUB PUSH0 DUP4 ADD MSTORE PUSH2 0x7F3 DUP2 PUSH2 0x7BA JUMP JUMPDEST SWAP1 POP SWAP2 SWAP1 POP JUMP JUMPDEST PUSH0 PUSH1 0x40 DUP3 ADD SWAP1 POP PUSH2 0x80D PUSH0 DUP4 ADD DUP6 PUSH2 0x75A JUMP JUMPDEST PUSH2 0x81A PUSH1 0x20 DUP4 ADD DUP5 PUSH2 0x629 JUMP JUMPDEST SWAP4 SWAP3 POP POP POP JUMP JUMPDEST PUSH0 DUP2 ISZERO ISZERO SWAP1 POP SWAP2 SWAP1 POP JUMP JUMPDEST PUSH2 0x835 DUP2 PUSH2 0x821 JUMP JUMPDEST DUP2 EQ PUSH2 0x83F JUMPI PUSH0 DUP1 REVERT JUMPDEST POP JUMP JUMPDEST PUSH0 DUP2 MLOAD SWAP1 POP PUSH2 0x850 DUP2 PUSH2 0x82C JUMP JUMPDEST SWAP3 SWAP2 POP POP JUMP JUMPDEST PUSH0 PUSH1 0x20 DUP3 DUP5 SUB SLT ISZERO PUSH2 0x86B JUMPI PUSH2 0x86A PUSH2 0x651 JUMP JUMPDEST JUMPDEST PUSH0 PUSH2 0x878 DUP5 DUP3 DUP6 ADD PUSH2 0x842 JUMP JUMPDEST SWAP2 POP POP SWAP3 SWAP2 POP POP JUMP JUMPDEST PUSH32 0x4775657373206D75737420626520312D31300000000000000000000000000000 PUSH0 DUP3 ADD MSTORE POP JUMP JUMPDEST PUSH0 PUSH2 0x8B5 PUSH1 0x12 DUP4 PUSH2 0x782 JUMP JUMPDEST SWAP2 POP PUSH2 0x8C0 DUP3 PUSH2 0x881 JUMP JUMPDEST PUSH1 0x20 DUP3 ADD SWAP1 POP SWAP2 SWAP1 POP JUMP JUMPDEST PUSH0 PUSH1 0x20 DUP3 ADD SWAP1 POP DUP2 DUP2 SUB PUSH0 DUP4 ADD MSTORE PUSH2 0x8E2 DUP2 PUSH2 0x8A9 JUMP JUMPDEST SWAP1 POP SWAP2 SWAP1 POP JUMP JUMPDEST PUSH0 PUSH1 0x60 DUP3 ADD SWAP1 POP PUSH2 0x8FC PUSH0 DUP4 ADD DUP7 PUSH2 0x75A JUMP JUMPDEST PUSH2 0x909 PUSH1 0x20 DUP4 ADD DUP6 PUSH2 0x75A JUMP JUMPDEST PUSH2 0x916 PUSH1 0x40 DUP4 ADD DUP5 PUSH2 0x629 JUMP JUMPDEST SWAP5 SWAP4 POP POP POP POP JUMP JUMPDEST PUSH32 0x535454207472616E73666572206661696C656400000000000000000000000000 PUSH0 DUP3 ADD MSTORE POP JUMP JUMPDEST PUSH0 PUSH2 0x952 PUSH1 0x13 DUP4 PUSH2 0x782 JUMP JUMPDEST SWAP2 POP PUSH2 0x95D DUP3 PUSH2 0x91E JUMP JUMPDEST PUSH1 0x20 DUP3 ADD SWAP1 POP SWAP2 SWAP1 POP JUMP JUMPDEST PUSH0 PUSH1 0x20 DUP3 ADD SWAP1 POP DUP2 DUP2 SUB PUSH0 DUP4 ADD MSTORE PUSH2 0x97F DUP2 PUSH2 0x946 JUMP JUMPDEST SWAP1 POP SWAP2 SWAP1 POP JUMP JUMPDEST PUSH32 0x4E487B7100000000000000000000000000000000000000000000000000000000 PUSH0 MSTORE PUSH1 0x11 PUSH1 0x4 MSTORE PUSH1 0x24 PUSH0 REVERT JUMPDEST PUSH0 PUSH2 0x9BD DUP3 PUSH2 0x620 JUMP JUMPDEST SWAP2 POP PUSH2 0x9C8 DUP4 PUSH2 0x620 JUMP JUMPDEST SWAP3 POP DUP3 DUP3 ADD SWAP1 POP DUP1 DUP3 GT ISZERO PUSH2 0x9E0 JUMPI PUSH2 0x9DF PUSH2 0x986 JUMP JUMPDEST JUMPDEST SWAP3 SWAP2 POP POP JUMP JUMPDEST PUSH0 DUP2 SWAP1 POP SWAP2 SWAP1 POP JUMP JUMPDEST PUSH2 0xA00 PUSH2 0x9FB DUP3 PUSH2 0x620 JUMP JUMPDEST PUSH2 0x9E6 JUMP JUMPDEST DUP3 MSTORE POP POP JUMP JUMPDEST PUSH0 DUP2 PUSH1 0x60 SHL SWAP1 POP SWAP2 SWAP1 POP JUMP JUMPDEST PUSH0 PUSH2 0xA1C DUP3 PUSH2 0xA06 JUMP JUMPDEST SWAP1 POP SWAP2 SWAP1 POP JUMP JUMPDEST PUSH0 PUSH2 0xA2D DUP3 PUSH2 0xA12 JUMP JUMPDEST SWAP1 POP SWAP2 SWAP1 POP JUMP JUMPDEST PUSH2 0xA45 PUSH2 0xA40 DUP3 PUSH2 0x749 JUMP JUMPDEST PUSH2 0xA23 JUMP JUMPDEST DUP3 MSTORE POP POP JUMP JUMPDEST PUSH0 PUSH2 0xA56 DUP3 DUP7 PUSH2 0x9EF JUMP JUMPDEST PUSH1 0x20 DUP3 ADD SWAP2 POP PUSH2 0xA66 DUP3 DUP6 PUSH2 0xA34 JUMP JUMPDEST PUSH1 0x14 DUP3 ADD SWAP2 POP PUSH2 0xA76 DUP3 DUP5 PUSH2 0x9EF JUMP JUMPDEST PUSH1 0x20 DUP3 ADD SWAP2 POP DUP2 SWAP1 POP SWAP5 SWAP4 POP POP POP POP JUMP JUMPDEST PUSH32 0x4E487B7100000000000000000000000000000000000000000000000000000000 PUSH0 MSTORE PUSH1 0x12 PUSH1 0x4 MSTORE PUSH1 0x24 PUSH0 REVERT JUMPDEST PUSH0 PUSH2 0xABE DUP3 PUSH2 0x620 JUMP JUMPDEST SWAP2 POP PUSH2 0xAC9 DUP4 PUSH2 0x620 JUMP JUMPDEST SWAP3 POP DUP3 PUSH2 0xAD9 JUMPI PUSH2 0xAD8 PUSH2 0xA87 JUMP JUMPDEST JUMPDEST DUP3 DUP3 MOD SWAP1 POP SWAP3 SWAP2 POP POP JUMP JUMPDEST PUSH32 0x4E6F7420656E6F75676820696E20706F74000000000000000000000000000000 PUSH0 DUP3 ADD MSTORE POP JUMP JUMPDEST PUSH0 PUSH2 0xB18 PUSH1 0x11 DUP4 PUSH2 0x782 JUMP JUMPDEST SWAP2 POP PUSH2 0xB23 DUP3 PUSH2 0xAE4 JUMP JUMPDEST PUSH1 0x20 DUP3 ADD SWAP1 POP SWAP2 SWAP1 POP JUMP JUMPDEST PUSH0 PUSH1 0x20 DUP3 ADD SWAP1 POP DUP2 DUP2 SUB PUSH0 DUP4 ADD MSTORE PUSH2 0xB45 DUP2 PUSH2 0xB0C JUMP JUMPDEST SWAP1 POP SWAP2 SWAP1 POP JUMP JUMPDEST PUSH0 PUSH2 0xB56 DUP3 PUSH2 0x620 JUMP JUMPDEST SWAP2 POP PUSH2 0xB61 DUP4 PUSH2 0x620 JUMP JUMPDEST SWAP3 POP DUP3 DUP3 SUB SWAP1 POP DUP2 DUP2 GT ISZERO PUSH2 0xB79 JUMPI PUSH2 0xB78 PUSH2 0x986 JUMP JUMPDEST JUMPDEST SWAP3 SWAP2 POP POP JUMP JUMPDEST PUSH2 0xB88 DUP2 PUSH2 0x655 JUMP JUMPDEST DUP3 MSTORE POP POP JUMP JUMPDEST PUSH2 0xB97 DUP2 PUSH2 0x821 JUMP JUMPDEST DUP3 MSTORE POP POP JUMP JUMPDEST PUSH0 PUSH1 0x60 DUP3 ADD SWAP1 POP PUSH2 0xBB0 PUSH0 DUP4 ADD DUP7 PUSH2 0xB7F JUMP JUMPDEST PUSH2 0xBBD PUSH1 0x20 DUP4 ADD DUP6 PUSH2 0xB7F JUMP JUMPDEST PUSH2 0xBCA PUSH1 0x40 DUP4 ADD DUP5 PUSH2 0xB8E JUMP JUMPDEST SWAP5 SWAP4 POP POP POP POP JUMP INVALID LOG2 PUSH5 0x6970667358 0x22 SLT KECCAK256 DUP2 0xC5 DUP10 PUSH0 DIV 0x2A LOG3 0xCE 0xC PUSH16 0xA68E50F49D8DC0C01217BEBDE424D772 0x24 0xE4 0xBF COINBASE 0xDB 0x4E PUSH5 0x736F6C6343 STOP ADDMOD BYTE STOP CALLER "
		},
		"gasEstimates": {
			"creation": {
				"codeDepositCost": "616000",
				"executionCost": "infinite",
				"totalCost": "infinite"
			},
			"external": {
				"getPotBalance()": "2454",
				"owner()": "2574",
				"play(uint8)": "infinite",
				"pot()": "2492",
				"reward()": "2448",
				"stake()": "2470",
				"sttToken()": "infinite",
				"withdrawPot()": "infinite"
			}
		},
		"methodIdentifiers": {
			"getPotBalance()": "71e8fb57",
			"owner()": "8da5cb5b",
			"play(uint8)": "53a04b05",
			"pot()": "4ba2363a",
			"reward()": "228cb733",
			"stake()": "3a4b66f1",
			"sttToken()": "7882bf7e",
			"withdrawPot()": "0c76316d"
		}
	},
	"abi": [
		{
			"inputs": [
				{
					"internalType": "address",
					"name": "_sttToken",
					"type": "address"
				}
			],
			"stateMutability": "nonpayable",
			"type": "constructor"
		},
		{
			"anonymous": false,
			"inputs": [
				{
					"indexed": true,
					"internalType": "address",
					"name": "player",
					"type": "address"
				},
				{
					"indexed": false,
					"internalType": "uint8",
					"name": "guess",
					"type": "uint8"
				},
				{
					"indexed": false,
					"internalType": "uint8",
					"name": "answer",
					"type": "uint8"
				},
				{
					"indexed": false,
					"internalType": "bool",
					"name": "success",
					"type": "bool"
				}
			],
			"name": "GameResult",
			"type": "event"
		},
		{
			"inputs": [],
			"name": "getPotBalance",
			"outputs": [
				{
					"internalType": "uint256",
					"name": "",
					"type": "uint256"
				}
			],
			"stateMutability": "view",
			"type": "function"
		},
		{
			"inputs": [],
			"name": "owner",
			"outputs": [
				{
					"internalType": "address",
					"name": "",
					"type": "address"
				}
			],
			"stateMutability": "view",
			"type": "function"
		},
		{
			"inputs": [
				{
					"internalType": "uint8",
					"name": "guess",
					"type": "uint8"
				}
			],
			"name": "play",
			"outputs": [],
			"stateMutability": "nonpayable",
			"type": "function"
		},
		{
			"inputs": [],
			"name": "pot",
			"outputs": [
				{
					"internalType": "uint256",
					"name": "",
					"type": "uint256"
				}
			],
			"stateMutability": "view",
			"type": "function"
		},
		{
			"inputs": [],
			"name": "reward",
			"outputs": [
				{
					"internalType": "uint256",
					"name": "",
					"type": "uint256"
				}
			],
			"stateMutability": "view",
			"type": "function"
		},
		{
			"inputs": [],
			"name": "stake",
			"outputs": [
				{
					"internalType": "uint256",
					"name": "",
					"type": "uint256"
				}
			],
			"stateMutability": "view",
			"type": "function"
		},
		{
			"inputs": [],
			"name": "sttToken",
			"outputs": [
				{
					"internalType": "contract IERC20",
					"name": "",
					"type": "address"
				}
			],
			"stateMutability": "view",
			"type": "function"
		},
		{
			"inputs": [],
			"name": "withdrawPot",
			"outputs": [],
			"stateMutability": "nonpayable",
			"type": "function"
		}
	]
}