{
	"data": {
		"bytecode": {
			"linkReferences": {},
			"object": "6080604052670de0b6b3a764000060025534801561001b575f80fd5b506040516110bf3803806110bf833981810160405281019061003d9190610120565b805f806101000a81548173ffffffffffffffffffffffffffffffffffffffff021916908373ffffffffffffffffffffffffffffffffffffffff1602179055503360015f6101000a81548173ffffffffffffffffffffffffffffffffffffffff021916908373ffffffffffffffffffffffffffffffffffffffff1602179055505061014b565b5f80fd5b5f73ffffffffffffffffffffffffffffffffffffffff82169050919050565b5f6100ef826100c6565b9050919050565b6100ff816100e5565b8114610109575f80fd5b50565b5f8151905061011a816100f6565b92915050565b5f60208284031215610135576101346100c2565b5b5f6101428482850161010c565b91505092915050565b610f67806101585f395ff3fe608060405234801561000f575f80fd5b5060043610610060575f3560e01c80633ccfd60b1461006457806353a04b051461006e5780637882bf7e1461008a5780638da5cb5b146100a8578063d24257c0146100c6578063f73dd028146100e4575b5f80fd5b61006c610102565b005b61008860048036038101906100839190610935565b6102eb565b005b61009261080f565b60405161009f91906109da565b60405180910390f35b6100b0610832565b6040516100bd9190610a13565b60405180910390f35b6100ce610857565b6040516100db9190610a44565b60405180910390f35b6100ec61085d565b6040516100f99190610a44565b60405180910390f35b60015f9054906101000a900473ffffffffffffffffffffffffffffffffffffffff1673ffffffffffffffffffffffffffffffffffffffff163373ffffffffffffffffffffffffffffffffffffffff1614610191576040517f08c379a000000000000000000000000000000000000000000000000000000000815260040161018890610ab7565b60405180910390fd5b5f805f9054906101000a900473ffffffffffffffffffffffffffffffffffffffff1673ffffffffffffffffffffffffffffffffffffffff166370a08231306040518263ffffffff1660e01b81526004016101eb9190610a13565b602060405180830381865afa158015610206573d5f803e3d5ffd5b505050506040513d601f19601f8201168201806040525081019061022a9190610aff565b90505f8054906101000a900473ffffffffffffffffffffffffffffffffffffffff1673ffffffffffffffffffffffffffffffffffffffff1663a9059cbb60015f9054906101000a900473ffffffffffffffffffffffffffffffffffffffff16836040518363ffffffff1660e01b81526004016102a7929190610b2a565b6020604051808303815f875af11580156102c3573d5f803e3d5ffd5b505050506040513d601f19601f820116820180604052508101906102e79190610b86565b5050565b60028160ff161115610332576040517f08c379a000000000000000000000000000000000000000000000000000000000815260040161032990610bfb565b60405180910390fd5b5f8054906101000a900473ffffffffffffffffffffffffffffffffffffffff1673ffffffffffffffffffffffffffffffffffffffff166323b872dd33306002546040518463ffffffff1660e01b815260040161039093929190610c19565b6020604051808303815f875af11580156103ac573d5f803e3d5ffd5b505050506040513d601f19601f820116820180604052508101906103d09190610b86565b61040f576040517f08c379a000000000000000000000000000000000000000000000000000000000815260040161040690610c98565b60405180910390fd5b5f8160ff16600281111561042657610425610cb6565b5b90505f600342334460405160200161044093929190610d48565b604051602081830303815290604052805190602001205f1c6104629190610db1565b60ff16600281111561047757610476610cb6565b5b9050606081600281111561048e5761048d610cb6565b5b8360028111156104a1576104a0610cb6565b5b03610580575f8054906101000a900473ffffffffffffffffffffffffffffffffffffffff1673ffffffffffffffffffffffffffffffffffffffff1663a9059cbb336002546040518363ffffffff1660e01b8152600401610502929190610b2a565b6020604051808303815f875af115801561051e573d5f803e3d5ffd5b505050506040513d601f19601f820116820180604052508101906105429190610b86565b506040518060400160405280600481526020017f447261770000000000000000000000000000000000000000000000000000000081525090506107b7565b5f600281111561059357610592610cb6565b5b8360028111156105a6576105a5610cb6565b5b1480156105d657506002808111156105c1576105c0610cb6565b5b8260028111156105d4576105d3610cb6565b5b145b806106345750600160028111156105f0576105ef610cb6565b5b83600281111561060357610602610cb6565b5b14801561063357505f600281111561061e5761061d610cb6565b5b82600281111561063157610630610cb6565b5b145b5b80610692575060028081111561064d5761064c610cb6565b5b8360028111156106605761065f610cb6565b5b14801561069157506001600281111561067c5761067b610cb6565b5b82600281111561068f5761068e610cb6565b5b145b5b1561077d575f8054906101000a900473ffffffffffffffffffffffffffffffffffffffff1673ffffffffffffffffffffffffffffffffffffffff1663a9059cbb3360025460026106e29190610e0e565b6040518363ffffffff1660e01b81526004016106ff929190610b2a565b6020604051808303815f875af115801561071b573d5f803e3d5ffd5b505050506040513d601f19601f8201168201806040525081019061073f9190610b86565b506040518060400160405280600881526020017f596f752057696e2100000000000000000000000000000000000000000000000081525090506107b6565b6040518060400160405280600981526020017f596f75204c6f736521000000000000000000000000000000000000000000000081525090505b5b3373ffffffffffffffffffffffffffffffffffffffff167f81ece0fe13bc5ef6c1a6e876f9d5dd11367da413432e08a50df9cbd84a15912a84848460405161080193929190610ef5565b60405180910390a250505050565b5f8054906101000a900473ffffffffffffffffffffffffffffffffffffffff1681565b60015f9054906101000a900473ffffffffffffffffffffffffffffffffffffffff1681565b60025481565b5f805f9054906101000a900473ffffffffffffffffffffffffffffffffffffffff1673ffffffffffffffffffffffffffffffffffffffff166370a08231306040518263ffffffff1660e01b81526004016108b79190610a13565b602060405180830381865afa1580156108d2573d5f803e3d5ffd5b505050506040513d601f19601f820116820180604052508101906108f69190610aff565b905090565b5f80fd5b5f60ff82169050919050565b610914816108ff565b811461091e575f80fd5b50565b5f8135905061092f8161090b565b92915050565b5f6020828403121561094a576109496108fb565b5b5f61095784828501610921565b91505092915050565b5f73ffffffffffffffffffffffffffffffffffffffff82169050919050565b5f819050919050565b5f6109a261099d61099884610960565b61097f565b610960565b9050919050565b5f6109b382610988565b9050919050565b5f6109c4826109a9565b9050919050565b6109d4816109ba565b82525050565b5f6020820190506109ed5f8301846109cb565b92915050565b5f6109fd82610960565b9050919050565b610a0d816109f3565b82525050565b5f602082019050610a265f830184610a04565b92915050565b5f819050919050565b610a3e81610a2c565b82525050565b5f602082019050610a575f830184610a35565b92915050565b5f82825260208201905092915050565b7f4f6e6c79206f776e6572000000000000000000000000000000000000000000005f82015250565b5f610aa1600a83610a5d565b9150610aac82610a6d565b602082019050919050565b5f6020820190508181035f830152610ace81610a95565b9050919050565b610ade81610a2c565b8114610ae8575f80fd5b50565b5f81519050610af981610ad5565b92915050565b5f60208284031215610b1457610b136108fb565b5b5f610b2184828501610aeb565b91505092915050565b5f604082019050610b3d5f830185610a04565b610b4a6020830184610a35565b9392505050565b5f8115159050919050565b610b6581610b51565b8114610b6f575f80fd5b50565b5f81519050610b8081610b5c565b92915050565b5f60208284031215610b9b57610b9a6108fb565b5b5f610ba884828501610b72565b91505092915050565b7f496e76616c6964206d6f766500000000000000000000000000000000000000005f82015250565b5f610be5600c83610a5d565b9150610bf082610bb1565b602082019050919050565b5f6020820190508181035f830152610c1281610bd9565b9050919050565b5f606082019050610c2c5f830186610a04565b610c396020830185610a04565b610c466040830184610a35565b949350505050565b7f535454207472616e73666572206661696c6564000000000000000000000000005f82015250565b5f610c82601383610a5d565b9150610c8d82610c4e565b602082019050919050565b5f6020820190508181035f830152610caf81610c76565b9050919050565b7f4e487b71000000000000000000000000000000000000000000000000000000005f52602160045260245ffd5b5f819050919050565b610cfd610cf882610a2c565b610ce3565b82525050565b5f8160601b9050919050565b5f610d1982610d03565b9050919050565b5f610d2a82610d0f565b9050919050565b610d42610d3d826109f3565b610d20565b82525050565b5f610d538286610cec565b602082019150610d638285610d31565b601482019150610d738284610cec565b602082019150819050949350505050565b7f4e487b71000000000000000000000000000000000000000000000000000000005f52601260045260245ffd5b5f610dbb82610a2c565b9150610dc683610a2c565b925082610dd657610dd5610d84565b5b828206905092915050565b7f4e487b71000000000000000000000000000000000000000000000000000000005f52601160045260245ffd5b5f610e1882610a2c565b9150610e2383610a2c565b9250828202610e3181610a2c565b91508282048414831517610e4857610e47610de1565b5b5092915050565b60038110610e6057610e5f610cb6565b5b50565b5f819050610e7082610e4f565b919050565b5f610e7f82610e63565b9050919050565b610e8f81610e75565b82525050565b5f81519050919050565b8281835e5f83830152505050565b5f601f19601f8301169050919050565b5f610ec782610e95565b610ed18185610a5d565b9350610ee1818560208601610e9f565b610eea81610ead565b840191505092915050565b5f606082019050610f085f830186610e86565b610f156020830185610e86565b8181036040830152610f278184610ebd565b905094935050505056fea2646970667358221220e82bdcbdc8fcf58e1d1ee876b632b66b1055578f9db7df79a296d0179dce3ac464736f6c634300081a0033",
			"opcodes": "PUSH1 0x80 PUSH1 0x40 MSTORE PUSH8 0xDE0B6B3A7640000 PUSH1 0x2 SSTORE CALLVALUE DUP1 ISZERO PUSH2 0x1B JUMPI PUSH0 DUP1 REVERT JUMPDEST POP PUSH1 0x40 MLOAD PUSH2 0x10BF CODESIZE SUB DUP1 PUSH2 0x10BF DUP4 CODECOPY DUP2 DUP2 ADD PUSH1 0x40 MSTORE DUP2 ADD SWAP1 PUSH2 0x3D SWAP2 SWAP1 PUSH2 0x120 JUMP JUMPDEST DUP1 PUSH0 DUP1 PUSH2 0x100 EXP DUP2 SLOAD DUP2 PUSH20 0xFFFFFFFFFFFFFFFFFFFFFFFFFFFFFFFFFFFFFFFF MUL NOT AND SWAP1 DUP4 PUSH20 0xFFFFFFFFFFFFFFFFFFFFFFFFFFFFFFFFFFFFFFFF AND MUL OR SWAP1 SSTORE POP CALLER PUSH1 0x1 PUSH0 PUSH2 0x100 EXP DUP2 SLOAD DUP2 PUSH20 0xFFFFFFFFFFFFFFFFFFFFFFFFFFFFFFFFFFFFFFFF MUL NOT AND SWAP1 DUP4 PUSH20 0xFFFFFFFFFFFFFFFFFFFFFFFFFFFFFFFFFFFFFFFF AND MUL OR SWAP1 SSTORE POP POP PUSH2 0x14B JUMP JUMPDEST PUSH0 DUP1 REVERT JUMPDEST PUSH0 PUSH20 0xFFFFFFFFFFFFFFFFFFFFFFFFFFFFFFFFFFFFFFFF DUP3 AND SWAP1 POP SWAP2 SWAP1 POP JUMP JUMPDEST PUSH0 PUSH2 0xEF DUP3 PUSH2 0xC6 JUMP JUMPDEST SWAP1 POP SWAP2 SWAP1 POP JUMP JUMPDEST PUSH2 0xFF DUP2 PUSH2 0xE5 JUMP JUMPDEST DUP2 EQ PUSH2 0x109 JUMPI PUSH0 DUP1 REVERT JUMPDEST POP JUMP JUMPDEST PUSH0 DUP2 MLOAD SWAP1 POP PUSH2 0x11A DUP2 PUSH2 0xF6 JUMP JUMPDEST SWAP3 SWAP2 POP POP JUMP JUMPDEST PUSH0 PUSH1 0x20 DUP3 DUP5 SUB SLT ISZERO PUSH2 0x135 JUMPI PUSH2 0x134 PUSH2 0xC2 JUMP JUMPDEST JUMPDEST PUSH0 PUSH2 0x142 DUP5 DUP3 DUP6 ADD PUSH2 0x10C JUMP JUMPDEST SWAP2 POP POP SWAP3 SWAP2 POP POP JUMP JUMPDEST PUSH2 0xF67 DUP1 PUSH2 0x158 PUSH0 CODECOPY PUSH0 RETURN INVALID PUSH1 0x80 PUSH1 0x40 MSTORE CALLVALUE DUP1 ISZERO PUSH2 0xF JUMPI PUSH0 DUP1 REVERT JUMPDEST POP PUSH1 0x4 CALLDATASIZE LT PUSH2 0x60 JUMPI PUSH0 CALLDATALOAD PUSH1 0xE0 SHR DUP1 PUSH4 0x3CCFD60B EQ PUSH2 0x64 JUMPI DUP1 PUSH4 0x53A04B05 EQ PUSH2 0x6E JUMPI DUP1 PUSH4 0x7882BF7E EQ PUSH2 0x8A JUMPI DUP1 PUSH4 0x8DA5CB5B EQ PUSH2 0xA8 JUMPI DUP1 PUSH4 0xD24257C0 EQ PUSH2 0xC6 JUMPI DUP1 PUSH4 0xF73DD028 EQ PUSH2 0xE4 JUMPI JUMPDEST PUSH0 DUP1 REVERT JUMPDEST PUSH2 0x6C PUSH2 0x102 JUMP JUMPDEST STOP JUMPDEST PUSH2 0x88 PUSH1 0x4 DUP1 CALLDATASIZE SUB DUP2 ADD SWAP1 PUSH2 0x83 SWAP2 SWAP1 PUSH2 0x935 JUMP JUMPDEST PUSH2 0x2EB JUMP JUMPDEST STOP JUMPDEST PUSH2 0x92 PUSH2 0x80F JUMP JUMPDEST PUSH1 0x40 MLOAD PUSH2 0x9F SWAP2 SWAP1 PUSH2 0x9DA JUMP JUMPDEST PUSH1 0x40 MLOAD DUP1 SWAP2 SUB SWAP1 RETURN JUMPDEST PUSH2 0xB0 PUSH2 0x832 JUMP JUMPDEST PUSH1 0x40 MLOAD PUSH2 0xBD SWAP2 SWAP1 PUSH2 0xA13 JUMP JUMPDEST PUSH1 0x40 MLOAD DUP1 SWAP2 SUB SWAP1 RETURN JUMPDEST PUSH2 0xCE PUSH2 0x857 JUMP JUMPDEST PUSH1 0x40 MLOAD PUSH2 0xDB SWAP2 SWAP1 PUSH2 0xA44 JUMP JUMPDEST PUSH1 0x40 MLOAD DUP1 SWAP2 SUB SWAP1 RETURN JUMPDEST PUSH2 0xEC PUSH2 0x85D JUMP JUMPDEST PUSH1 0x40 MLOAD PUSH2 0xF9 SWAP2 SWAP1 PUSH2 0xA44 JUMP JUMPDEST PUSH1 0x40 MLOAD DUP1 SWAP2 SUB SWAP1 RETURN JUMPDEST PUSH1 0x1 PUSH0 SWAP1 SLOAD SWAP1 PUSH2 0x100 EXP SWAP1 DIV PUSH20 0xFFFFFFFFFFFFFFFFFFFFFFFFFFFFFFFFFFFFFFFF AND PUSH20 0xFFFFFFFFFFFFFFFFFFFFFFFFFFFFFFFFFFFFFFFF AND CALLER PUSH20 0xFFFFFFFFFFFFFFFFFFFFFFFFFFFFFFFFFFFFFFFF AND EQ PUSH2 0x191 JUMPI PUSH1 0x40 MLOAD PUSH32 0x8C379A000000000000000000000000000000000000000000000000000000000 DUP2 MSTORE PUSH1 0x4 ADD PUSH2 0x188 SWAP1 PUSH2 0xAB7 JUMP JUMPDEST PUSH1 0x40 MLOAD DUP1 SWAP2 SUB SWAP1 REVERT JUMPDEST PUSH0 DUP1 PUSH0 SWAP1 SLOAD SWAP1 PUSH2 0x100 EXP SWAP1 DIV PUSH20 0xFFFFFFFFFFFFFFFFFFFFFFFFFFFFFFFFFFFFFFFF AND PUSH20 0xFFFFFFFFFFFFFFFFFFFFFFFFFFFFFFFFFFFFFFFF AND PUSH4 0x70A08231 ADDRESS PUSH1 0x40 MLOAD DUP3 PUSH4 0xFFFFFFFF AND PUSH1 0xE0 SHL DUP2 MSTORE PUSH1 0x4 ADD PUSH2 0x1EB SWAP2 SWAP1 PUSH2 0xA13 JUMP JUMPDEST PUSH1 0x20 PUSH1 0x40 MLOAD DUP1 DUP4 SUB DUP2 DUP7 GAS STATICCALL ISZERO DUP1 ISZERO PUSH2 0x206 JUMPI RETURNDATASIZE PUSH0 DUP1 RETURNDATACOPY RETURNDATASIZE PUSH0 REVERT JUMPDEST POP POP POP POP PUSH1 0x40 MLOAD RETURNDATASIZE PUSH1 0x1F NOT PUSH1 0x1F DUP3 ADD AND DUP3 ADD DUP1 PUSH1 0x40 MSTORE POP DUP2 ADD SWAP1 PUSH2 0x22A SWAP2 SWAP1 PUSH2 0xAFF JUMP JUMPDEST SWAP1 POP PUSH0 DUP1 SLOAD SWAP1 PUSH2 0x100 EXP SWAP1 DIV PUSH20 0xFFFFFFFFFFFFFFFFFFFFFFFFFFFFFFFFFFFFFFFF AND PUSH20 0xFFFFFFFFFFFFFFFFFFFFFFFFFFFFFFFFFFFFFFFF AND PUSH4 0xA9059CBB PUSH1 0x1 PUSH0 SWAP1 SLOAD SWAP1 PUSH2 0x100 EXP SWAP1 DIV PUSH20 0xFFFFFFFFFFFFFFFFFFFFFFFFFFFFFFFFFFFFFFFF AND DUP4 PUSH1 0x40 MLOAD DUP4 PUSH4 0xFFFFFFFF AND PUSH1 0xE0 SHL DUP2 MSTORE PUSH1 0x4 ADD PUSH2 0x2A7 SWAP3 SWAP2 SWAP1 PUSH2 0xB2A JUMP JUMPDEST PUSH1 0x20 PUSH1 0x40 MLOAD DUP1 DUP4 SUB DUP2 PUSH0 DUP8 GAS CALL ISZERO DUP1 ISZERO PUSH2 0x2C3 JUMPI RETURNDATASIZE PUSH0 DUP1 RETURNDATACOPY RETURNDATASIZE PUSH0 REVERT JUMPDEST POP POP POP POP PUSH1 0x40 MLOAD RETURNDATASIZE PUSH1 0x1F NOT PUSH1 0x1F DUP3 ADD AND DUP3 ADD DUP1 PUSH1 0x40 MSTORE POP DUP2 ADD SWAP1 PUSH2 0x2E7 SWAP2 SWAP1 PUSH2 0xB86 JUMP JUMPDEST POP POP JUMP JUMPDEST PUSH1 0x2 DUP2 PUSH1 0xFF AND GT ISZERO PUSH2 0x332 JUMPI PUSH1 0x40 MLOAD PUSH32 0x8C379A000000000000000000000000000000000000000000000000000000000 DUP2 MSTORE PUSH1 0x4 ADD PUSH2 0x329 SWAP1 PUSH2 0xBFB JUMP JUMPDEST PUSH1 0x40 MLOAD DUP1 SWAP2 SUB SWAP1 REVERT JUMPDEST PUSH0 DUP1 SLOAD SWAP1 PUSH2 0x100 EXP SWAP1 DIV PUSH20 0xFFFFFFFFFFFFFFFFFFFFFFFFFFFFFFFFFFFFFFFF AND PUSH20 0xFFFFFFFFFFFFFFFFFFFFFFFFFFFFFFFFFFFFFFFF AND PUSH4 0x23B872DD CALLER ADDRESS PUSH1 0x2 SLOAD PUSH1 0x40 MLOAD DUP5 PUSH4 0xFFFFFFFF AND PUSH1 0xE0 SHL DUP2 MSTORE PUSH1 0x4 ADD PUSH2 0x390 SWAP4 SWAP3 SWAP2 SWAP1 PUSH2 0xC19 JUMP JUMPDEST PUSH1 0x20 PUSH1 0x40 MLOAD DUP1 DUP4 SUB DUP2 PUSH0 DUP8 GAS CALL ISZERO DUP1 ISZERO PUSH2 0x3AC JUMPI RETURNDATASIZE PUSH0 DUP1 RETURNDATACOPY RETURNDATASIZE PUSH0 REVERT JUMPDEST POP POP POP POP PUSH1 0x40 MLOAD RETURNDATASIZE PUSH1 0x1F NOT PUSH1 0x1F DUP3 ADD AND DUP3 ADD DUP1 PUSH1 0x40 MSTORE POP DUP2 ADD SWAP1 PUSH2 0x3D0 SWAP2 SWAP1 PUSH2 0xB86 JUMP JUMPDEST PUSH2 0x40F JUMPI PUSH1 0x40 MLOAD PUSH32 0x8C379A000000000000000000000000000000000000000000000000000000000 DUP2 MSTORE PUSH1 0x4 ADD PUSH2 0x406 SWAP1 PUSH2 0xC98 JUMP JUMPDEST PUSH1 0x40 MLOAD DUP1 SWAP2 SUB SWAP1 REVERT JUMPDEST PUSH0 DUP2 PUSH1 0xFF AND PUSH1 0x2 DUP2 GT ISZERO PUSH2 0x426 JUMPI PUSH2 0x425 PUSH2 0xCB6 JUMP JUMPDEST JUMPDEST SWAP1 POP PUSH0 PUSH1 0x3 TIMESTAMP CALLER PREVRANDAO PUSH1 0x40 MLOAD PUSH1 0x20 ADD PUSH2 0x440 SWAP4 SWAP3 SWAP2 SWAP1 PUSH2 0xD48 JUMP JUMPDEST PUSH1 0x40 MLOAD PUSH1 0x20 DUP2 DUP4 SUB SUB DUP2 MSTORE SWAP1 PUSH1 0x40 MSTORE DUP1 MLOAD SWAP1 PUSH1 0x20 ADD KECCAK256 PUSH0 SHR PUSH2 0x462 SWAP2 SWAP1 PUSH2 0xDB1 JUMP JUMPDEST PUSH1 0xFF AND PUSH1 0x2 DUP2 GT ISZERO PUSH2 0x477 JUMPI PUSH2 0x476 PUSH2 0xCB6 JUMP JUMPDEST JUMPDEST SWAP1 POP PUSH1 0x60 DUP2 PUSH1 0x2 DUP2 GT ISZERO PUSH2 0x48E JUMPI PUSH2 0x48D PUSH2 0xCB6 JUMP JUMPDEST JUMPDEST DUP4 PUSH1 0x2 DUP2 GT ISZERO PUSH2 0x4A1 JUMPI PUSH2 0x4A0 PUSH2 0xCB6 JUMP JUMPDEST JUMPDEST SUB PUSH2 0x580 JUMPI PUSH0 DUP1 SLOAD SWAP1 PUSH2 0x100 EXP SWAP1 DIV PUSH20 0xFFFFFFFFFFFFFFFFFFFFFFFFFFFFFFFFFFFFFFFF AND PUSH20 0xFFFFFFFFFFFFFFFFFFFFFFFFFFFFFFFFFFFFFFFF AND PUSH4 0xA9059CBB CALLER PUSH1 0x2 SLOAD PUSH1 0x40 MLOAD DUP4 PUSH4 0xFFFFFFFF AND PUSH1 0xE0 SHL DUP2 MSTORE PUSH1 0x4 ADD PUSH2 0x502 SWAP3 SWAP2 SWAP1 PUSH2 0xB2A JUMP JUMPDEST PUSH1 0x20 PUSH1 0x40 MLOAD DUP1 DUP4 SUB DUP2 PUSH0 DUP8 GAS CALL ISZERO DUP1 ISZERO PUSH2 0x51E JUMPI RETURNDATASIZE PUSH0 DUP1 RETURNDATACOPY RETURNDATASIZE PUSH0 REVERT JUMPDEST POP POP POP POP PUSH1 0x40 MLOAD RETURNDATASIZE PUSH1 0x1F NOT PUSH1 0x1F DUP3 ADD AND DUP3 ADD DUP1 PUSH1 0x40 MSTORE POP DUP2 ADD SWAP1 PUSH2 0x542 SWAP2 SWAP1 PUSH2 0xB86 JUMP JUMPDEST POP PUSH1 0x40 MLOAD DUP1 PUSH1 0x40 ADD PUSH1 0x40 MSTORE DUP1 PUSH1 0x4 DUP2 MSTORE PUSH1 0x20 ADD PUSH32 0x4472617700000000000000000000000000000000000000000000000000000000 DUP2 MSTORE POP SWAP1 POP PUSH2 0x7B7 JUMP JUMPDEST PUSH0 PUSH1 0x2 DUP2 GT ISZERO PUSH2 0x593 JUMPI PUSH2 0x592 PUSH2 0xCB6 JUMP JUMPDEST JUMPDEST DUP4 PUSH1 0x2 DUP2 GT ISZERO PUSH2 0x5A6 JUMPI PUSH2 0x5A5 PUSH2 0xCB6 JUMP JUMPDEST JUMPDEST EQ DUP1 ISZERO PUSH2 0x5D6 JUMPI POP PUSH1 0x2 DUP1 DUP2 GT ISZERO PUSH2 0x5C1 JUMPI PUSH2 0x5C0 PUSH2 0xCB6 JUMP JUMPDEST JUMPDEST DUP3 PUSH1 0x2 DUP2 GT ISZERO PUSH2 0x5D4 JUMPI PUSH2 0x5D3 PUSH2 0xCB6 JUMP JUMPDEST JUMPDEST EQ JUMPDEST DUP1 PUSH2 0x634 JUMPI POP PUSH1 0x1 PUSH1 0x2 DUP2 GT ISZERO PUSH2 0x5F0 JUMPI PUSH2 0x5EF PUSH2 0xCB6 JUMP JUMPDEST JUMPDEST DUP4 PUSH1 0x2 DUP2 GT ISZERO PUSH2 0x603 JUMPI PUSH2 0x602 PUSH2 0xCB6 JUMP JUMPDEST JUMPDEST EQ DUP1 ISZERO PUSH2 0x633 JUMPI POP PUSH0 PUSH1 0x2 DUP2 GT ISZERO PUSH2 0x61E JUMPI PUSH2 0x61D PUSH2 0xCB6 JUMP JUMPDEST JUMPDEST DUP3 PUSH1 0x2 DUP2 GT ISZERO PUSH2 0x631 JUMPI PUSH2 0x630 PUSH2 0xCB6 JUMP JUMPDEST JUMPDEST EQ JUMPDEST JUMPDEST DUP1 PUSH2 0x692 JUMPI POP PUSH1 0x2 DUP1 DUP2 GT ISZERO PUSH2 0x64D JUMPI PUSH2 0x64C PUSH2 0xCB6 JUMP JUMPDEST JUMPDEST DUP4 PUSH1 0x2 DUP2 GT ISZERO PUSH2 0x660 JUMPI PUSH2 0x65F PUSH2 0xCB6 JUMP JUMPDEST JUMPDEST EQ DUP1 ISZERO PUSH2 0x691 JUMPI POP PUSH1 0x1 PUSH1 0x2 DUP2 GT ISZERO PUSH2 0x67C JUMPI PUSH2 0x67B PUSH2 0xCB6 JUMP JUMPDEST JUMPDEST DUP3 PUSH1 0x2 DUP2 GT ISZERO PUSH2 0x68F JUMPI PUSH2 0x68E PUSH2 0xCB6 JUMP JUMPDEST JUMPDEST EQ JUMPDEST JUMPDEST ISZERO PUSH2 0x77D JUMPI PUSH0 DUP1 SLOAD SWAP1 PUSH2 0x100 EXP SWAP1 DIV PUSH20 0xFFFFFFFFFFFFFFFFFFFFFFFFFFFFFFFFFFFFFFFF AND PUSH20 0xFFFFFFFFFFFFFFFFFFFFFFFFFFFFFFFFFFFFFFFF AND PUSH4 0xA9059CBB CALLER PUSH1 0x2 SLOAD PUSH1 0x2 PUSH2 0x6E2 SWAP2 SWAP1 PUSH2 0xE0E JUMP JUMPDEST PUSH1 0x40 MLOAD DUP4 PUSH4 0xFFFFFFFF AND PUSH1 0xE0 SHL DUP2 MSTORE PUSH1 0x4 ADD PUSH2 0x6FF SWAP3 SWAP2 SWAP1 PUSH2 0xB2A JUMP JUMPDEST PUSH1 0x20 PUSH1 0x40 MLOAD DUP1 DUP4 SUB DUP2 PUSH0 DUP8 GAS CALL ISZERO DUP1 ISZERO PUSH2 0x71B JUMPI RETURNDATASIZE PUSH0 DUP1 RETURNDATACOPY RETURNDATASIZE PUSH0 REVERT JUMPDEST POP POP POP POP PUSH1 0x40 MLOAD RETURNDATASIZE PUSH1 0x1F NOT PUSH1 0x1F DUP3 ADD AND DUP3 ADD DUP1 PUSH1 0x40 MSTORE POP DUP2 ADD SWAP1 PUSH2 0x73F SWAP2 SWAP1 PUSH2 0xB86 JUMP JUMPDEST POP PUSH1 0x40 MLOAD DUP1 PUSH1 0x40 ADD PUSH1 0x40 MSTORE DUP1 PUSH1 0x8 DUP2 MSTORE PUSH1 0x20 ADD PUSH32 0x596F752057696E21000000000000000000000000000000000000000000000000 DUP2 MSTORE POP SWAP1 POP PUSH2 0x7B6 JUMP JUMPDEST PUSH1 0x40 MLOAD DUP1 PUSH1 0x40 ADD PUSH1 0x40 MSTORE DUP1 PUSH1 0x9 DUP2 MSTORE PUSH1 0x20 ADD PUSH32 0x596F75204C6F7365210000000000000000000000000000000000000000000000 DUP2 MSTORE POP SWAP1 POP JUMPDEST JUMPDEST CALLER PUSH20 0xFFFFFFFFFFFFFFFFFFFFFFFFFFFFFFFFFFFFFFFF AND PUSH32 0x81ECE0FE13BC5EF6C1A6E876F9D5DD11367DA413432E08A50DF9CBD84A15912A DUP5 DUP5 DUP5 PUSH1 0x40 MLOAD PUSH2 0x801 SWAP4 SWAP3 SWAP2 SWAP1 PUSH2 0xEF5 JUMP JUMPDEST PUSH1 0x40 MLOAD DUP1 SWAP2 SUB SWAP1 LOG2 POP POP POP POP JUMP JUMPDEST PUSH0 DUP1 SLOAD SWAP1 PUSH2 0x100 EXP SWAP1 DIV PUSH20 0xFFFFFFFFFFFFFFFFFFFFFFFFFFFFFFFFFFFFFFFF AND DUP2 JUMP JUMPDEST PUSH1 0x1 PUSH0 SWAP1 SLOAD SWAP1 PUSH2 0x100 EXP SWAP1 DIV PUSH20 0xFFFFFFFFFFFFFFFFFFFFFFFFFFFFFFFFFFFFFFFF AND DUP2 JUMP JUMPDEST PUSH1 0x2 SLOAD DUP2 JUMP JUMPDEST PUSH0 DUP1 PUSH0 SWAP1 SLOAD SWAP1 PUSH2 0x100 EXP SWAP1 DIV PUSH20 0xFFFFFFFFFFFFFFFFFFFFFFFFFFFFFFFFFFFFFFFF AND PUSH20 0xFFFFFFFFFFFFFFFFFFFFFFFFFFFFFFFFFFFFFFFF AND PUSH4 0x70A08231 ADDRESS PUSH1 0x40 MLOAD DUP3 PUSH4 0xFFFFFFFF AND PUSH1 0xE0 SHL DUP2 MSTORE PUSH1 0x4 ADD PUSH2 0x8B7 SWAP2 SWAP1 PUSH2 0xA13 JUMP JUMPDEST PUSH1 0x20 PUSH1 0x40 MLOAD DUP1 DUP4 SUB DUP2 DUP7 GAS STATICCALL ISZERO DUP1 ISZERO PUSH2 0x8D2 JUMPI RETURNDATASIZE PUSH0 DUP1 RETURNDATACOPY RETURNDATASIZE PUSH0 REVERT JUMPDEST POP POP POP POP PUSH1 0x40 MLOAD RETURNDATASIZE PUSH1 0x1F NOT PUSH1 0x1F DUP3 ADD AND DUP3 ADD DUP1 PUSH1 0x40 MSTORE POP DUP2 ADD SWAP1 PUSH2 0x8F6 SWAP2 SWAP1 PUSH2 0xAFF JUMP JUMPDEST SWAP1 POP SWAP1 JUMP JUMPDEST PUSH0 DUP1 REVERT JUMPDEST PUSH0 PUSH1 0xFF DUP3 AND SWAP1 POP SWAP2 SWAP1 POP JUMP JUMPDEST PUSH2 0x914 DUP2 PUSH2 0x8FF JUMP JUMPDEST DUP2 EQ PUSH2 0x91E JUMPI PUSH0 DUP1 REVERT JUMPDEST POP JUMP JUMPDEST PUSH0 DUP2 CALLDATALOAD SWAP1 POP PUSH2 0x92F DUP2 PUSH2 0x90B JUMP JUMPDEST SWAP3 SWAP2 POP POP JUMP JUMPDEST PUSH0 PUSH1 0x20 DUP3 DUP5 SUB SLT ISZERO PUSH2 0x94A JUMPI PUSH2 0x949 PUSH2 0x8FB JUMP JUMPDEST JUMPDEST PUSH0 PUSH2 0x957 DUP5 DUP3 DUP6 ADD PUSH2 0x921 JUMP JUMPDEST SWAP2 POP POP SWAP3 SWAP2 POP POP JUMP JUMPDEST PUSH0 PUSH20 0xFFFFFFFFFFFFFFFFFFFFFFFFFFFFFFFFFFFFFFFF DUP3 AND SWAP1 POP SWAP2 SWAP1 POP JUMP JUMPDEST PUSH0 DUP2 SWAP1 POP SWAP2 SWAP1 POP JUMP JUMPDEST PUSH0 PUSH2 0x9A2 PUSH2 0x99D PUSH2 0x998 DUP5 PUSH2 0x960 JUMP JUMPDEST PUSH2 0x97F JUMP JUMPDEST PUSH2 0x960 JUMP JUMPDEST SWAP1 POP SWAP2 SWAP1 POP JUMP JUMPDEST PUSH0 PUSH2 0x9B3 DUP3 PUSH2 0x988 JUMP JUMPDEST SWAP1 POP SWAP2 SWAP1 POP JUMP JUMPDEST PUSH0 PUSH2 0x9C4 DUP3 PUSH2 0x9A9 JUMP JUMPDEST SWAP1 POP SWAP2 SWAP1 POP JUMP JUMPDEST PUSH2 0x9D4 DUP2 PUSH2 0x9BA JUMP JUMPDEST DUP3 MSTORE POP POP JUMP JUMPDEST PUSH0 PUSH1 0x20 DUP3 ADD SWAP1 POP PUSH2 0x9ED PUSH0 DUP4 ADD DUP5 PUSH2 0x9CB JUMP JUMPDEST SWAP3 SWAP2 POP POP JUMP JUMPDEST PUSH0 PUSH2 0x9FD DUP3 PUSH2 0x960 JUMP JUMPDEST SWAP1 POP SWAP2 SWAP1 POP JUMP JUMPDEST PUSH2 0xA0D DUP2 PUSH2 0x9F3 JUMP JUMPDEST DUP3 MSTORE POP POP JUMP JUMPDEST PUSH0 PUSH1 0x20 DUP3 ADD SWAP1 POP PUSH2 0xA26 PUSH0 DUP4 ADD DUP5 PUSH2 0xA04 JUMP JUMPDEST SWAP3 SWAP2 POP POP JUMP JUMPDEST PUSH0 DUP2 SWAP1 POP SWAP2 SWAP1 POP JUMP JUMPDEST PUSH2 0xA3E DUP2 PUSH2 0xA2C JUMP JUMPDEST DUP3 MSTORE POP POP JUMP JUMPDEST PUSH0 PUSH1 0x20 DUP3 ADD SWAP1 POP PUSH2 0xA57 PUSH0 DUP4 ADD DUP5 PUSH2 0xA35 JUMP JUMPDEST SWAP3 SWAP2 POP POP JUMP JUMPDEST PUSH0 DUP3 DUP3 MSTORE PUSH1 0x20 DUP3 ADD SWAP1 POP SWAP3 SWAP2 POP POP JUMP JUMPDEST PUSH32 0x4F6E6C79206F776E657200000000000000000000000000000000000000000000 PUSH0 DUP3 ADD MSTORE POP JUMP JUMPDEST PUSH0 PUSH2 0xAA1 PUSH1 0xA DUP4 PUSH2 0xA5D JUMP JUMPDEST SWAP2 POP PUSH2 0xAAC DUP3 PUSH2 0xA6D JUMP JUMPDEST PUSH1 0x20 DUP3 ADD SWAP1 POP SWAP2 SWAP1 POP JUMP JUMPDEST PUSH0 PUSH1 0x20 DUP3 ADD SWAP1 POP DUP2 DUP2 SUB PUSH0 DUP4 ADD MSTORE PUSH2 0xACE DUP2 PUSH2 0xA95 JUMP JUMPDEST SWAP1 POP SWAP2 SWAP1 POP JUMP JUMPDEST PUSH2 0xADE DUP2 PUSH2 0xA2C JUMP JUMPDEST DUP2 EQ PUSH2 0xAE8 JUMPI PUSH0 DUP1 REVERT JUMPDEST POP JUMP JUMPDEST PUSH0 DUP2 MLOAD SWAP1 POP PUSH2 0xAF9 DUP2 PUSH2 0xAD5 JUMP JUMPDEST SWAP3 SWAP2 POP POP JUMP JUMPDEST PUSH0 PUSH1 0x20 DUP3 DUP5 SUB SLT ISZERO PUSH2 0xB14 JUMPI PUSH2 0xB13 PUSH2 0x8FB JUMP JUMPDEST JUMPDEST PUSH0 PUSH2 0xB21 DUP5 DUP3 DUP6 ADD PUSH2 0xAEB JUMP JUMPDEST SWAP2 POP POP SWAP3 SWAP2 POP POP JUMP JUMPDEST PUSH0 PUSH1 0x40 DUP3 ADD SWAP1 POP PUSH2 0xB3D PUSH0 DUP4 ADD DUP6 PUSH2 0xA04 JUMP JUMPDEST PUSH2 0xB4A PUSH1 0x20 DUP4 ADD DUP5 PUSH2 0xA35 JUMP JUMPDEST SWAP4 SWAP3 POP POP POP JUMP JUMPDEST PUSH0 DUP2 ISZERO ISZERO SWAP1 POP SWAP2 SWAP1 POP JUMP JUMPDEST PUSH2 0xB65 DUP2 PUSH2 0xB51 JUMP JUMPDEST DUP2 EQ PUSH2 0xB6F JUMPI PUSH0 DUP1 REVERT JUMPDEST POP JUMP JUMPDEST PUSH0 DUP2 MLOAD SWAP1 POP PUSH2 0xB80 DUP2 PUSH2 0xB5C JUMP JUMPDEST SWAP3 SWAP2 POP POP JUMP JUMPDEST PUSH0 PUSH1 0x20 DUP3 DUP5 SUB SLT ISZERO PUSH2 0xB9B JUMPI PUSH2 0xB9A PUSH2 0x8FB JUMP JUMPDEST JUMPDEST PUSH0 PUSH2 0xBA8 DUP5 DUP3 DUP6 ADD PUSH2 0xB72 JUMP JUMPDEST SWAP2 POP POP SWAP3 SWAP2 POP POP JUMP JUMPDEST PUSH32 0x496E76616C6964206D6F76650000000000000000000000000000000000000000 PUSH0 DUP3 ADD MSTORE POP JUMP JUMPDEST PUSH0 PUSH2 0xBE5 PUSH1 0xC DUP4 PUSH2 0xA5D JUMP JUMPDEST SWAP2 POP PUSH2 0xBF0 DUP3 PUSH2 0xBB1 JUMP JUMPDEST PUSH1 0x20 DUP3 ADD SWAP1 POP SWAP2 SWAP1 POP JUMP JUMPDEST PUSH0 PUSH1 0x20 DUP3 ADD SWAP1 POP DUP2 DUP2 SUB PUSH0 DUP4 ADD MSTORE PUSH2 0xC12 DUP2 PUSH2 0xBD9 JUMP JUMPDEST SWAP1 POP SWAP2 SWAP1 POP JUMP JUMPDEST PUSH0 PUSH1 0x60 DUP3 ADD SWAP1 POP PUSH2 0xC2C PUSH0 DUP4 ADD DUP7 PUSH2 0xA04 JUMP JUMPDEST PUSH2 0xC39 PUSH1 0x20 DUP4 ADD DUP6 PUSH2 0xA04 JUMP JUMPDEST PUSH2 0xC46 PUSH1 0x40 DUP4 ADD DUP5 PUSH2 0xA35 JUMP JUMPDEST SWAP5 SWAP4 POP POP POP POP JUMP JUMPDEST PUSH32 0x535454207472616E73666572206661696C656400000000000000000000000000 PUSH0 DUP3 ADD MSTORE POP JUMP JUMPDEST PUSH0 PUSH2 0xC82 PUSH1 0x13 DUP4 PUSH2 0xA5D JUMP JUMPDEST SWAP2 POP PUSH2 0xC8D DUP3 PUSH2 0xC4E JUMP JUMPDEST PUSH1 0x20 DUP3 ADD SWAP1 POP SWAP2 SWAP1 POP JUMP JUMPDEST PUSH0 PUSH1 0x20 DUP3 ADD SWAP1 POP DUP2 DUP2 SUB PUSH0 DUP4 ADD MSTORE PUSH2 0xCAF DUP2 PUSH2 0xC76 JUMP JUMPDEST SWAP1 POP SWAP2 SWAP1 POP JUMP JUMPDEST PUSH32 0x4E487B7100000000000000000000000000000000000000000000000000000000 PUSH0 MSTORE PUSH1 0x21 PUSH1 0x4 MSTORE PUSH1 0x24 PUSH0 REVERT JUMPDEST PUSH0 DUP2 SWAP1 POP SWAP2 SWAP1 POP JUMP JUMPDEST PUSH2 0xCFD PUSH2 0xCF8 DUP3 PUSH2 0xA2C JUMP JUMPDEST PUSH2 0xCE3 JUMP JUMPDEST DUP3 MSTORE POP POP JUMP JUMPDEST PUSH0 DUP2 PUSH1 0x60 SHL SWAP1 POP SWAP2 SWAP1 POP JUMP JUMPDEST PUSH0 PUSH2 0xD19 DUP3 PUSH2 0xD03 JUMP JUMPDEST SWAP1 POP SWAP2 SWAP1 POP JUMP JUMPDEST PUSH0 PUSH2 0xD2A DUP3 PUSH2 0xD0F JUMP JUMPDEST SWAP1 POP SWAP2 SWAP1 POP JUMP JUMPDEST PUSH2 0xD42 PUSH2 0xD3D DUP3 PUSH2 0x9F3 JUMP JUMPDEST PUSH2 0xD20 JUMP JUMPDEST DUP3 MSTORE POP POP JUMP JUMPDEST PUSH0 PUSH2 0xD53 DUP3 DUP7 PUSH2 0xCEC JUMP JUMPDEST PUSH1 0x20 DUP3 ADD SWAP2 POP PUSH2 0xD63 DUP3 DUP6 PUSH2 0xD31 JUMP JUMPDEST PUSH1 0x14 DUP3 ADD SWAP2 POP PUSH2 0xD73 DUP3 DUP5 PUSH2 0xCEC JUMP JUMPDEST PUSH1 0x20 DUP3 ADD SWAP2 POP DUP2 SWAP1 POP SWAP5 SWAP4 POP POP POP POP JUMP JUMPDEST PUSH32 0x4E487B7100000000000000000000000000000000000000000000000000000000 PUSH0 MSTORE PUSH1 0x12 PUSH1 0x4 MSTORE PUSH1 0x24 PUSH0 REVERT JUMPDEST PUSH0 PUSH2 0xDBB DUP3 PUSH2 0xA2C JUMP JUMPDEST SWAP2 POP PUSH2 0xDC6 DUP4 PUSH2 0xA2C JUMP JUMPDEST SWAP3 POP DUP3 PUSH2 0xDD6 JUMPI PUSH2 0xDD5 PUSH2 0xD84 JUMP JUMPDEST JUMPDEST DUP3 DUP3 MOD SWAP1 POP SWAP3 SWAP2 POP POP JUMP JUMPDEST PUSH32 0x4E487B7100000000000000000000000000000000000000000000000000000000 PUSH0 MSTORE PUSH1 0x11 PUSH1 0x4 MSTORE PUSH1 0x24 PUSH0 REVERT JUMPDEST PUSH0 PUSH2 0xE18 DUP3 PUSH2 0xA2C JUMP JUMPDEST SWAP2 POP PUSH2 0xE23 DUP4 PUSH2 0xA2C JUMP JUMPDEST SWAP3 POP DUP3 DUP3 MUL PUSH2 0xE31 DUP2 PUSH2 0xA2C JUMP JUMPDEST SWAP2 POP DUP3 DUP3 DIV DUP5 EQ DUP4 ISZERO OR PUSH2 0xE48 JUMPI PUSH2 0xE47 PUSH2 0xDE1 JUMP JUMPDEST JUMPDEST POP SWAP3 SWAP2 POP POP JUMP JUMPDEST PUSH1 0x3 DUP2 LT PUSH2 0xE60 JUMPI PUSH2 0xE5F PUSH2 0xCB6 JUMP JUMPDEST JUMPDEST POP JUMP JUMPDEST PUSH0 DUP2 SWAP1 POP PUSH2 0xE70 DUP3 PUSH2 0xE4F JUMP JUMPDEST SWAP2 SWAP1 POP JUMP JUMPDEST PUSH0 PUSH2 0xE7F DUP3 PUSH2 0xE63 JUMP JUMPDEST SWAP1 POP SWAP2 SWAP1 POP JUMP JUMPDEST PUSH2 0xE8F DUP2 PUSH2 0xE75 JUMP JUMPDEST DUP3 MSTORE POP POP JUMP JUMPDEST PUSH0 DUP2 MLOAD SWAP1 POP SWAP2 SWAP1 POP JUMP JUMPDEST DUP3 DUP2 DUP4 MCOPY PUSH0 DUP4 DUP4 ADD MSTORE POP POP POP JUMP JUMPDEST PUSH0 PUSH1 0x1F NOT PUSH1 0x1F DUP4 ADD AND SWAP1 POP SWAP2 SWAP1 POP JUMP JUMPDEST PUSH0 PUSH2 0xEC7 DUP3 PUSH2 0xE95 JUMP JUMPDEST PUSH2 0xED1 DUP2 DUP6 PUSH2 0xA5D JUMP JUMPDEST SWAP4 POP PUSH2 0xEE1 DUP2 DUP6 PUSH1 0x20 DUP7 ADD PUSH2 0xE9F JUMP JUMPDEST PUSH2 0xEEA DUP2 PUSH2 0xEAD JUMP JUMPDEST DUP5 ADD SWAP2 POP POP SWAP3 SWAP2 POP POP JUMP JUMPDEST PUSH0 PUSH1 0x60 DUP3 ADD SWAP1 POP PUSH2 0xF08 PUSH0 DUP4 ADD DUP7 PUSH2 0xE86 JUMP JUMPDEST PUSH2 0xF15 PUSH1 0x20 DUP4 ADD DUP6 PUSH2 0xE86 JUMP JUMPDEST DUP2 DUP2 SUB PUSH1 0x40 DUP4 ADD MSTORE PUSH2 0xF27 DUP2 DUP5 PUSH2 0xEBD JUMP JUMPDEST SWAP1 POP SWAP5 SWAP4 POP POP POP POP JUMP INVALID LOG2 PUSH5 0x6970667358 0x22 SLT KECCAK256 0xE8 0x2B 0xDC 0xBD 0xC8 0xFC CREATE2 DUP15 SAR 0x1E 0xE8 PUSH23 0xB632B66B1055578F9DB7DF79A296D0179DCE3AC464736F PUSH13 0x634300081A0033000000000000 "
		},
		"gasEstimates": {
			"creation": {
				"codeDepositCost": "788600",
				"executionCost": "infinite",
				"totalCost": "infinite"
			},
			"external": {
				"betAmount()": "2491",
				"owner()": "2552",
				"play(uint8)": "infinite",
				"sttToken()": "infinite",
				"sttTokenBalance()": "infinite",
				"withdraw()": "infinite"
			}
		},
		"methodIdentifiers": {
			"betAmount()": "d24257c0",
			"owner()": "8da5cb5b",
			"play(uint8)": "53a04b05",
			"sttToken()": "7882bf7e",
			"sttTokenBalance()": "f73dd028",
			"withdraw()": "3ccfd60b"
		}
	},
	"abi": [
		{
			"inputs": [
				{
					"internalType": "address",
					"name": "_sttToken",
					"type": "address"
				}
			],
			"stateMutability": "nonpayable",
			"type": "constructor"
		},
		{
			"anonymous": false,
			"inputs": [
				{
					"indexed": true,
					"internalType": "address",
					"name": "player",
					"type": "address"
				},
				{
					"indexed": false,
					"internalType": "enum RockPaperScissors.Move",
					"name": "playerMove",
					"type": "uint8"
				},
				{
					"indexed": false,
					"internalType": "enum RockPaperScissors.Move",
					"name": "contractMove",
					"type": "uint8"
				},
				{
					"indexed": false,
					"internalType": "string",
					"name": "result",
					"type": "string"
				}
			],
			"name": "GamePlayed",
			"type": "event"
		},
		{
			"inputs": [],
			"name": "betAmount",
			"outputs": [
				{
					"internalType": "uint256",
					"name": "",
					"type": "uint256"
				}
			],
			"stateMutability": "view",
			"type": "function"
		},
		{
			"inputs": [],
			"name": "owner",
			"outputs": [
				{
					"internalType": "address",
					"name": "",
					"type": "address"
				}
			],
			"stateMutability": "view",
			"type": "function"
		},
		{
			"inputs": [
				{
					"internalType": "uint8",
					"name": "_move",
					"type": "uint8"
				}
			],
			"name": "play",
			"outputs": [],
			"stateMutability": "nonpayable",
			"type": "function"
		},
		{
			"inputs": [],
			"name": "sttToken",
			"outputs": [
				{
					"internalType": "contract IERC20",
					"name": "",
					"type": "address"
				}
			],
			"stateMutability": "view",
			"type": "function"
		},
		{
			"inputs": [],
			"name": "sttTokenBalance",
			"outputs": [
				{
					"internalType": "uint256",
					"name": "",
					"type": "uint256"
				}
			],
			"stateMutability": "view",
			"type": "function"
		},
		{
			"inputs": [],
			"name": "withdraw",
			"outputs": [],
			"stateMutability": "nonpayable",
			"type": "function"
		}
	]
}