{
	"data": {
		"bytecode": {
			"linkReferences": {},
			"object": "6080604052670de0b6b3a764000060025534801561001b575f80fd5b50604051610e0c380380610e0c833981810160405281019061003d9190610122565b80805f806101000a81548173ffffffffffffffffffffffffffffffffffffffff021916908373ffffffffffffffffffffffffffffffffffffffff160217905550503360015f6101000a81548173ffffffffffffffffffffffffffffffffffffffff021916908373ffffffffffffffffffffffffffffffffffffffff1602179055505061014d565b5f80fd5b5f73ffffffffffffffffffffffffffffffffffffffff82169050919050565b5f6100f1826100c8565b9050919050565b610101816100e7565b811461010b575f80fd5b50565b5f8151905061011c816100f8565b92915050565b5f60208284031215610137576101366100c4565b5b5f6101448482850161010e565b91505092915050565b610cb28061015a5f395ff3fe608060405234801561000f575f80fd5b5060043610610086575f3560e01c8063d47875d011610059578063d47875d014610100578063d4f77b1c14610130578063e2eb41ff1461013a578063f851a4401461016b57610086565b8063072ea61c1461008a57806323e957b6146100a85780633ccfd60b146100d85780637882bf7e146100e2575b5f80fd5b610092610189565b60405161009f919061074c565b60405180910390f35b6100c260048036038101906100bd91906107c3565b61018f565b6040516100cf919061074c565b60405180910390f35b6100e06101e8565b005b6100ea610415565b6040516100f79190610849565b60405180910390f35b61011a600480360381019061011591906107c3565b610438565b604051610127919061074c565b60405180910390f35b610138610481565b005b610154600480360381019061014f91906107c3565b6106c2565b60405161016292919061087c565b60405180910390f35b6101736106ee565b60405161018091906108b2565b60405180910390f35b60025481565b5f8061019a83610713565b90505f6101a68461072a565b90505f620249f08311156101c4576028816101c191906108f8565b90505b601e8211156101dd57603c816101da91906108f8565b90505b809350505050919050565b60015f9054906101000a900473ffffffffffffffffffffffffffffffffffffffff1673ffffffffffffffffffffffffffffffffffffffff163373ffffffffffffffffffffffffffffffffffffffff1614610277576040517f08c379a000000000000000000000000000000000000000000000000000000000815260040161026e90610985565b60405180910390fd5b5f805f9054906101000a900473ffffffffffffffffffffffffffffffffffffffff1673ffffffffffffffffffffffffffffffffffffffff166370a08231306040518263ffffffff1660e01b81526004016102d191906108b2565b602060405180830381865afa1580156102ec573d5f803e3d5ffd5b505050506040513d601f19601f8201168201806040525081019061031091906109cd565b90505f805f9054906101000a900473ffffffffffffffffffffffffffffffffffffffff1673ffffffffffffffffffffffffffffffffffffffff1663a9059cbb60015f9054906101000a900473ffffffffffffffffffffffffffffffffffffffff16846040518363ffffffff1660e01b815260040161038f9291906109f8565b6020604051808303815f875af11580156103ab573d5f803e3d5ffd5b505050506040513d601f19601f820116820180604052508101906103cf9190610a49565b905080610411576040517f08c379a000000000000000000000000000000000000000000000000000000000815260040161040890610abe565b60405180910390fd5b5050565b5f8054906101000a900473ffffffffffffffffffffffffffffffffffffffff1681565b5f60035f8373ffffffffffffffffffffffffffffffffffffffff1673ffffffffffffffffffffffffffffffffffffffff1681526020019081526020015f20600101549050919050565b60035f3373ffffffffffffffffffffffffffffffffffffffff1673ffffffffffffffffffffffffffffffffffffffff1681526020019081526020015f205f015f9054906101000a900460ff161561050d576040517f08c379a000000000000000000000000000000000000000000000000000000000815260040161050490610b26565b60405180910390fd5b5f6105173361018f565b9050603281101561055d576040517f08c379a000000000000000000000000000000000000000000000000000000000815260040161055490610b8e565b60405180910390fd5b5f805f9054906101000a900473ffffffffffffffffffffffffffffffffffffffff1673ffffffffffffffffffffffffffffffffffffffff166323b872dd33306002546040518463ffffffff1660e01b81526004016105bd93929190610bac565b6020604051808303815f875af11580156105d9573d5f803e3d5ffd5b505050506040513d601f19601f820116820180604052508101906105fd9190610a49565b90508061063f576040517f08c379a000000000000000000000000000000000000000000000000000000000815260040161063690610c2b565b60405180910390fd5b60405180604001604052806001151581526020018381525060035f3373ffffffffffffffffffffffffffffffffffffffff1673ffffffffffffffffffffffffffffffffffffffff1681526020019081526020015f205f820151815f015f6101000a81548160ff021916908315150217905550602082015181600101559050505050565b6003602052805f5260405f205f91509050805f015f9054906101000a900460ff16908060010154905082565b60015f9054906101000a900473ffffffffffffffffffffffffffffffffffffffff1681565b5f620186a0436107239190610c49565b9050919050565b5f602a9050919050565b5f819050919050565b61074681610734565b82525050565b5f60208201905061075f5f83018461073d565b92915050565b5f80fd5b5f73ffffffffffffffffffffffffffffffffffffffff82169050919050565b5f61079282610769565b9050919050565b6107a281610788565b81146107ac575f80fd5b50565b5f813590506107bd81610799565b92915050565b5f602082840312156107d8576107d7610765565b5b5f6107e5848285016107af565b91505092915050565b5f819050919050565b5f61081161080c61080784610769565b6107ee565b610769565b9050919050565b5f610822826107f7565b9050919050565b5f61083382610818565b9050919050565b61084381610829565b82525050565b5f60208201905061085c5f83018461083a565b92915050565b5f8115159050919050565b61087681610862565b82525050565b5f60408201905061088f5f83018561086d565b61089c602083018461073d565b9392505050565b6108ac81610788565b82525050565b5f6020820190506108c55f8301846108a3565b92915050565b7f4e487b71000000000000000000000000000000000000000000000000000000005f52601160045260245ffd5b5f61090282610734565b915061090d83610734565b9250828201905080821115610925576109246108cb565b5b92915050565b5f82825260208201905092915050565b7f4e6f742061646d696e00000000000000000000000000000000000000000000005f82015250565b5f61096f60098361092b565b915061097a8261093b565b602082019050919050565b5f6020820190508181035f83015261099c81610963565b9050919050565b6109ac81610734565b81146109b6575f80fd5b50565b5f815190506109c7816109a3565b92915050565b5f602082840312156109e2576109e1610765565b5b5f6109ef848285016109b9565b91505092915050565b5f604082019050610a0b5f8301856108a3565b610a18602083018461073d565b9392505050565b610a2881610862565b8114610a32575f80fd5b50565b5f81519050610a4381610a1f565b92915050565b5f60208284031215610a5e57610a5d610765565b5b5f610a6b84828501610a35565b91505092915050565b7f5769746864726177206661696c656400000000000000000000000000000000005f82015250565b5f610aa8600f8361092b565b9150610ab382610a74565b602082019050919050565b5f6020820190508181035f830152610ad581610a9c565b9050919050565b7f416c7265616479206a6f696e65640000000000000000000000000000000000005f82015250565b5f610b10600e8361092b565b9150610b1b82610adc565b602082019050919050565b5f6020820190508181035f830152610b3d81610b04565b9050919050565b7f53636f726520746f6f206c6f77000000000000000000000000000000000000005f82015250565b5f610b78600d8361092b565b9150610b8382610b44565b602082019050919050565b5f6020820190508181035f830152610ba581610b6c565b9050919050565b5f606082019050610bbf5f8301866108a3565b610bcc60208301856108a3565b610bd9604083018461073d565b949350505050565b7f5472616e73666572206661696c656400000000000000000000000000000000005f82015250565b5f610c15600f8361092b565b9150610c2082610be1565b602082019050919050565b5f6020820190508181035f830152610c4281610c09565b9050919050565b5f610c5382610734565b9150610c5e83610734565b9250828203905081811115610c7657610c756108cb565b5b9291505056fea26469706673582212200fc5b7e77b4c3bf144a9640c599ac543f52aee25ce23b26d7ca4ffab0625e0bf64736f6c63430008140033",
			"opcodes": "PUSH1 0x80 PUSH1 0x40 MSTORE PUSH8 0xDE0B6B3A7640000 PUSH1 0x2 SSTORE CALLVALUE DUP1 ISZERO PUSH2 0x1B JUMPI PUSH0 DUP1 REVERT JUMPDEST POP PUSH1 0x40 MLOAD PUSH2 0xE0C CODESIZE SUB DUP1 PUSH2 0xE0C DUP4 CODECOPY DUP2 DUP2 ADD PUSH1 0x40 MSTORE DUP2 ADD SWAP1 PUSH2 0x3D SWAP2 SWAP1 PUSH2 0x122 JUMP JUMPDEST DUP1 DUP1 PUSH0 DUP1 PUSH2 0x100 EXP DUP2 SLOAD DUP2 PUSH20 0xFFFFFFFFFFFFFFFFFFFFFFFFFFFFFFFFFFFFFFFF MUL NOT AND SWAP1 DUP4 PUSH20 0xFFFFFFFFFFFFFFFFFFFFFFFFFFFFFFFFFFFFFFFF AND MUL OR SWAP1 SSTORE POP POP CALLER PUSH1 0x1 PUSH0 PUSH2 0x100 EXP DUP2 SLOAD DUP2 PUSH20 0xFFFFFFFFFFFFFFFFFFFFFFFFFFFFFFFFFFFFFFFF MUL NOT AND SWAP1 DUP4 PUSH20 0xFFFFFFFFFFFFFFFFFFFFFFFFFFFFFFFFFFFFFFFF AND MUL OR SWAP1 SSTORE POP POP PUSH2 0x14D JUMP JUMPDEST PUSH0 DUP1 REVERT JUMPDEST PUSH0 PUSH20 0xFFFFFFFFFFFFFFFFFFFFFFFFFFFFFFFFFFFFFFFF DUP3 AND SWAP1 POP SWAP2 SWAP1 POP JUMP JUMPDEST PUSH0 PUSH2 0xF1 DUP3 PUSH2 0xC8 JUMP JUMPDEST SWAP1 POP SWAP2 SWAP1 POP JUMP JUMPDEST PUSH2 0x101 DUP2 PUSH2 0xE7 JUMP JUMPDEST DUP2 EQ PUSH2 0x10B JUMPI PUSH0 DUP1 REVERT JUMPDEST POP JUMP JUMPDEST PUSH0 DUP2 MLOAD SWAP1 POP PUSH2 0x11C DUP2 PUSH2 0xF8 JUMP JUMPDEST SWAP3 SWAP2 POP POP JUMP JUMPDEST PUSH0 PUSH1 0x20 DUP3 DUP5 SUB SLT ISZERO PUSH2 0x137 JUMPI PUSH2 0x136 PUSH2 0xC4 JUMP JUMPDEST JUMPDEST PUSH0 PUSH2 0x144 DUP5 DUP3 DUP6 ADD PUSH2 0x10E JUMP JUMPDEST SWAP2 POP POP SWAP3 SWAP2 POP POP JUMP JUMPDEST PUSH2 0xCB2 DUP1 PUSH2 0x15A PUSH0 CODECOPY PUSH0 RETURN INVALID PUSH1 0x80 PUSH1 0x40 MSTORE CALLVALUE DUP1 ISZERO PUSH2 0xF JUMPI PUSH0 DUP1 REVERT JUMPDEST POP PUSH1 0x4 CALLDATASIZE LT PUSH2 0x86 JUMPI PUSH0 CALLDATALOAD PUSH1 0xE0 SHR DUP1 PUSH4 0xD47875D0 GT PUSH2 0x59 JUMPI DUP1 PUSH4 0xD47875D0 EQ PUSH2 0x100 JUMPI DUP1 PUSH4 0xD4F77B1C EQ PUSH2 0x130 JUMPI DUP1 PUSH4 0xE2EB41FF EQ PUSH2 0x13A JUMPI DUP1 PUSH4 0xF851A440 EQ PUSH2 0x16B JUMPI PUSH2 0x86 JUMP JUMPDEST DUP1 PUSH4 0x72EA61C EQ PUSH2 0x8A JUMPI DUP1 PUSH4 0x23E957B6 EQ PUSH2 0xA8 JUMPI DUP1 PUSH4 0x3CCFD60B EQ PUSH2 0xD8 JUMPI DUP1 PUSH4 0x7882BF7E EQ PUSH2 0xE2 JUMPI JUMPDEST PUSH0 DUP1 REVERT JUMPDEST PUSH2 0x92 PUSH2 0x189 JUMP JUMPDEST PUSH1 0x40 MLOAD PUSH2 0x9F SWAP2 SWAP1 PUSH2 0x74C JUMP JUMPDEST PUSH1 0x40 MLOAD DUP1 SWAP2 SUB SWAP1 RETURN JUMPDEST PUSH2 0xC2 PUSH1 0x4 DUP1 CALLDATASIZE SUB DUP2 ADD SWAP1 PUSH2 0xBD SWAP2 SWAP1 PUSH2 0x7C3 JUMP JUMPDEST PUSH2 0x18F JUMP JUMPDEST PUSH1 0x40 MLOAD PUSH2 0xCF SWAP2 SWAP1 PUSH2 0x74C JUMP JUMPDEST PUSH1 0x40 MLOAD DUP1 SWAP2 SUB SWAP1 RETURN JUMPDEST PUSH2 0xE0 PUSH2 0x1E8 JUMP JUMPDEST STOP JUMPDEST PUSH2 0xEA PUSH2 0x415 JUMP JUMPDEST PUSH1 0x40 MLOAD PUSH2 0xF7 SWAP2 SWAP1 PUSH2 0x849 JUMP JUMPDEST PUSH1 0x40 MLOAD DUP1 SWAP2 SUB SWAP1 RETURN JUMPDEST PUSH2 0x11A PUSH1 0x4 DUP1 CALLDATASIZE SUB DUP2 ADD SWAP1 PUSH2 0x115 SWAP2 SWAP1 PUSH2 0x7C3 JUMP JUMPDEST PUSH2 0x438 JUMP JUMPDEST PUSH1 0x40 MLOAD PUSH2 0x127 SWAP2 SWAP1 PUSH2 0x74C JUMP JUMPDEST PUSH1 0x40 MLOAD DUP1 SWAP2 SUB SWAP1 RETURN JUMPDEST PUSH2 0x138 PUSH2 0x481 JUMP JUMPDEST STOP JUMPDEST PUSH2 0x154 PUSH1 0x4 DUP1 CALLDATASIZE SUB DUP2 ADD SWAP1 PUSH2 0x14F SWAP2 SWAP1 PUSH2 0x7C3 JUMP JUMPDEST PUSH2 0x6C2 JUMP JUMPDEST PUSH1 0x40 MLOAD PUSH2 0x162 SWAP3 SWAP2 SWAP1 PUSH2 0x87C JUMP JUMPDEST PUSH1 0x40 MLOAD DUP1 SWAP2 SUB SWAP1 RETURN JUMPDEST PUSH2 0x173 PUSH2 0x6EE JUMP JUMPDEST PUSH1 0x40 MLOAD PUSH2 0x180 SWAP2 SWAP1 PUSH2 0x8B2 JUMP JUMPDEST PUSH1 0x40 MLOAD DUP1 SWAP2 SUB SWAP1 RETURN JUMPDEST PUSH1 0x2 SLOAD DUP2 JUMP JUMPDEST PUSH0 DUP1 PUSH2 0x19A DUP4 PUSH2 0x713 JUMP JUMPDEST SWAP1 POP PUSH0 PUSH2 0x1A6 DUP5 PUSH2 0x72A JUMP JUMPDEST SWAP1 POP PUSH0 PUSH3 0x249F0 DUP4 GT ISZERO PUSH2 0x1C4 JUMPI PUSH1 0x28 DUP2 PUSH2 0x1C1 SWAP2 SWAP1 PUSH2 0x8F8 JUMP JUMPDEST SWAP1 POP JUMPDEST PUSH1 0x1E DUP3 GT ISZERO PUSH2 0x1DD JUMPI PUSH1 0x3C DUP2 PUSH2 0x1DA SWAP2 SWAP1 PUSH2 0x8F8 JUMP JUMPDEST SWAP1 POP JUMPDEST DUP1 SWAP4 POP POP POP POP SWAP2 SWAP1 POP JUMP JUMPDEST PUSH1 0x1 PUSH0 SWAP1 SLOAD SWAP1 PUSH2 0x100 EXP SWAP1 DIV PUSH20 0xFFFFFFFFFFFFFFFFFFFFFFFFFFFFFFFFFFFFFFFF AND PUSH20 0xFFFFFFFFFFFFFFFFFFFFFFFFFFFFFFFFFFFFFFFF AND CALLER PUSH20 0xFFFFFFFFFFFFFFFFFFFFFFFFFFFFFFFFFFFFFFFF AND EQ PUSH2 0x277 JUMPI PUSH1 0x40 MLOAD PUSH32 0x8C379A000000000000000000000000000000000000000000000000000000000 DUP2 MSTORE PUSH1 0x4 ADD PUSH2 0x26E SWAP1 PUSH2 0x985 JUMP JUMPDEST PUSH1 0x40 MLOAD DUP1 SWAP2 SUB SWAP1 REVERT JUMPDEST PUSH0 DUP1 PUSH0 SWAP1 SLOAD SWAP1 PUSH2 0x100 EXP SWAP1 DIV PUSH20 0xFFFFFFFFFFFFFFFFFFFFFFFFFFFFFFFFFFFFFFFF AND PUSH20 0xFFFFFFFFFFFFFFFFFFFFFFFFFFFFFFFFFFFFFFFF AND PUSH4 0x70A08231 ADDRESS PUSH1 0x40 MLOAD DUP3 PUSH4 0xFFFFFFFF AND PUSH1 0xE0 SHL DUP2 MSTORE PUSH1 0x4 ADD PUSH2 0x2D1 SWAP2 SWAP1 PUSH2 0x8B2 JUMP JUMPDEST PUSH1 0x20 PUSH1 0x40 MLOAD DUP1 DUP4 SUB DUP2 DUP7 GAS STATICCALL ISZERO DUP1 ISZERO PUSH2 0x2EC JUMPI RETURNDATASIZE PUSH0 DUP1 RETURNDATACOPY RETURNDATASIZE PUSH0 REVERT JUMPDEST POP POP POP POP PUSH1 0x40 MLOAD RETURNDATASIZE PUSH1 0x1F NOT PUSH1 0x1F DUP3 ADD AND DUP3 ADD DUP1 PUSH1 0x40 MSTORE POP DUP2 ADD SWAP1 PUSH2 0x310 SWAP2 SWAP1 PUSH2 0x9CD JUMP JUMPDEST SWAP1 POP PUSH0 DUP1 PUSH0 SWAP1 SLOAD SWAP1 PUSH2 0x100 EXP SWAP1 DIV PUSH20 0xFFFFFFFFFFFFFFFFFFFFFFFFFFFFFFFFFFFFFFFF AND PUSH20 0xFFFFFFFFFFFFFFFFFFFFFFFFFFFFFFFFFFFFFFFF AND PUSH4 0xA9059CBB PUSH1 0x1 PUSH0 SWAP1 SLOAD SWAP1 PUSH2 0x100 EXP SWAP1 DIV PUSH20 0xFFFFFFFFFFFFFFFFFFFFFFFFFFFFFFFFFFFFFFFF AND DUP5 PUSH1 0x40 MLOAD DUP4 PUSH4 0xFFFFFFFF AND PUSH1 0xE0 SHL DUP2 MSTORE PUSH1 0x4 ADD PUSH2 0x38F SWAP3 SWAP2 SWAP1 PUSH2 0x9F8 JUMP JUMPDEST PUSH1 0x20 PUSH1 0x40 MLOAD DUP1 DUP4 SUB DUP2 PUSH0 DUP8 GAS CALL ISZERO DUP1 ISZERO PUSH2 0x3AB JUMPI RETURNDATASIZE PUSH0 DUP1 RETURNDATACOPY RETURNDATASIZE PUSH0 REVERT JUMPDEST POP POP POP POP PUSH1 0x40 MLOAD RETURNDATASIZE PUSH1 0x1F NOT PUSH1 0x1F DUP3 ADD AND DUP3 ADD DUP1 PUSH1 0x40 MSTORE POP DUP2 ADD SWAP1 PUSH2 0x3CF SWAP2 SWAP1 PUSH2 0xA49 JUMP JUMPDEST SWAP1 POP DUP1 PUSH2 0x411 JUMPI PUSH1 0x40 MLOAD PUSH32 0x8C379A000000000000000000000000000000000000000000000000000000000 DUP2 MSTORE PUSH1 0x4 ADD PUSH2 0x408 SWAP1 PUSH2 0xABE JUMP JUMPDEST PUSH1 0x40 MLOAD DUP1 SWAP2 SUB SWAP1 REVERT JUMPDEST POP POP JUMP JUMPDEST PUSH0 DUP1 SLOAD SWAP1 PUSH2 0x100 EXP SWAP1 DIV PUSH20 0xFFFFFFFFFFFFFFFFFFFFFFFFFFFFFFFFFFFFFFFF AND DUP2 JUMP JUMPDEST PUSH0 PUSH1 0x3 PUSH0 DUP4 PUSH20 0xFFFFFFFFFFFFFFFFFFFFFFFFFFFFFFFFFFFFFFFF AND PUSH20 0xFFFFFFFFFFFFFFFFFFFFFFFFFFFFFFFFFFFFFFFF AND DUP2 MSTORE PUSH1 0x20 ADD SWAP1 DUP2 MSTORE PUSH1 0x20 ADD PUSH0 KECCAK256 PUSH1 0x1 ADD SLOAD SWAP1 POP SWAP2 SWAP1 POP JUMP JUMPDEST PUSH1 0x3 PUSH0 CALLER PUSH20 0xFFFFFFFFFFFFFFFFFFFFFFFFFFFFFFFFFFFFFFFF AND PUSH20 0xFFFFFFFFFFFFFFFFFFFFFFFFFFFFFFFFFFFFFFFF AND DUP2 MSTORE PUSH1 0x20 ADD SWAP1 DUP2 MSTORE PUSH1 0x20 ADD PUSH0 KECCAK256 PUSH0 ADD PUSH0 SWAP1 SLOAD SWAP1 PUSH2 0x100 EXP SWAP1 DIV PUSH1 0xFF AND ISZERO PUSH2 0x50D JUMPI PUSH1 0x40 MLOAD PUSH32 0x8C379A000000000000000000000000000000000000000000000000000000000 DUP2 MSTORE PUSH1 0x4 ADD PUSH2 0x504 SWAP1 PUSH2 0xB26 JUMP JUMPDEST PUSH1 0x40 MLOAD DUP1 SWAP2 SUB SWAP1 REVERT JUMPDEST PUSH0 PUSH2 0x517 CALLER PUSH2 0x18F JUMP JUMPDEST SWAP1 POP PUSH1 0x32 DUP2 LT ISZERO PUSH2 0x55D JUMPI PUSH1 0x40 MLOAD PUSH32 0x8C379A000000000000000000000000000000000000000000000000000000000 DUP2 MSTORE PUSH1 0x4 ADD PUSH2 0x554 SWAP1 PUSH2 0xB8E JUMP JUMPDEST PUSH1 0x40 MLOAD DUP1 SWAP2 SUB SWAP1 REVERT JUMPDEST PUSH0 DUP1 PUSH0 SWAP1 SLOAD SWAP1 PUSH2 0x100 EXP SWAP1 DIV PUSH20 0xFFFFFFFFFFFFFFFFFFFFFFFFFFFFFFFFFFFFFFFF AND PUSH20 0xFFFFFFFFFFFFFFFFFFFFFFFFFFFFFFFFFFFFFFFF AND PUSH4 0x23B872DD CALLER ADDRESS PUSH1 0x2 SLOAD PUSH1 0x40 MLOAD DUP5 PUSH4 0xFFFFFFFF AND PUSH1 0xE0 SHL DUP2 MSTORE PUSH1 0x4 ADD PUSH2 0x5BD SWAP4 SWAP3 SWAP2 SWAP1 PUSH2 0xBAC JUMP JUMPDEST PUSH1 0x20 PUSH1 0x40 MLOAD DUP1 DUP4 SUB DUP2 PUSH0 DUP8 GAS CALL ISZERO DUP1 ISZERO PUSH2 0x5D9 JUMPI RETURNDATASIZE PUSH0 DUP1 RETURNDATACOPY RETURNDATASIZE PUSH0 REVERT JUMPDEST POP POP POP POP PUSH1 0x40 MLOAD RETURNDATASIZE PUSH1 0x1F NOT PUSH1 0x1F DUP3 ADD AND DUP3 ADD DUP1 PUSH1 0x40 MSTORE POP DUP2 ADD SWAP1 PUSH2 0x5FD SWAP2 SWAP1 PUSH2 0xA49 JUMP JUMPDEST SWAP1 POP DUP1 PUSH2 0x63F JUMPI PUSH1 0x40 MLOAD PUSH32 0x8C379A000000000000000000000000000000000000000000000000000000000 DUP2 MSTORE PUSH1 0x4 ADD PUSH2 0x636 SWAP1 PUSH2 0xC2B JUMP JUMPDEST PUSH1 0x40 MLOAD DUP1 SWAP2 SUB SWAP1 REVERT JUMPDEST PUSH1 0x40 MLOAD DUP1 PUSH1 0x40 ADD PUSH1 0x40 MSTORE DUP1 PUSH1 0x1 ISZERO ISZERO DUP2 MSTORE PUSH1 0x20 ADD DUP4 DUP2 MSTORE POP PUSH1 0x3 PUSH0 CALLER PUSH20 0xFFFFFFFFFFFFFFFFFFFFFFFFFFFFFFFFFFFFFFFF AND PUSH20 0xFFFFFFFFFFFFFFFFFFFFFFFFFFFFFFFFFFFFFFFF AND DUP2 MSTORE PUSH1 0x20 ADD SWAP1 DUP2 MSTORE PUSH1 0x20 ADD PUSH0 KECCAK256 PUSH0 DUP3 ADD MLOAD DUP2 PUSH0 ADD PUSH0 PUSH2 0x100 EXP DUP2 SLOAD DUP2 PUSH1 0xFF MUL NOT AND SWAP1 DUP4 ISZERO ISZERO MUL OR SWAP1 SSTORE POP PUSH1 0x20 DUP3 ADD MLOAD DUP2 PUSH1 0x1 ADD SSTORE SWAP1 POP POP POP POP JUMP JUMPDEST PUSH1 0x3 PUSH1 0x20 MSTORE DUP1 PUSH0 MSTORE PUSH1 0x40 PUSH0 KECCAK256 PUSH0 SWAP2 POP SWAP1 POP DUP1 PUSH0 ADD PUSH0 SWAP1 SLOAD SWAP1 PUSH2 0x100 EXP SWAP1 DIV PUSH1 0xFF AND SWAP1 DUP1 PUSH1 0x1 ADD SLOAD SWAP1 POP DUP3 JUMP JUMPDEST PUSH1 0x1 PUSH0 SWAP1 SLOAD SWAP1 PUSH2 0x100 EXP SWAP1 DIV PUSH20 0xFFFFFFFFFFFFFFFFFFFFFFFFFFFFFFFFFFFFFFFF AND DUP2 JUMP JUMPDEST PUSH0 PUSH3 0x186A0 NUMBER PUSH2 0x723 SWAP2 SWAP1 PUSH2 0xC49 JUMP JUMPDEST SWAP1 POP SWAP2 SWAP1 POP JUMP JUMPDEST PUSH0 PUSH1 0x2A SWAP1 POP SWAP2 SWAP1 POP JUMP JUMPDEST PUSH0 DUP2 SWAP1 POP SWAP2 SWAP1 POP JUMP JUMPDEST PUSH2 0x746 DUP2 PUSH2 0x734 JUMP JUMPDEST DUP3 MSTORE POP POP JUMP JUMPDEST PUSH0 PUSH1 0x20 DUP3 ADD SWAP1 POP PUSH2 0x75F PUSH0 DUP4 ADD DUP5 PUSH2 0x73D JUMP JUMPDEST SWAP3 SWAP2 POP POP JUMP JUMPDEST PUSH0 DUP1 REVERT JUMPDEST PUSH0 PUSH20 0xFFFFFFFFFFFFFFFFFFFFFFFFFFFFFFFFFFFFFFFF DUP3 AND SWAP1 POP SWAP2 SWAP1 POP JUMP JUMPDEST PUSH0 PUSH2 0x792 DUP3 PUSH2 0x769 JUMP JUMPDEST SWAP1 POP SWAP2 SWAP1 POP JUMP JUMPDEST PUSH2 0x7A2 DUP2 PUSH2 0x788 JUMP JUMPDEST DUP2 EQ PUSH2 0x7AC JUMPI PUSH0 DUP1 REVERT JUMPDEST POP JUMP JUMPDEST PUSH0 DUP2 CALLDATALOAD SWAP1 POP PUSH2 0x7BD DUP2 PUSH2 0x799 JUMP JUMPDEST SWAP3 SWAP2 POP POP JUMP JUMPDEST PUSH0 PUSH1 0x20 DUP3 DUP5 SUB SLT ISZERO PUSH2 0x7D8 JUMPI PUSH2 0x7D7 PUSH2 0x765 JUMP JUMPDEST JUMPDEST PUSH0 PUSH2 0x7E5 DUP5 DUP3 DUP6 ADD PUSH2 0x7AF JUMP JUMPDEST SWAP2 POP POP SWAP3 SWAP2 POP POP JUMP JUMPDEST PUSH0 DUP2 SWAP1 POP SWAP2 SWAP1 POP JUMP JUMPDEST PUSH0 PUSH2 0x811 PUSH2 0x80C PUSH2 0x807 DUP5 PUSH2 0x769 JUMP JUMPDEST PUSH2 0x7EE JUMP JUMPDEST PUSH2 0x769 JUMP JUMPDEST SWAP1 POP SWAP2 SWAP1 POP JUMP JUMPDEST PUSH0 PUSH2 0x822 DUP3 PUSH2 0x7F7 JUMP JUMPDEST SWAP1 POP SWAP2 SWAP1 POP JUMP JUMPDEST PUSH0 PUSH2 0x833 DUP3 PUSH2 0x818 JUMP JUMPDEST SWAP1 POP SWAP2 SWAP1 POP JUMP JUMPDEST PUSH2 0x843 DUP2 PUSH2 0x829 JUMP JUMPDEST DUP3 MSTORE POP POP JUMP JUMPDEST PUSH0 PUSH1 0x20 DUP3 ADD SWAP1 POP PUSH2 0x85C PUSH0 DUP4 ADD DUP5 PUSH2 0x83A JUMP JUMPDEST SWAP3 SWAP2 POP POP JUMP JUMPDEST PUSH0 DUP2 ISZERO ISZERO SWAP1 POP SWAP2 SWAP1 POP JUMP JUMPDEST PUSH2 0x876 DUP2 PUSH2 0x862 JUMP JUMPDEST DUP3 MSTORE POP POP JUMP JUMPDEST PUSH0 PUSH1 0x40 DUP3 ADD SWAP1 POP PUSH2 0x88F PUSH0 DUP4 ADD DUP6 PUSH2 0x86D JUMP JUMPDEST PUSH2 0x89C PUSH1 0x20 DUP4 ADD DUP5 PUSH2 0x73D JUMP JUMPDEST SWAP4 SWAP3 POP POP POP JUMP JUMPDEST PUSH2 0x8AC DUP2 PUSH2 0x788 JUMP JUMPDEST DUP3 MSTORE POP POP JUMP JUMPDEST PUSH0 PUSH1 0x20 DUP3 ADD SWAP1 POP PUSH2 0x8C5 PUSH0 DUP4 ADD DUP5 PUSH2 0x8A3 JUMP JUMPDEST SWAP3 SWAP2 POP POP JUMP JUMPDEST PUSH32 0x4E487B7100000000000000000000000000000000000000000000000000000000 PUSH0 MSTORE PUSH1 0x11 PUSH1 0x4 MSTORE PUSH1 0x24 PUSH0 REVERT JUMPDEST PUSH0 PUSH2 0x902 DUP3 PUSH2 0x734 JUMP JUMPDEST SWAP2 POP PUSH2 0x90D DUP4 PUSH2 0x734 JUMP JUMPDEST SWAP3 POP DUP3 DUP3 ADD SWAP1 POP DUP1 DUP3 GT ISZERO PUSH2 0x925 JUMPI PUSH2 0x924 PUSH2 0x8CB JUMP JUMPDEST JUMPDEST SWAP3 SWAP2 POP POP JUMP JUMPDEST PUSH0 DUP3 DUP3 MSTORE PUSH1 0x20 DUP3 ADD SWAP1 POP SWAP3 SWAP2 POP POP JUMP JUMPDEST PUSH32 0x4E6F742061646D696E0000000000000000000000000000000000000000000000 PUSH0 DUP3 ADD MSTORE POP JUMP JUMPDEST PUSH0 PUSH2 0x96F PUSH1 0x9 DUP4 PUSH2 0x92B JUMP JUMPDEST SWAP2 POP PUSH2 0x97A DUP3 PUSH2 0x93B JUMP JUMPDEST PUSH1 0x20 DUP3 ADD SWAP1 POP SWAP2 SWAP1 POP JUMP JUMPDEST PUSH0 PUSH1 0x20 DUP3 ADD SWAP1 POP DUP2 DUP2 SUB PUSH0 DUP4 ADD MSTORE PUSH2 0x99C DUP2 PUSH2 0x963 JUMP JUMPDEST SWAP1 POP SWAP2 SWAP1 POP JUMP JUMPDEST PUSH2 0x9AC DUP2 PUSH2 0x734 JUMP JUMPDEST DUP2 EQ PUSH2 0x9B6 JUMPI PUSH0 DUP1 REVERT JUMPDEST POP JUMP JUMPDEST PUSH0 DUP2 MLOAD SWAP1 POP PUSH2 0x9C7 DUP2 PUSH2 0x9A3 JUMP JUMPDEST SWAP3 SWAP2 POP POP JUMP JUMPDEST PUSH0 PUSH1 0x20 DUP3 DUP5 SUB SLT ISZERO PUSH2 0x9E2 JUMPI PUSH2 0x9E1 PUSH2 0x765 JUMP JUMPDEST JUMPDEST PUSH0 PUSH2 0x9EF DUP5 DUP3 DUP6 ADD PUSH2 0x9B9 JUMP JUMPDEST SWAP2 POP POP SWAP3 SWAP2 POP POP JUMP JUMPDEST PUSH0 PUSH1 0x40 DUP3 ADD SWAP1 POP PUSH2 0xA0B PUSH0 DUP4 ADD DUP6 PUSH2 0x8A3 JUMP JUMPDEST PUSH2 0xA18 PUSH1 0x20 DUP4 ADD DUP5 PUSH2 0x73D JUMP JUMPDEST SWAP4 SWAP3 POP POP POP JUMP JUMPDEST PUSH2 0xA28 DUP2 PUSH2 0x862 JUMP JUMPDEST DUP2 EQ PUSH2 0xA32 JUMPI PUSH0 DUP1 REVERT JUMPDEST POP JUMP JUMPDEST PUSH0 DUP2 MLOAD SWAP1 POP PUSH2 0xA43 DUP2 PUSH2 0xA1F JUMP JUMPDEST SWAP3 SWAP2 POP POP JUMP JUMPDEST PUSH0 PUSH1 0x20 DUP3 DUP5 SUB SLT ISZERO PUSH2 0xA5E JUMPI PUSH2 0xA5D PUSH2 0x765 JUMP JUMPDEST JUMPDEST PUSH0 PUSH2 0xA6B DUP5 DUP3 DUP6 ADD PUSH2 0xA35 JUMP JUMPDEST SWAP2 POP POP SWAP3 SWAP2 POP POP JUMP JUMPDEST PUSH32 0x5769746864726177206661696C65640000000000000000000000000000000000 PUSH0 DUP3 ADD MSTORE POP JUMP JUMPDEST PUSH0 PUSH2 0xAA8 PUSH1 0xF DUP4 PUSH2 0x92B JUMP JUMPDEST SWAP2 POP PUSH2 0xAB3 DUP3 PUSH2 0xA74 JUMP JUMPDEST PUSH1 0x20 DUP3 ADD SWAP1 POP SWAP2 SWAP1 POP JUMP JUMPDEST PUSH0 PUSH1 0x20 DUP3 ADD SWAP1 POP DUP2 DUP2 SUB PUSH0 DUP4 ADD MSTORE PUSH2 0xAD5 DUP2 PUSH2 0xA9C JUMP JUMPDEST SWAP1 POP SWAP2 SWAP1 POP JUMP JUMPDEST PUSH32 0x416C7265616479206A6F696E6564000000000000000000000000000000000000 PUSH0 DUP3 ADD MSTORE POP JUMP JUMPDEST PUSH0 PUSH2 0xB10 PUSH1 0xE DUP4 PUSH2 0x92B JUMP JUMPDEST SWAP2 POP PUSH2 0xB1B DUP3 PUSH2 0xADC JUMP JUMPDEST PUSH1 0x20 DUP3 ADD SWAP1 POP SWAP2 SWAP1 POP JUMP JUMPDEST PUSH0 PUSH1 0x20 DUP3 ADD SWAP1 POP DUP2 DUP2 SUB PUSH0 DUP4 ADD MSTORE PUSH2 0xB3D DUP2 PUSH2 0xB04 JUMP JUMPDEST SWAP1 POP SWAP2 SWAP1 POP JUMP JUMPDEST PUSH32 0x53636F726520746F6F206C6F7700000000000000000000000000000000000000 PUSH0 DUP3 ADD MSTORE POP JUMP JUMPDEST PUSH0 PUSH2 0xB78 PUSH1 0xD DUP4 PUSH2 0x92B JUMP JUMPDEST SWAP2 POP PUSH2 0xB83 DUP3 PUSH2 0xB44 JUMP JUMPDEST PUSH1 0x20 DUP3 ADD SWAP1 POP SWAP2 SWAP1 POP JUMP JUMPDEST PUSH0 PUSH1 0x20 DUP3 ADD SWAP1 POP DUP2 DUP2 SUB PUSH0 DUP4 ADD MSTORE PUSH2 0xBA5 DUP2 PUSH2 0xB6C JUMP JUMPDEST SWAP1 POP SWAP2 SWAP1 POP JUMP JUMPDEST PUSH0 PUSH1 0x60 DUP3 ADD SWAP1 POP PUSH2 0xBBF PUSH0 DUP4 ADD DUP7 PUSH2 0x8A3 JUMP JUMPDEST PUSH2 0xBCC PUSH1 0x20 DUP4 ADD DUP6 PUSH2 0x8A3 JUMP JUMPDEST PUSH2 0xBD9 PUSH1 0x40 DUP4 ADD DUP5 PUSH2 0x73D JUMP JUMPDEST SWAP5 SWAP4 POP POP POP POP JUMP JUMPDEST PUSH32 0x5472616E73666572206661696C65640000000000000000000000000000000000 PUSH0 DUP3 ADD MSTORE POP JUMP JUMPDEST PUSH0 PUSH2 0xC15 PUSH1 0xF DUP4 PUSH2 0x92B JUMP JUMPDEST SWAP2 POP PUSH2 0xC20 DUP3 PUSH2 0xBE1 JUMP JUMPDEST PUSH1 0x20 DUP3 ADD SWAP1 POP SWAP2 SWAP1 POP JUMP JUMPDEST PUSH0 PUSH1 0x20 DUP3 ADD SWAP1 POP DUP2 DUP2 SUB PUSH0 DUP4 ADD MSTORE PUSH2 0xC42 DUP2 PUSH2 0xC09 JUMP JUMPDEST SWAP1 POP SWAP2 SWAP1 POP JUMP JUMPDEST PUSH0 PUSH2 0xC53 DUP3 PUSH2 0x734 JUMP JUMPDEST SWAP2 POP PUSH2 0xC5E DUP4 PUSH2 0x734 JUMP JUMPDEST SWAP3 POP DUP3 DUP3 SUB SWAP1 POP DUP2 DUP2 GT ISZERO PUSH2 0xC76 JUMPI PUSH2 0xC75 PUSH2 0x8CB JUMP JUMPDEST JUMPDEST SWAP3 SWAP2 POP POP JUMP INVALID LOG2 PUSH5 0x6970667358 0x22 SLT KECCAK256 0xF 0xC5 0xB7 0xE7 PUSH28 0x4C3BF144A9640C599AC543F52AEE25CE23B26D7CA4FFAB0625E0BF64 PUSH20 0x6F6C634300081400330000000000000000000000 "
		},
		"gasEstimates": {
			"creation": {
				"codeDepositCost": "650000",
				"executionCost": "infinite",
				"totalCost": "infinite"
			},
			"external": {
				"admin()": "2574",
				"calculateScore(address)": "infinite",
				"entryFee()": "2426",
				"getScore(address)": "2835",
				"joinGame()": "infinite",
				"players(address)": "5111",
				"sttToken()": "infinite",
				"withdraw()": "infinite"
			},
			"internal": {
				"mockInteractionCount(address)": "27",
				"mockWalletAge(address)": "infinite"
			}
		},
		"methodIdentifiers": {
			"admin()": "f851a440",
			"calculateScore(address)": "23e957b6",
			"entryFee()": "072ea61c",
			"getScore(address)": "d47875d0",
			"joinGame()": "d4f77b1c",
			"players(address)": "e2eb41ff",
			"sttToken()": "7882bf7e",
			"withdraw()": "3ccfd60b"
		}
	},
	"abi": [
		{
			"inputs": [
				{
					"internalType": "address",
					"name": "_sttToken",
					"type": "address"
				}
			],
			"stateMutability": "nonpayable",
			"type": "constructor"
		},
		{
			"inputs": [],
			"name": "admin",
			"outputs": [
				{
					"internalType": "address",
					"name": "",
					"type": "address"
				}
			],
			"stateMutability": "view",
			"type": "function"
		},
		{
			"inputs": [
				{
					"internalType": "address",
					"name": "user",
					"type": "address"
				}
			],
			"name": "calculateScore",
			"outputs": [
				{
					"internalType": "uint256",
					"name": "",
					"type": "uint256"
				}
			],
			"stateMutability": "view",
			"type": "function"
		},
		{
			"inputs": [],
			"name": "entryFee",
			"outputs": [
				{
					"internalType": "uint256",
					"name": "",
					"type": "uint256"
				}
			],
			"stateMutability": "view",
			"type": "function"
		},
		{
			"inputs": [
				{
					"internalType": "address",
					"name": "player",
					"type": "address"
				}
			],
			"name": "getScore",
			"outputs": [
				{
					"internalType": "uint256",
					"name": "",
					"type": "uint256"
				}
			],
			"stateMutability": "view",
			"type": "function"
		},
		{
			"inputs": [],
			"name": "joinGame",
			"outputs": [],
			"stateMutability": "nonpayable",
			"type": "function"
		},
		{
			"inputs": [
				{
					"internalType": "address",
					"name": "",
					"type": "address"
				}
			],
			"name": "players",
			"outputs": [
				{
					"internalType": "bool",
					"name": "joined",
					"type": "bool"
				},
				{
					"internalType": "uint256",
					"name": "score",
					"type": "uint256"
				}
			],
			"stateMutability": "view",
			"type": "function"
		},
		{
			"inputs": [],
			"name": "sttToken",
			"outputs": [
				{
					"internalType": "contract IERC20",
					"name": "",
					"type": "address"
				}
			],
			"stateMutability": "view",
			"type": "function"
		},
		{
			"inputs": [],
			"name": "withdraw",
			"outputs": [],
			"stateMutability": "nonpayable",
			"type": "function"
		}
	]
}